{
  "contractName": "DaoFactory",
  "abi": [
    {
      "anonymous": false,
      "inputs": [
        {
          "indexed": true,
          "internalType": "address",
          "name": "token",
          "type": "address"
        },
        {
          "indexed": false,
          "internalType": "address",
          "name": "timelock",
          "type": "address"
        }
      ],
      "name": "DelegatorCreated",
      "type": "event"
    },
    {
      "anonymous": false,
      "inputs": [
        {
          "indexed": true,
          "internalType": "address",
          "name": "token",
          "type": "address"
        },
        {
          "indexed": false,
          "internalType": "address",
          "name": "timelock",
          "type": "address"
        }
      ],
      "name": "TimelockCreated",
      "type": "event"
    },
    {
      "constant": true,
      "inputs": [
        {
          "internalType": "address",
          "name": "",
          "type": "address"
        }
      ],
      "name": "delegators",
      "outputs": [
        {
          "internalType": "address",
          "name": "",
          "type": "address"
        }
      ],
      "payable": false,
      "stateMutability": "view",
      "type": "function"
    },
    {
      "constant": true,
      "inputs": [
        {
          "internalType": "address",
          "name": "",
          "type": "address"
        }
      ],
      "name": "timelocks",
      "outputs": [
        {
          "internalType": "address",
          "name": "",
          "type": "address"
        }
      ],
      "payable": false,
      "stateMutability": "view",
      "type": "function"
    },
    {
      "constant": false,
      "inputs": [
        {
          "internalType": "address",
          "name": "token",
          "type": "address"
        },
        {
          "internalType": "address",
          "name": "account",
          "type": "address"
        },
        {
          "internalType": "uint256",
          "name": "delay",
          "type": "uint256"
        }
      ],
      "name": "createTimelock",
      "outputs": [],
      "payable": false,
      "stateMutability": "nonpayable",
      "type": "function"
    },
    {
      "constant": false,
      "inputs": [
        {
          "internalType": "address",
          "name": "token",
          "type": "address"
        },
        {
          "internalType": "address",
          "name": "account",
          "type": "address"
        },
        {
          "internalType": "uint256",
          "name": "votingPeriod",
          "type": "uint256"
        },
        {
          "internalType": "uint256",
          "name": "votingDelay",
          "type": "uint256"
        },
        {
          "internalType": "uint256",
          "name": "proposalThreshold",
          "type": "uint256"
        }
      ],
      "name": "createDelegator",
      "outputs": [],
      "payable": false,
      "stateMutability": "nonpayable",
      "type": "function"
    }
  ],
  "bytecode": "0x608060405234801561001057600080fd5b50619d6a806100206000396000f3fe60806040523480156200001157600080fd5b5060043610620000525760003560e01c80631369a92714620000575780632c9d543b146200008d5780637497b4aa14620000ad5780638d23fc6114620000cd575b600080fd5b6200007560048036036200006f919081019062000481565b62000103565b604051620000849190620005b8565b60405180910390f35b620000ab6004803603620000a59190810190620004ad565b62000136565b005b620000cb6004803603620000c5919081019062000503565b62000248565b005b620000eb6004803603620000e5919081019062000481565b620003f6565b604051620000fa9190620005b8565b60405180910390f35b60006020528060005260406000206000915054906101000a900473ffffffffffffffffffffffffffffffffffffffff1681565b60008282604051620001489062000429565b620001559291906200066f565b604051809103906000f08015801562000172573d6000803e3d6000fd5b509050806000808673ffffffffffffffffffffffffffffffffffffffff1673ffffffffffffffffffffffffffffffffffffffff16815260200190815260200160002060006101000a81548173ffffffffffffffffffffffffffffffffffffffff021916908373ffffffffffffffffffffffffffffffffffffffff1602179055508373ffffffffffffffffffffffffffffffffffffffff167f1aed9f8cc9ee3895d4cf9f1099be81d1ee188d55dd2f1a9085781c9dd7841a77826040516200023a9190620005d5565b60405180910390a250505050565b6000604051620002589062000437565b604051809103906000f08015801562000275573d6000803e3d6000fd5b50905060008060008873ffffffffffffffffffffffffffffffffffffffff1673ffffffffffffffffffffffffffffffffffffffff16815260200190815260200160002060009054906101000a900473ffffffffffffffffffffffffffffffffffffffff16878784888888604051620002ed9062000445565b620002ff9796959493929190620005f2565b604051809103906000f0801580156200031c573d6000803e3d6000fd5b50905080600160008973ffffffffffffffffffffffffffffffffffffffff1673ffffffffffffffffffffffffffffffffffffffff16815260200190815260200160002060006101000a81548173ffffffffffffffffffffffffffffffffffffffff021916908373ffffffffffffffffffffffffffffffffffffffff1602179055508673ffffffffffffffffffffffffffffffffffffffff167f0976a62688d14faa8e35e63a7ada50f147ba1a0357f99182a596f9afea2502f482604051620003e59190620005d5565b60405180910390a250505050505050565b60016020528060005260406000206000915054906101000a900473ffffffffffffffffffffffffffffffffffffffff1681565b61200e806200074b83390190565b616789806200275983390190565b610e468062008ee283390190565b600081359050620004648162000716565b92915050565b6000813590506200047b8162000730565b92915050565b6000602082840312156200049457600080fd5b6000620004a48482850162000453565b91505092915050565b600080600060608486031215620004c357600080fd5b6000620004d38682870162000453565b9350506020620004e68682870162000453565b9250506040620004f9868287016200046a565b9150509250925092565b600080600080600060a086880312156200051c57600080fd5b60006200052c8882890162000453565b95505060206200053f8882890162000453565b945050604062000552888289016200046a565b935050606062000565888289016200046a565b925050608062000578888289016200046a565b9150509295509295909350565b6200059081620006da565b82525050565b620005a1816200069c565b82525050565b620005b281620006d0565b82525050565b6000602082019050620005cf600083018462000596565b92915050565b6000602082019050620005ec600083018462000585565b92915050565b600060e08201905062000609600083018a62000596565b62000618602083018962000596565b62000627604083018862000596565b62000636606083018762000596565b620006456080830186620005a7565b6200065460a0830185620005a7565b6200066360c0830184620005a7565b98975050505050505050565b600060408201905062000686600083018562000596565b620006956020830184620005a7565b9392505050565b6000620006a982620006b0565b9050919050565b600073ffffffffffffffffffffffffffffffffffffffff82169050919050565b6000819050919050565b6000620006e782620006ee565b9050919050565b6000620006fb8262000702565b9050919050565b60006200070f82620006b0565b9050919050565b62000721816200069c565b81146200072d57600080fd5b50565b6200073b81620006d0565b81146200074757600080fd5b5056fe608060405234801561001057600080fd5b5060405161200e38038061200e8339818101604052604081101561003357600080fd5b81019080805190602001909291908051906020019092919050505060008110156100a8576040517f08c379a0000000000000000000000000000000000000000000000000000000008152600401808060200182810382526037815260200180611f9f6037913960400191505060405180910390fd5b62278d00811115610104576040517f08c379a0000000000000000000000000000000000000000000000000000000008152600401808060200182810382526038815260200180611fd66038913960400191505060405180910390fd5b816000806101000a81548173ffffffffffffffffffffffffffffffffffffffff021916908373ffffffffffffffffffffffffffffffffffffffff160217905550806002819055505050611e438061015c6000396000f3fe6080604052600436106100c25760003560e01c80636a42b8f81161007f578063c1a287e211610059578063c1a287e21461073d578063e177246e14610768578063f2b06537146107a3578063f851a440146107f6576100c2565b80636a42b8f8146106bc5780637d645fab146106e7578063b1b43ae514610712576100c2565b80630825f38f146100c45780630e18b681146102c357806326782247146102da5780633a66f901146103315780634dd18bf5146104d8578063591fcdfe14610529575b005b610248600480360360a08110156100da57600080fd5b81019080803573ffffffffffffffffffffffffffffffffffffffff169060200190929190803590602001909291908035906020019064010000000081111561012157600080fd5b82018360208201111561013357600080fd5b8035906020019184600183028401116401000000008311171561015557600080fd5b91908080601f016020809104026020016040519081016040528093929190818152602001838380828437600081840152601f19601f820116905080830192505050505050509192919290803590602001906401000000008111156101b857600080fd5b8201836020820111156101ca57600080fd5b803590602001918460018302840111640100000000831117156101ec57600080fd5b91908080601f016020809104026020016040519081016040528093929190818152602001838380828437600081840152601f19601f8201169050808301925050505050505091929192908035906020019092919050505061084d565b6040518080602001828103825283818151815260200191508051906020019080838360005b8381101561028857808201518184015260208101905061026d565b50505050905090810190601f1680156102b55780820380516001836020036101000a031916815260200191505b509250505060405180910390f35b3480156102cf57600080fd5b506102d8610ece565b005b3480156102e657600080fd5b506102ef61105c565b604051808273ffffffffffffffffffffffffffffffffffffffff1673ffffffffffffffffffffffffffffffffffffffff16815260200191505060405180910390f35b34801561033d57600080fd5b506104c2600480360360a081101561035457600080fd5b81019080803573ffffffffffffffffffffffffffffffffffffffff169060200190929190803590602001909291908035906020019064010000000081111561039b57600080fd5b8201836020820111156103ad57600080fd5b803590602001918460018302840111640100000000831117156103cf57600080fd5b91908080601f016020809104026020016040519081016040528093929190818152602001838380828437600081840152601f19601f8201169050808301925050505050505091929192908035906020019064010000000081111561043257600080fd5b82018360208201111561044457600080fd5b8035906020019184600183028401116401000000008311171561046657600080fd5b91908080601f016020809104026020016040519081016040528093929190818152602001838380828437600081840152601f19601f82011690508083019250505050505050919291929080359060200190929190505050611082565b6040518082815260200191505060405180910390f35b3480156104e457600080fd5b50610527600480360360208110156104fb57600080fd5b81019080803573ffffffffffffffffffffffffffffffffffffffff169060200190929190505050611448565b005b34801561053557600080fd5b506106ba600480360360a081101561054c57600080fd5b81019080803573ffffffffffffffffffffffffffffffffffffffff169060200190929190803590602001909291908035906020019064010000000081111561059357600080fd5b8201836020820111156105a557600080fd5b803590602001918460018302840111640100000000831117156105c757600080fd5b91908080601f016020809104026020016040519081016040528093929190818152602001838380828437600081840152601f19601f8201169050808301925050505050505091929192908035906020019064010000000081111561062a57600080fd5b82018360208201111561063c57600080fd5b8035906020019184600183028401116401000000008311171561065e57600080fd5b91908080601f016020809104026020016040519081016040528093929190818152602001838380828437600081840152601f19601f82011690508083019250505050505050919291929080359060200190929190505050611575565b005b3480156106c857600080fd5b506106d16118c0565b6040518082815260200191505060405180910390f35b3480156106f357600080fd5b506106fc6118c6565b6040518082815260200191505060405180910390f35b34801561071e57600080fd5b506107276118cd565b6040518082815260200191505060405180910390f35b34801561074957600080fd5b506107526118d2565b6040518082815260200191505060405180910390f35b34801561077457600080fd5b506107a16004803603602081101561078b57600080fd5b81019080803590602001909291905050506118d9565b005b3480156107af57600080fd5b506107dc600480360360208110156107c657600080fd5b8101908080359060200190929190505050611a4c565b604051808215151515815260200191505060405180910390f35b34801561080257600080fd5b5061080b611a6c565b604051808273ffffffffffffffffffffffffffffffffffffffff1673ffffffffffffffffffffffffffffffffffffffff16815260200191505060405180910390f35b60606000809054906101000a900473ffffffffffffffffffffffffffffffffffffffff1673ffffffffffffffffffffffffffffffffffffffff163373ffffffffffffffffffffffffffffffffffffffff16146108f4576040517f08c379a0000000000000000000000000000000000000000000000000000000008152600401808060200182810382526038815260200180611b226038913960400191505060405180910390fd5b60008686868686604051602001808673ffffffffffffffffffffffffffffffffffffffff1673ffffffffffffffffffffffffffffffffffffffff1681526020018581526020018060200180602001848152602001838103835286818151815260200191508051906020019080838360005b83811015610980578082015181840152602081019050610965565b50505050905090810190601f1680156109ad5780820380516001836020036101000a031916815260200191505b50838103825285818151815260200191508051906020019080838360005b838110156109e65780820151818401526020810190506109cb565b50505050905090810190601f168015610a135780820380516001836020036101000a031916815260200191505b509750505050505050506040516020818303038152906040528051906020012090506003600082815260200190815260200160002060009054906101000a900460ff16610aab576040517f08c379a000000000000000000000000000000000000000000000000000000000815260040180806020018281038252603d815260200180611c75603d913960400191505060405180910390fd5b82610ab4611a91565b1015610b0b576040517f08c379a0000000000000000000000000000000000000000000000000000000008152600401808060200182810382526045815260200180611bc46045913960600191505060405180910390fd5b610b216212750084611a9990919063ffffffff16565b610b29611a91565b1115610b80576040517f08c379a0000000000000000000000000000000000000000000000000000000008152600401808060200182810382526033815260200180611b916033913960400191505060405180910390fd5b60006003600083815260200190815260200160002060006101000a81548160ff0219169083151502179055506060600086511415610bc057849050610c7b565b85805190602001208560405160200180837bffffffffffffffffffffffffffffffffffffffffffffffffffffffff19167bffffffffffffffffffffffffffffffffffffffffffffffffffffffff1916815260040182805190602001908083835b60208310610c435780518252602082019150602081019050602083039250610c20565b6001836020036101000a0380198251168184511680821785525050505050509050019250505060405160208183030381529060405290505b600060608973ffffffffffffffffffffffffffffffffffffffff1689846040518082805190602001908083835b60208310610ccb5780518252602082019150602081019050602083039250610ca8565b6001836020036101000a03801982511681845116808217855250505050505090500191505060006040518083038185875af1925050503d8060008114610d2d576040519150601f19603f3d011682016040523d82523d6000602084013e610d32565b606091505b509150915081610d8d576040517f08c379a000000000000000000000000000000000000000000000000000000000815260040180806020018281038252603d815260200180611d58603d913960400191505060405180910390fd5b8973ffffffffffffffffffffffffffffffffffffffff16847fa560e3198060a2f10670c1ec5b403077ea6ae93ca8de1c32b451dc1a943cd6e78b8b8b8b604051808581526020018060200180602001848152602001838103835286818151815260200191508051906020019080838360005b83811015610e1a578082015181840152602081019050610dff565b50505050905090810190601f168015610e475780820380516001836020036101000a031916815260200191505b50838103825285818151815260200191508051906020019080838360005b83811015610e80578082015181840152602081019050610e65565b50505050905090810190601f168015610ead5780820380516001836020036101000a031916815260200191505b50965050505050505060405180910390a38094505050505095945050505050565b600160009054906101000a900473ffffffffffffffffffffffffffffffffffffffff1673ffffffffffffffffffffffffffffffffffffffff163373ffffffffffffffffffffffffffffffffffffffff1614610f74576040517f08c379a0000000000000000000000000000000000000000000000000000000008152600401808060200182810382526038815260200180611cb26038913960400191505060405180910390fd5b336000806101000a81548173ffffffffffffffffffffffffffffffffffffffff021916908373ffffffffffffffffffffffffffffffffffffffff1602179055506000600160006101000a81548173ffffffffffffffffffffffffffffffffffffffff021916908373ffffffffffffffffffffffffffffffffffffffff1602179055506000809054906101000a900473ffffffffffffffffffffffffffffffffffffffff1673ffffffffffffffffffffffffffffffffffffffff167f71614071b88dee5e0b2ae578a9dd7b2ebbe9ae832ba419dc0242cd065a290b6c60405160405180910390a2565b600160009054906101000a900473ffffffffffffffffffffffffffffffffffffffff1681565b60008060009054906101000a900473ffffffffffffffffffffffffffffffffffffffff1673ffffffffffffffffffffffffffffffffffffffff163373ffffffffffffffffffffffffffffffffffffffff1614611129576040517f08c379a0000000000000000000000000000000000000000000000000000000008152600401808060200182810382526036815260200180611d226036913960400191505060405180910390fd5b611145600254611137611a91565b611a9990919063ffffffff16565b82101561119d576040517f08c379a0000000000000000000000000000000000000000000000000000000008152600401808060200182810382526049815260200180611d956049913960600191505060405180910390fd5b60008686868686604051602001808673ffffffffffffffffffffffffffffffffffffffff1673ffffffffffffffffffffffffffffffffffffffff1681526020018581526020018060200180602001848152602001838103835286818151815260200191508051906020019080838360005b8381101561122957808201518184015260208101905061120e565b50505050905090810190601f1680156112565780820380516001836020036101000a031916815260200191505b50838103825285818151815260200191508051906020019080838360005b8381101561128f578082015181840152602081019050611274565b50505050905090810190601f1680156112bc5780820380516001836020036101000a031916815260200191505b5097505050505050505060405160208183030381529060405280519060200120905060016003600083815260200190815260200160002060006101000a81548160ff0219169083151502179055508673ffffffffffffffffffffffffffffffffffffffff16817f76e2796dc3a81d57b0e8504b647febcbeeb5f4af818e164f11eef8131a6a763f88888888604051808581526020018060200180602001848152602001838103835286818151815260200191508051906020019080838360005b8381101561139757808201518184015260208101905061137c565b50505050905090810190601f1680156113c45780820380516001836020036101000a031916815260200191505b50838103825285818151815260200191508051906020019080838360005b838110156113fd5780820151818401526020810190506113e2565b50505050905090810190601f16801561142a5780820380516001836020036101000a031916815260200191505b50965050505050505060405180910390a38091505095945050505050565b3073ffffffffffffffffffffffffffffffffffffffff163373ffffffffffffffffffffffffffffffffffffffff16146114cc576040517f08c379a0000000000000000000000000000000000000000000000000000000008152600401808060200182810382526038815260200180611cea6038913960400191505060405180910390fd5b80600160006101000a81548173ffffffffffffffffffffffffffffffffffffffff021916908373ffffffffffffffffffffffffffffffffffffffff160217905550600160009054906101000a900473ffffffffffffffffffffffffffffffffffffffff1673ffffffffffffffffffffffffffffffffffffffff167f69d78e38a01985fbb1462961809b4b2d65531bc93b2b94037f3334b82ca4a75660405160405180910390a250565b6000809054906101000a900473ffffffffffffffffffffffffffffffffffffffff1673ffffffffffffffffffffffffffffffffffffffff163373ffffffffffffffffffffffffffffffffffffffff161461161a576040517f08c379a0000000000000000000000000000000000000000000000000000000008152600401808060200182810382526037815260200180611b5a6037913960400191505060405180910390fd5b60008585858585604051602001808673ffffffffffffffffffffffffffffffffffffffff1673ffffffffffffffffffffffffffffffffffffffff1681526020018581526020018060200180602001848152602001838103835286818151815260200191508051906020019080838360005b838110156116a657808201518184015260208101905061168b565b50505050905090810190601f1680156116d35780820380516001836020036101000a031916815260200191505b50838103825285818151815260200191508051906020019080838360005b8381101561170c5780820151818401526020810190506116f1565b50505050905090810190601f1680156117395780820380516001836020036101000a031916815260200191505b5097505050505050505060405160208183030381529060405280519060200120905060006003600083815260200190815260200160002060006101000a81548160ff0219169083151502179055508573ffffffffffffffffffffffffffffffffffffffff16817f2fffc091a501fd91bfbff27141450d3acb40fb8e6d8382b243ec7a812a3aaf8787878787604051808581526020018060200180602001848152602001838103835286818151815260200191508051906020019080838360005b838110156118145780820151818401526020810190506117f9565b50505050905090810190601f1680156118415780820380516001836020036101000a031916815260200191505b50838103825285818151815260200191508051906020019080838360005b8381101561187a57808201518184015260208101905061185f565b50505050905090810190601f1680156118a75780820380516001836020036101000a031916815260200191505b50965050505050505060405180910390a3505050505050565b60025481565b62278d0081565b600081565b6212750081565b3073ffffffffffffffffffffffffffffffffffffffff163373ffffffffffffffffffffffffffffffffffffffff161461195d576040517f08c379a0000000000000000000000000000000000000000000000000000000008152600401808060200182810382526031815260200180611dde6031913960400191505060405180910390fd5b60008110156119b7576040517f08c379a0000000000000000000000000000000000000000000000000000000008152600401808060200182810382526034815260200180611c096034913960400191505060405180910390fd5b62278d00811115611a13576040517f08c379a0000000000000000000000000000000000000000000000000000000008152600401808060200182810382526038815260200180611c3d6038913960400191505060405180910390fd5b806002819055506002547f948b1f6a42ee138b7e34058ba85a37f716d55ff25ff05a763f15bed6a04c8d2c60405160405180910390a250565b60036020528060005260406000206000915054906101000a900460ff1681565b6000809054906101000a900473ffffffffffffffffffffffffffffffffffffffff1681565b600042905090565b600080828401905083811015611b17576040517f08c379a000000000000000000000000000000000000000000000000000000000815260040180806020018281038252601b8152602001807f536166654d6174683a206164646974696f6e206f766572666c6f77000000000081525060200191505060405180910390fd5b809150509291505056fe54696d656c6f636b3a3a657865637574655472616e73616374696f6e3a2043616c6c206d75737420636f6d652066726f6d2061646d696e2e54696d656c6f636b3a3a63616e63656c5472616e73616374696f6e3a2043616c6c206d75737420636f6d652066726f6d2061646d696e2e54696d656c6f636b3a3a657865637574655472616e73616374696f6e3a205472616e73616374696f6e206973207374616c652e54696d656c6f636b3a3a657865637574655472616e73616374696f6e3a205472616e73616374696f6e206861736e2774207375727061737365642074696d65206c6f636b2e54696d656c6f636b3a3a73657444656c61793a2044656c6179206d75737420657863656564206d696e696d756d2064656c61792e54696d656c6f636b3a3a73657444656c61793a2044656c6179206d757374206e6f7420657863656564206d6178696d756d2064656c61792e54696d656c6f636b3a3a657865637574655472616e73616374696f6e3a205472616e73616374696f6e206861736e2774206265656e207175657565642e54696d656c6f636b3a3a61636365707441646d696e3a2043616c6c206d75737420636f6d652066726f6d2070656e64696e6741646d696e2e54696d656c6f636b3a3a73657450656e64696e6741646d696e3a2043616c6c206d75737420636f6d652066726f6d2054696d656c6f636b2e54696d656c6f636b3a3a71756575655472616e73616374696f6e3a2043616c6c206d75737420636f6d652066726f6d2061646d696e2e54696d656c6f636b3a3a657865637574655472616e73616374696f6e3a205472616e73616374696f6e20657865637574696f6e2072657665727465642e54696d656c6f636b3a3a71756575655472616e73616374696f6e3a20457374696d6174656420657865637574696f6e20626c6f636b206d75737420736174697366792064656c61792e54696d656c6f636b3a3a73657444656c61793a2043616c6c206d75737420636f6d652066726f6d2054696d656c6f636b2ea265627a7a723158207e0296c5ed65ce4b8d4c84a979643643eb1c83f481a3ac749c1bf78c0751805264736f6c6343000510003254696d656c6f636b3a3a636f6e7374727563746f723a2044656c6179206d75737420657863656564206d696e696d756d2064656c61792e54696d656c6f636b3a3a73657444656c61793a2044656c6179206d757374206e6f7420657863656564206d6178696d756d2064656c61792e608060405234801561001057600080fd5b5061676880620000216000396000f3fe60806040526004361061023b5760003560e01c80637b3c71d31161012e578063da95691a116100ab578063e9c714f21161006f578063e9c714f214610871578063f851a44014610888578063fc0c546a146108b3578063fc4eee42146108de578063fe0d94c1146109095761023b565b8063da95691a14610778578063ddf0b009146107b5578063deaaa7cc146107de578063e23a9a5214610809578063e48083fe146108465761023b565b8063b58131b0116100f2578063b58131b0146106a5578063b71d1a0c146106d0578063d13f90b4146106f9578063d33219b414610722578063da35c6641461074d5761023b565b80637b3c71d3146105e45780637bdbe4d01461060d578063878f148214610638578063a64e024a1461064f578063b11262631461067a5761023b565b806325fd935a116101bc5780633e4f49e6116101805780633e4f49e6146104ff57806340e58ee51461053c57806356781388146105655780635c60da1b1461058e578063791f5d23146105b95761023b565b806325fd935a146104155780632678224714610440578063328dd9821461046b5780633932abb1146104ab5780633bccf4fd146104d65761023b565b806317ba1b8b1161020357806317ba1b8b146103425780631dfb1b5a1461036b57806320606b7014610394578063215809ca146103bf57806324bc1a64146103ea5761023b565b8063013cf08b1461024057806302a251a31461028657806306fdde03146102b15780630ea2d98c146102dc57806317977c6114610305575b600080fd5b34801561024c57600080fd5b5061026760048036036102629190810190614021565b610925565b60405161027d9a999897969594939291906160a2565b60405180910390f35b34801561029257600080fd5b5061029b6109b3565b6040516102a89190615fd7565b60405180910390f35b3480156102bd57600080fd5b506102c66109b9565b6040516102d39190615b1a565b60405180910390f35b3480156102e857600080fd5b5061030360048036036102fe9190810190614021565b6109f2565b005b34801561031157600080fd5b5061032c60048036036103279190810190613dff565b610b22565b6040516103399190615fd7565b60405180910390f35b34801561034e57600080fd5b5061036960048036036103649190810190614021565b610b3a565b005b34801561037757600080fd5b50610392600480360361038d9190810190614021565b610c79565b005b3480156103a057600080fd5b506103a9610da7565b6040516103b691906159ed565b60405180910390f35b3480156103cb57600080fd5b506103d4610dbe565b6040516103e19190615fd7565b60405180910390f35b3480156103f657600080fd5b506103ff610dc4565b60405161040c9190615fd7565b60405180910390f35b34801561042157600080fd5b5061042a610dd2565b6040516104379190615fd7565b60405180910390f35b34801561044c57600080fd5b50610455610de0565b6040516104629190615834565b60405180910390f35b34801561047757600080fd5b50610492600480360361048d9190810190614021565b610e06565b6040516104a2949392919061598c565b60405180910390f35b3480156104b757600080fd5b506104c06110e3565b6040516104cd9190615fd7565b60405180910390f35b3480156104e257600080fd5b506104fd60048036036104f89190810190614157565b6110e9565b005b34801561050b57600080fd5b5061052660048036036105219190810190614021565b611309565b6040516105339190615aff565b60405180910390f35b34801561054857600080fd5b50610563600480360361055e9190810190614021565b6114f2565b005b34801561057157600080fd5b5061058c600480360361058791908101906140af565b611886565b005b34801561059a57600080fd5b506105a36118e6565b6040516105b09190615834565b60405180910390f35b3480156105c557600080fd5b506105ce61190c565b6040516105db9190615fd7565b60405180910390f35b3480156105f057600080fd5b5061060b600480360361060691908101906140eb565b61191a565b005b34801561061957600080fd5b50610622611980565b60405161062f9190615fd7565b60405180910390f35b34801561064457600080fd5b5061064d611985565b005b34801561065b57600080fd5b50610664611aee565b6040516106719190615fd7565b60405180910390f35b34801561068657600080fd5b5061068f611af5565b60405161069c9190615fd7565b60405180910390f35b3480156106b157600080fd5b506106ba611afb565b6040516106c79190615fd7565b60405180910390f35b3480156106dc57600080fd5b506106f760048036036106f29190810190613dff565b611b01565b005b34801561070557600080fd5b50610720600480360361071b9190810190613e28565b611c35565b005b34801561072e57600080fd5b50610737611fdc565b6040516107449190615ac9565b60405180910390f35b34801561075957600080fd5b50610762612002565b60405161076f9190615fd7565b60405180910390f35b34801561078457600080fd5b5061079f600480360361079a9190810190613e9f565b612008565b6040516107ac9190615fd7565b60405180910390f35b3480156107c157600080fd5b506107dc60048036036107d79190810190614021565b612617565b005b3480156107ea57600080fd5b506107f3612967565b60405161080091906159ed565b60405180910390f35b34801561081557600080fd5b50610830600480360361082b9190810190614073565b61297e565b60405161083d9190615fbc565b60405180910390f35b34801561085257600080fd5b5061085b612a62565b6040516108689190615fd7565b60405180910390f35b34801561087d57600080fd5b50610886612a67565b005b34801561089457600080fd5b5061089d612cda565b6040516108aa9190615834565b60405180910390f35b3480156108bf57600080fd5b506108c8612cff565b6040516108d59190615ae4565b60405180910390f35b3480156108ea57600080fd5b506108f3612d25565b6040516109009190615fd7565b60405180910390f35b610923600480360361091e9190810190614021565b612d2b565b005b600a6020528060005260406000206000915090508060000154908060010160009054906101000a900473ffffffffffffffffffffffffffffffffffffffff169080600201549080600701549080600801549080600901549080600a01549080600b01549080600c0160009054906101000a900460ff169080600c0160019054906101000a900460ff1690508a565b60045481565b6040518060400160405280600e81526020017f476f7665726e6f7220427261766f00000000000000000000000000000000000081525081565b6000809054906101000a900473ffffffffffffffffffffffffffffffffffffffff1673ffffffffffffffffffffffffffffffffffffffff163373ffffffffffffffffffffffffffffffffffffffff1614610a81576040517f08c379a0000000000000000000000000000000000000000000000000000000008152600401610a7890615bbc565b60405180910390fd5b6116808110158015610a96575062013b008111155b610ad5576040517f08c379a0000000000000000000000000000000000000000000000000000000008152600401610acc90615c3c565b60405180910390fd5b60006004549050816004819055507f7e3f7f0708a84de9203036abaa450dccc85ad5ff52f78c170f3edb55cf5e882881600454604051610b1692919061613e565b60405180910390a15050565b600b6020528060005260406000206000915090505481565b6000809054906101000a900473ffffffffffffffffffffffffffffffffffffffff1673ffffffffffffffffffffffffffffffffffffffff163373ffffffffffffffffffffffffffffffffffffffff1614610bc9576040517f08c379a0000000000000000000000000000000000000000000000000000000008152600401610bc090615f3c565b60405180910390fd5b690a968163f0a57b4000008110158015610bed575069152d02c7e14af68000008111155b610c2c576040517f08c379a0000000000000000000000000000000000000000000000000000000008152600401610c2390615d9c565b60405180910390fd5b60006005549050816005819055507fccb45da8d5717e6c4544694297c4ba5cf151d455c9bb0ed4fc7a38411bc0546181600554604051610c6d92919061613e565b60405180910390a15050565b6000809054906101000a900473ffffffffffffffffffffffffffffffffffffffff1673ffffffffffffffffffffffffffffffffffffffff163373ffffffffffffffffffffffffffffffffffffffff1614610d08576040517f08c379a0000000000000000000000000000000000000000000000000000000008152600401610cff90615bfc565b60405180910390fd5b60018110158015610d1b5750619d808111155b610d5a576040517f08c379a0000000000000000000000000000000000000000000000000000000008152600401610d5190615cbc565b60405180910390fd5b60006003549050816003819055507fc565b045403dc03c2eea82b81a0465edad9e2e7fc4d97e11421c209da93d7a9381600354604051610d9b92919061613e565b60405180910390a15050565b604051610db39061581f565b604051809103902081565b61168081565b6954b40b1f852bda00000081565b69152d02c7e14af680000081565b600160009054906101000a900473ffffffffffffffffffffffffffffffffffffffff1681565b6060806060806000600a600087815260200190815260200160002090508060030181600401826005018360060183805480602002602001604051908101604052809291908181526020018280548015610eb457602002820191906000526020600020905b8160009054906101000a900473ffffffffffffffffffffffffffffffffffffffff1673ffffffffffffffffffffffffffffffffffffffff1681526020019060010190808311610e6a575b5050505050935082805480602002602001604051908101604052809291908181526020018280548015610f0657602002820191906000526020600020905b815481526020019060010190808311610ef2575b5050505050925081805480602002602001604051908101604052809291908181526020016000905b82821015610fea578382906000526020600020018054600181600116156101000203166002900480601f016020809104026020016040519081016040528092919081815260200182805460018160011615610100020316600290048015610fd65780601f10610fab57610100808354040283529160200191610fd6565b820191906000526020600020905b815481529060010190602001808311610fb957829003601f168201915b505050505081526020019060010190610f2e565b50505050915080805480602002602001604051908101604052809291908181526020016000905b828210156110cd578382906000526020600020018054600181600116156101000203166002900480601f0160208091040260200160405190810160405280929190818152602001828054600181600116156101000203166002900480156110b95780601f1061108e576101008083540402835291602001916110b9565b820191906000526020600020905b81548152906001019060200180831161109c57829003601f168201915b505050505081526020019060010190611011565b5050505090509450945094509450509193509193565b60035481565b60006040516110f79061581f565b60405180910390206040518060400160405280600e81526020017f476f7665726e6f7220427261766f00000000000000000000000000000000000081525080519060200120611144612f79565b306040516020016111589493929190615a08565b604051602081830303815290604052805190602001209050600060405161117e906157d3565b6040518091039020878760405160200161119a93929190615a4d565b604051602081830303815290604052805190602001209050600082826040516020016111c79291906157e8565b6040516020818303038152906040528051906020012090506000600182888888604051600081526020016040526040516112049493929190615a84565b6020604051602081039080840390855afa158015611226573d6000803e3d6000fd5b505050602060405103519050600073ffffffffffffffffffffffffffffffffffffffff168173ffffffffffffffffffffffffffffffffffffffff1614156112a2576040517f08c379a000000000000000000000000000000000000000000000000000000000815260040161129990615d1c565b60405180910390fd5b8073ffffffffffffffffffffffffffffffffffffffff167fb8e138887d0aa13bab447e82de9d5c1777041ecd21ca36ba824ff1e6c07ddda48a8a6112e7858e8e612f86565b6040516112f6939291906161b5565b60405180910390a2505050505050505050565b6000816007541015801561131e575060065482115b61135d576040517f08c379a000000000000000000000000000000000000000000000000000000000815260040161135490615f5c565b60405180910390fd5b6000600a6000848152602001908152602001600020905080600c0160009054906101000a900460ff16156113955760029150506114ed565b806007015443116113aa5760009150506114ed565b806008015443116113bf5760019150506114ed565b80600a015481600901541115806113e357506954b40b1f852bda0000008160090154105b156113f25760039150506114ed565b6000816002015414156114095760049150506114ed565b80600c0160019054906101000a900460ff161561142a5760079150506114ed565b6114d78160020154600860009054906101000a900473ffffffffffffffffffffffffffffffffffffffff1673ffffffffffffffffffffffffffffffffffffffff1663c1a287e26040518163ffffffff1660e01b815260040160206040518083038186803b15801561149a57600080fd5b505afa1580156114ae573d6000803e3d6000fd5b505050506040513d601f19601f820116820180604052506114d2919081019061404a565b6132b0565b42106114e75760069150506114ed565b60059150505b919050565b6007808111156114fe57fe5b61150782611309565b600781111561151257fe5b1415611553576040517f08c379a000000000000000000000000000000000000000000000000000000000815260040161154a90615f1c565b60405180910390fd5b6000600a600083815260200190815260200160002090508060010160009054906101000a900473ffffffffffffffffffffffffffffffffffffffff1673ffffffffffffffffffffffffffffffffffffffff163373ffffffffffffffffffffffffffffffffffffffff1614806116b15750600554600960009054906101000a900473ffffffffffffffffffffffffffffffffffffffff1673ffffffffffffffffffffffffffffffffffffffff1663782d6fe18360010160009054906101000a900473ffffffffffffffffffffffffffffffffffffffff16611634436001613305565b6040518363ffffffff1660e01b81526004016116519291906158a1565b60206040518083038186803b15801561166957600080fd5b505afa15801561167d573d6000803e3d6000fd5b505050506040513d601f19601f820116820180604052506116a191908101906141ce565b6bffffffffffffffffffffffff16105b6116f0576040517f08c379a00000000000000000000000000000000000000000000000000000000081526004016116e790615e5c565b60405180910390fd5b600181600c0160006101000a81548160ff02191690831515021790555060008090505b816003018054905081101561184a57600860009054906101000a900473ffffffffffffffffffffffffffffffffffffffff1673ffffffffffffffffffffffffffffffffffffffff1663591fcdfe83600301838154811061176f57fe5b9060005260206000200160009054906101000a900473ffffffffffffffffffffffffffffffffffffffff168460040184815481106117a957fe5b90600052602060002001548560050185815481106117c357fe5b906000526020600020018660060186815481106117dc57fe5b9060005260206000200187600201546040518663ffffffff1660e01b815260040161180b95949392919061592b565b600060405180830381600087803b15801561182557600080fd5b505af1158015611839573d6000803e3d6000fd5b505050508080600101915050611713565b507f789cf55be980739dad1d0699b93b58e806b51c9d96619bfa8fe0a28abaa7b30c8260405161187a9190615fd7565b60405180910390a15050565b3373ffffffffffffffffffffffffffffffffffffffff167fb8e138887d0aa13bab447e82de9d5c1777041ecd21ca36ba824ff1e6c07ddda483836118cb338787612f86565b6040516118da939291906161b5565b60405180910390a25050565b600260009054906101000a900473ffffffffffffffffffffffffffffffffffffffff1681565b690a968163f0a57b40000081565b3373ffffffffffffffffffffffffffffffffffffffff167fb8e138887d0aa13bab447e82de9d5c1777041ecd21ca36ba824ff1e6c07ddda4858561195f338989612f86565b8686604051611972959493929190616167565b60405180910390a250505050565b600a81565b6000809054906101000a900473ffffffffffffffffffffffffffffffffffffffff1673ffffffffffffffffffffffffffffffffffffffff163373ffffffffffffffffffffffffffffffffffffffff1614611a14576040517f08c379a0000000000000000000000000000000000000000000000000000000008152600401611a0b90615edc565b60405180910390fd5b600060065414611a59576040517f08c379a0000000000000000000000000000000000000000000000000000000008152600401611a5090615dfc565b60405180910390fd5b6001600781905550600754600681905550600860009054906101000a900473ffffffffffffffffffffffffffffffffffffffff1673ffffffffffffffffffffffffffffffffffffffff16630e18b6816040518163ffffffff1660e01b8152600401600060405180830381600087803b158015611ad457600080fd5b505af1158015611ae8573d6000803e3d6000fd5b50505050565b62013b0081565b619d8081565b60055481565b6000809054906101000a900473ffffffffffffffffffffffffffffffffffffffff1673ffffffffffffffffffffffffffffffffffffffff163373ffffffffffffffffffffffffffffffffffffffff1614611b90576040517f08c379a0000000000000000000000000000000000000000000000000000000008152600401611b8790615b7c565b60405180910390fd5b6000600160009054906101000a900473ffffffffffffffffffffffffffffffffffffffff16905081600160006101000a81548173ffffffffffffffffffffffffffffffffffffffff021916908373ffffffffffffffffffffffffffffffffffffffff1602179055507fca4f2f25d0898edd99413412fb94012f9e54ec8142f9b093e7720646a95b16a98183604051611c29929190615878565b60405180910390a15050565b600073ffffffffffffffffffffffffffffffffffffffff16600860009054906101000a900473ffffffffffffffffffffffffffffffffffffffff1673ffffffffffffffffffffffffffffffffffffffff1614611cc6576040517f08c379a0000000000000000000000000000000000000000000000000000000008152600401611cbd90615b5c565b60405180910390fd5b6000809054906101000a900473ffffffffffffffffffffffffffffffffffffffff1673ffffffffffffffffffffffffffffffffffffffff163373ffffffffffffffffffffffffffffffffffffffff1614611d55576040517f08c379a0000000000000000000000000000000000000000000000000000000008152600401611d4c90615d7c565b60405180910390fd5b600073ffffffffffffffffffffffffffffffffffffffff168573ffffffffffffffffffffffffffffffffffffffff161415611dc5576040517f08c379a0000000000000000000000000000000000000000000000000000000008152600401611dbc90615bdc565b60405180910390fd5b600073ffffffffffffffffffffffffffffffffffffffff168473ffffffffffffffffffffffffffffffffffffffff161415611e35576040517f08c379a0000000000000000000000000000000000000000000000000000000008152600401611e2c90615c5c565b60405180910390fd5b6116808310158015611e4a575062013b008311155b611e89576040517f08c379a0000000000000000000000000000000000000000000000000000000008152600401611e8090615f7c565b60405180910390fd5b60018210158015611e9c5750619d808211155b611edb576040517f08c379a0000000000000000000000000000000000000000000000000000000008152600401611ed290615d3c565b60405180910390fd5b690a968163f0a57b4000008110158015611eff575069152d02c7e14af68000008111155b611f3e576040517f08c379a0000000000000000000000000000000000000000000000000000000008152600401611f3590615cdc565b60405180910390fd5b84600860006101000a81548173ffffffffffffffffffffffffffffffffffffffff021916908373ffffffffffffffffffffffffffffffffffffffff16021790555083600960006101000a81548173ffffffffffffffffffffffffffffffffffffffff021916908373ffffffffffffffffffffffffffffffffffffffff1602179055508260048190555081600381905550806005819055505050505050565b600860009054906101000a900473ffffffffffffffffffffffffffffffffffffffff1681565b60075481565b600080600654141561204f576040517f08c379a000000000000000000000000000000000000000000000000000000000815260040161204690615c1c565b60405180910390fd5b600554600960009054906101000a900473ffffffffffffffffffffffffffffffffffffffff1673ffffffffffffffffffffffffffffffffffffffff1663782d6fe13361209c436001613305565b6040518363ffffffff1660e01b81526004016120b992919061584f565b60206040518083038186803b1580156120d157600080fd5b505afa1580156120e5573d6000803e3d6000fd5b505050506040513d601f19601f8201168201806040525061210991908101906141ce565b6bffffffffffffffffffffffff1611612157576040517f08c379a000000000000000000000000000000000000000000000000000000000815260040161214e90615efc565b60405180910390fd5b84518651148015612169575083518651145b8015612176575082518651145b6121b5576040517f08c379a00000000000000000000000000000000000000000000000000000000081526004016121ac90615d5c565b60405180910390fd5b6000865114156121fa576040517f08c379a00000000000000000000000000000000000000000000000000000000081526004016121f190615e1c565b60405180910390fd5b600a8651111561223f576040517f08c379a000000000000000000000000000000000000000000000000000000000815260040161223690615e7c565b60405180910390fd5b6000600b60003373ffffffffffffffffffffffffffffffffffffffff1673ffffffffffffffffffffffffffffffffffffffff1681526020019081526020016000205490506000811461234e57600061229682611309565b9050600160078111156122a557fe5b8160078111156122b157fe5b14156122f2576040517f08c379a00000000000000000000000000000000000000000000000000000000081526004016122e990615ebc565b60405180910390fd5b600060078111156122ff57fe5b81600781111561230b57fe5b141561234c576040517f08c379a000000000000000000000000000000000000000000000000000000000815260040161234390615e9c565b60405180910390fd5b505b600061235c436003546132b0565b9050600061236c826004546132b0565b905060076000815480929190600101919050555061238861352b565b604051806101c0016040528060075481526020013373ffffffffffffffffffffffffffffffffffffffff168152602001600081526020018b81526020018a815260200189815260200188815260200184815260200183815260200160008152602001600081526020016000815260200160001515815260200160001515815250905080600a6000836000015181526020019081526020016000206000820151816000015560208201518160010160006101000a81548173ffffffffffffffffffffffffffffffffffffffff021916908373ffffffffffffffffffffffffffffffffffffffff1602179055506040820151816002015560608201518160030190805190602001906124999291906135b4565b5060808201518160040190805190602001906124b692919061363e565b5060a08201518160050190805190602001906124d392919061368b565b5060c08201518160060190805190602001906124f09291906136eb565b5060e082015181600701556101008201518160080155610120820151816009015561014082015181600a015561016082015181600b015561018082015181600c0160006101000a81548160ff0219169083151502179055506101a082015181600c0160016101000a81548160ff0219169083151502179055509050508060000151600b6000836020015173ffffffffffffffffffffffffffffffffffffffff1673ffffffffffffffffffffffffffffffffffffffff168152602001908152602001600020819055507f7d84a6263ae0d98d3329bd7b46bb4e8d6f98cd35a7adb45c274c8b7fd5ebd5e08160000151338c8c8c8c89898e6040516125fb99989796959493929190615ff2565b60405180910390a1806000015194505050505095945050505050565b6004600781111561262457fe5b61262d82611309565b600781111561263857fe5b14612678576040517f08c379a000000000000000000000000000000000000000000000000000000000815260040161266f90615dbc565b60405180910390fd5b6000600a60008381526020019081526020016000209050600061273a42600860009054906101000a900473ffffffffffffffffffffffffffffffffffffffff1673ffffffffffffffffffffffffffffffffffffffff16636a42b8f86040518163ffffffff1660e01b815260040160206040518083038186803b1580156126fd57600080fd5b505afa158015612711573d6000803e3d6000fd5b505050506040513d601f19601f82011682018060405250612735919081019061404a565b6132b0565b905060008090505b826003018054905081101561291f5761291283600301828154811061276357fe5b9060005260206000200160009054906101000a900473ffffffffffffffffffffffffffffffffffffffff1684600401838154811061279d57fe5b90600052602060002001548560050184815481106127b757fe5b906000526020600020018054600181600116156101000203166002900480601f0160208091040260200160405190810160405280929190818152602001828054600181600116156101000203166002900480156128555780601f1061282a57610100808354040283529160200191612855565b820191906000526020600020905b81548152906001019060200180831161283857829003601f168201915b505050505086600601858154811061286957fe5b906000526020600020018054600181600116156101000203166002900480601f0160208091040260200160405190810160405280929190818152602001828054600181600116156101000203166002900480156129075780601f106128dc57610100808354040283529160200191612907565b820191906000526020600020905b8154815290600101906020018083116128ea57829003601f168201915b505050505086613355565b8080600101915050612742565b508082600201819055507f9a2e42fd6722813d69113e7d0079d3d940171428df7373df9c7f7617cfda2892838260405161295a92919061613e565b60405180910390a1505050565b604051612973906157d3565b604051809103902081565b61298661374b565b600a6000848152602001908152602001600020600d0160008373ffffffffffffffffffffffffffffffffffffffff1673ffffffffffffffffffffffffffffffffffffffff1681526020019081526020016000206040518060600160405290816000820160009054906101000a900460ff161515151581526020016000820160019054906101000a900460ff1660ff1660ff1681526020016000820160029054906101000a90046bffffffffffffffffffffffff166bffffffffffffffffffffffff166bffffffffffffffffffffffff1681525050905092915050565b600181565b600160009054906101000a900473ffffffffffffffffffffffffffffffffffffffff1673ffffffffffffffffffffffffffffffffffffffff163373ffffffffffffffffffffffffffffffffffffffff16148015612af15750600073ffffffffffffffffffffffffffffffffffffffff163373ffffffffffffffffffffffffffffffffffffffff1614155b612b30576040517f08c379a0000000000000000000000000000000000000000000000000000000008152600401612b2790615e3c565b60405180910390fd5b60008060009054906101000a900473ffffffffffffffffffffffffffffffffffffffff1690506000600160009054906101000a900473ffffffffffffffffffffffffffffffffffffffff169050600160009054906101000a900473ffffffffffffffffffffffffffffffffffffffff166000806101000a81548173ffffffffffffffffffffffffffffffffffffffff021916908373ffffffffffffffffffffffffffffffffffffffff1602179055506000600160006101000a81548173ffffffffffffffffffffffffffffffffffffffff021916908373ffffffffffffffffffffffffffffffffffffffff1602179055507ff9ffabca9c8276e99321725bcb43fb076a6c66a54b7f21c4e8146d8519b417dc826000809054906101000a900473ffffffffffffffffffffffffffffffffffffffff16604051612c73929190615878565b60405180910390a17fca4f2f25d0898edd99413412fb94012f9e54ec8142f9b093e7720646a95b16a981600160009054906101000a900473ffffffffffffffffffffffffffffffffffffffff16604051612cce929190615878565b60405180910390a15050565b6000809054906101000a900473ffffffffffffffffffffffffffffffffffffffff1681565b600960009054906101000a900473ffffffffffffffffffffffffffffffffffffffff1681565b60065481565b60056007811115612d3857fe5b612d4182611309565b6007811115612d4c57fe5b14612d8c576040517f08c379a0000000000000000000000000000000000000000000000000000000008152600401612d8390615cfc565b60405180910390fd5b6000600a60008381526020019081526020016000209050600181600c0160016101000a81548160ff02191690831515021790555060008090505b8160030180549050811015612f3d57600860009054906101000a900473ffffffffffffffffffffffffffffffffffffffff1673ffffffffffffffffffffffffffffffffffffffff16630825f38f836004018381548110612e2257fe5b9060005260206000200154846003018481548110612e3c57fe5b9060005260206000200160009054906101000a900473ffffffffffffffffffffffffffffffffffffffff16856004018581548110612e7657fe5b9060005260206000200154866005018681548110612e9057fe5b90600052602060002001876006018781548110612ea957fe5b9060005260206000200188600201546040518763ffffffff1660e01b8152600401612ed895949392919061592b565b6000604051808303818588803b158015612ef157600080fd5b505af1158015612f05573d6000803e3d6000fd5b50505050506040513d6000823e3d601f19601f82011682018060405250612f2f9190810190613fe0565b508080600101915050612dc6565b507f712ae1383f79ac853f8d882153778e0260ef8f03b504e2866e0593e04d2b291f82604051612f6d9190615fd7565b60405180910390a15050565b6000804690508091505090565b600060016007811115612f9557fe5b612f9e84611309565b6007811115612fa957fe5b14612fe9576040517f08c379a0000000000000000000000000000000000000000000000000000000008152600401612fe090615c7c565b60405180910390fd5b60028260ff161115613030576040517f08c379a000000000000000000000000000000000000000000000000000000000815260040161302790615b3c565b60405180910390fd5b6000600a60008581526020019081526020016000209050600081600d0160008773ffffffffffffffffffffffffffffffffffffffff1673ffffffffffffffffffffffffffffffffffffffff1681526020019081526020016000209050600015158160000160009054906101000a900460ff161515146130e4576040517f08c379a00000000000000000000000000000000000000000000000000000000081526004016130db90615c9c565b60405180910390fd5b6000600960009054906101000a900473ffffffffffffffffffffffffffffffffffffffff1673ffffffffffffffffffffffffffffffffffffffff1663782d6fe18885600701546040518363ffffffff1660e01b81526004016131479291906158a1565b60206040518083038186803b15801561315f57600080fd5b505afa158015613173573d6000803e3d6000fd5b505050506040513d601f19601f8201168201806040525061319791908101906141ce565b905060008560ff1614156131ce576131c183600a0154826bffffffffffffffffffffffff166132b0565b83600a0181905550613236565b60018560ff161415613203576131f68360090154826bffffffffffffffffffffffff166132b0565b8360090181905550613235565b60028560ff1614156132345761322b83600b0154826bffffffffffffffffffffffff166132b0565b83600b01819055505b5b5b60018260000160006101000a81548160ff021916908315150217905550848260000160016101000a81548160ff021916908360ff160217905550808260000160026101000a8154816bffffffffffffffffffffffff02191690836bffffffffffffffffffffffff1602179055508093505050509392505050565b6000808284019050838110156132fb576040517f08c379a00000000000000000000000000000000000000000000000000000000081526004016132f290615ddc565b60405180910390fd5b8091505092915050565b60008282111561334a576040517f08c379a000000000000000000000000000000000000000000000000000000000815260040161334190615f9c565b60405180910390fd5b818303905092915050565b600860009054906101000a900473ffffffffffffffffffffffffffffffffffffffff1673ffffffffffffffffffffffffffffffffffffffff1663f2b0653786868686866040516020016133ac9594939291906158ca565b604051602081830303815290604052805190602001206040518263ffffffff1660e01b81526004016133de91906159ed565b60206040518083038186803b1580156133f657600080fd5b505afa15801561340a573d6000803e3d6000fd5b505050506040513d601f19601f8201168201806040525061342e9190810190613f8e565b1561346e576040517f08c379a000000000000000000000000000000000000000000000000000000000815260040161346590615b9c565b60405180910390fd5b600860009054906101000a900473ffffffffffffffffffffffffffffffffffffffff1673ffffffffffffffffffffffffffffffffffffffff16633a66f90186868686866040518663ffffffff1660e01b81526004016134d19594939291906158ca565b602060405180830381600087803b1580156134eb57600080fd5b505af11580156134ff573d6000803e3d6000fd5b505050506040513d601f19601f820116820180604052506135239190810190613fb7565b505050505050565b604051806101c0016040528060008152602001600073ffffffffffffffffffffffffffffffffffffffff168152602001600081526020016060815260200160608152602001606081526020016060815260200160008152602001600081526020016000815260200160008152602001600081526020016000151581526020016000151581525090565b82805482825590600052602060002090810192821561362d579160200282015b8281111561362c5782518260006101000a81548173ffffffffffffffffffffffffffffffffffffffff021916908373ffffffffffffffffffffffffffffffffffffffff160217905550916020019190600101906135d4565b5b50905061363a919061377f565b5090565b82805482825590600052602060002090810192821561367a579160200282015b8281111561367957825182559160200191906001019061365e565b5b50905061368791906137c2565b5090565b8280548282559060005260206000209081019282156136da579160200282015b828111156136d95782518290805190602001906136c99291906137e7565b50916020019190600101906136ab565b5b5090506136e79190613867565b5090565b82805482825590600052602060002090810192821561373a579160200282015b82811115613739578251829080519060200190613729929190613893565b509160200191906001019061370b565b5b5090506137479190613913565b5090565b6040518060600160405280600015158152602001600060ff16815260200160006bffffffffffffffffffffffff1681525090565b6137bf91905b808211156137bb57600081816101000a81549073ffffffffffffffffffffffffffffffffffffffff021916905550600101613785565b5090565b90565b6137e491905b808211156137e05760008160009055506001016137c8565b5090565b90565b828054600181600116156101000203166002900490600052602060002090601f016020900481019282601f1061382857805160ff1916838001178555613856565b82800160010185558215613856579182015b8281111561385557825182559160200191906001019061383a565b5b50905061386391906137c2565b5090565b61389091905b8082111561388c5760008181613883919061393f565b5060010161386d565b5090565b90565b828054600181600116156101000203166002900490600052602060002090601f016020900481019282601f106138d457805160ff1916838001178555613902565b82800160010185558215613902579182015b828111156139015782518255916020019190600101906138e6565b5b50905061390f91906137c2565b5090565b61393c91905b80821115613938576000818161392f9190613987565b50600101613919565b5090565b90565b50805460018160011615610100020316600290046000825580601f106139655750613984565b601f01602090049060005260206000209081019061398391906137c2565b5b50565b50805460018160011615610100020316600290046000825580601f106139ad57506139cc565b601f0160209004906000526020600020908101906139cb91906137c2565b5b50565b6000813590506139de8161669b565b92915050565b600082601f8301126139f557600080fd5b8135613a08613a038261622c565b6161ff565b91508181835260208401935060208101905083856020840282011115613a2d57600080fd5b60005b83811015613a5d5781613a4388826139cf565b845260208401935060208301925050600181019050613a30565b5050505092915050565b600082601f830112613a7857600080fd5b8135613a8b613a8682616254565b6161ff565b9150818183526020840193506020810190508360005b83811015613ad15781358601613ab78882613c11565b845260208401935060208301925050600181019050613aa1565b5050505092915050565b600082601f830112613aec57600080fd5b8135613aff613afa8261627c565b6161ff565b9150818183526020840193506020810190508360005b83811015613b455781358601613b2b8882613d03565b845260208401935060208301925050600181019050613b15565b5050505092915050565b600082601f830112613b6057600080fd5b8135613b73613b6e826162a4565b6161ff565b91508181835260208401935060208101905083856020840282011115613b9857600080fd5b60005b83811015613bc85781613bae8882613dab565b845260208401935060208301925050600181019050613b9b565b5050505092915050565b600081519050613be1816166b2565b92915050565b600081359050613bf6816166c9565b92915050565b600081519050613c0b816166c9565b92915050565b600082601f830112613c2257600080fd5b8135613c35613c30826162cc565b6161ff565b91508082526020830160208301858383011115613c5157600080fd5b613c5c838284616631565b50505092915050565b600082601f830112613c7657600080fd5b8151613c89613c84826162f8565b6161ff565b91508082526020830160208301858383011115613ca557600080fd5b613cb0838284616640565b50505092915050565b60008083601f840112613ccb57600080fd5b8235905067ffffffffffffffff811115613ce457600080fd5b602083019150836001820283011115613cfc57600080fd5b9250929050565b600082601f830112613d1457600080fd5b8135613d27613d2282616324565b6161ff565b91508082526020830160208301858383011115613d4357600080fd5b613d4e838284616631565b50505092915050565b600082601f830112613d6857600080fd5b8135613d7b613d7682616350565b6161ff565b91508082526020830160208301858383011115613d9757600080fd5b613da2838284616631565b50505092915050565b600081359050613dba816166e0565b92915050565b600081519050613dcf816166e0565b92915050565b600081359050613de4816166f7565b92915050565b600081519050613df98161670e565b92915050565b600060208284031215613e1157600080fd5b6000613e1f848285016139cf565b91505092915050565b600080600080600060a08688031215613e4057600080fd5b6000613e4e888289016139cf565b9550506020613e5f888289016139cf565b9450506040613e7088828901613dab565b9350506060613e8188828901613dab565b9250506080613e9288828901613dab565b9150509295509295909350565b600080600080600060a08688031215613eb757600080fd5b600086013567ffffffffffffffff811115613ed157600080fd5b613edd888289016139e4565b955050602086013567ffffffffffffffff811115613efa57600080fd5b613f0688828901613b4f565b945050604086013567ffffffffffffffff811115613f2357600080fd5b613f2f88828901613adb565b935050606086013567ffffffffffffffff811115613f4c57600080fd5b613f5888828901613a67565b925050608086013567ffffffffffffffff811115613f7557600080fd5b613f8188828901613d57565b9150509295509295909350565b600060208284031215613fa057600080fd5b6000613fae84828501613bd2565b91505092915050565b600060208284031215613fc957600080fd5b6000613fd784828501613bfc565b91505092915050565b600060208284031215613ff257600080fd5b600082015167ffffffffffffffff81111561400c57600080fd5b61401884828501613c65565b91505092915050565b60006020828403121561403357600080fd5b600061404184828501613dab565b91505092915050565b60006020828403121561405c57600080fd5b600061406a84828501613dc0565b91505092915050565b6000806040838503121561408657600080fd5b600061409485828601613dab565b92505060206140a5858286016139cf565b9150509250929050565b600080604083850312156140c257600080fd5b60006140d085828601613dab565b92505060206140e185828601613dd5565b9150509250929050565b6000806000806060858703121561410157600080fd5b600061410f87828801613dab565b945050602061412087828801613dd5565b935050604085013567ffffffffffffffff81111561413d57600080fd5b61414987828801613cb9565b925092505092959194509250565b600080600080600060a0868803121561416f57600080fd5b600061417d88828901613dab565b955050602061418e88828901613dd5565b945050604061419f88828901613dd5565b93505060606141b088828901613be7565b92505060806141c188828901613be7565b9150509295509295909350565b6000602082840312156141e057600080fd5b60006141ee84828501613dea565b91505092915050565b6000614203838361425e565b60208301905092915050565b600061421b838361449f565b905092915050565b600061422f83836145fa565b905092915050565b60006142438383615779565b60208301905092915050565b6142588161658f565b82525050565b61426781616505565b82525050565b61427681616505565b82525050565b6000614287826163e6565b6142918185616472565b935061429c8361637c565b8060005b838110156142cd5781516142b488826141f7565b97506142bf8361643e565b9250506001810190506142a0565b5085935050505092915050565b60006142e5826163f1565b6142ef8185616483565b9350836020820285016143018561638c565b8060005b8581101561433d578484038952815161431e858261420f565b94506143298361644b565b925060208a01995050600181019050614305565b50829750879550505050505092915050565b600061435a826163fc565b6143648185616494565b9350836020820285016143768561639c565b8060005b858110156143b257848403895281516143938582614223565b945061439e83616458565b925060208a0199505060018101905061437a565b50829750879550505050505092915050565b60006143cf82616407565b6143d981856164a5565b93506143e4836163ac565b8060005b838110156144155781516143fc8882614237565b975061440783616465565b9250506001810190506143e8565b5085935050505092915050565b61442b81616517565b82525050565b61443a81616517565b82525050565b61444981616523565b82525050565b61446061445b82616523565b616673565b82525050565b60006144718261641d565b61447b81856164c7565b935061448b818560208601616640565b6144948161667d565b840191505092915050565b60006144aa82616412565b6144b481856164b6565b93506144c4818560208601616640565b6144cd8161667d565b840191505092915050565b6000815460018116600081146144f5576001811461451b5761455f565b607f600283041661450681876164c7565b955060ff19831686526020860193505061455f565b6002820461452981876164c7565b9550614534856163bc565b60005b8281101561455657815481890152600182019150602081019050614537565b80880195505050505b505092915050565b614570816165a1565b82525050565b61457f816165c5565b82525050565b61458e816165e9565b82525050565b60006145a083856164e9565b93506145ad838584616631565b6145b68361667d565b840190509392505050565b60006145cc82616433565b6145d681856164e9565b93506145e6818560208601616640565b6145ef8161667d565b840191505092915050565b600061460582616428565b61460f81856164d8565b935061461f818560208601616640565b6146288161667d565b840191505092915050565b600061463e82616428565b61464881856164e9565b9350614658818560208601616640565b6146618161667d565b840191505092915050565b60008154600181166000811461468957600181146146af576146f3565b607f600283041661469a81876164e9565b955060ff1983168652602086019350506146f3565b600282046146bd81876164e9565b95506146c8856163d1565b60005b828110156146ea578154818901526001820191506020810190506146cb565b80880195505050505b505092915050565b60006147086032836164e9565b91507f476f7665726e6f72427261766f3a3a63617374566f7465496e7465726e616c3a60008301527f20696e76616c696420766f7465207479706500000000000000000000000000006020830152604082019050919050565b600061476e6028836164fa565b91507f42616c6c6f742875696e743235362070726f706f73616c49642c75696e74382060008301527f737570706f7274290000000000000000000000000000000000000000000000006020830152602882019050919050565b60006147d46033836164e9565b91507f476f7665726e6f72427261766f3a3a696e697469616c697a653a2063616e206f60008301527f6e6c7920696e697469616c697a65206f6e6365000000000000000000000000006020830152604082019050919050565b600061483a602a836164e9565b91507f476f7665726e6f72427261766f3a5f73657450656e64696e6741646d696e3a2060008301527f61646d696e206f6e6c79000000000000000000000000000000000000000000006020830152604082019050919050565b60006148a06055836164e9565b91507f476f7665726e6f72427261766f3a3a71756575654f72526576657274496e746560008301527f726e616c3a206964656e746963616c2070726f706f73616c20616374696f6e2060208301527f616c7265616479207175657565642061742065746100000000000000000000006040830152606082019050919050565b600061492c602b836164e9565b91507f476f7665726e6f72427261766f3a3a5f736574566f74696e67506572696f643a60008301527f2061646d696e206f6e6c790000000000000000000000000000000000000000006020830152604082019050919050565b60006149926033836164e9565b91507f476f7665726e6f72427261766f3a3a696e697469616c697a653a20696e76616c60008301527f69642074696d656c6f636b2061646472657373000000000000000000000000006020830152604082019050919050565b60006149f8602a836164e9565b91507f476f7665726e6f72427261766f3a3a5f736574566f74696e6744656c61793a2060008301527f61646d696e206f6e6c79000000000000000000000000000000000000000000006020830152604082019050919050565b6000614a5e6031836164e9565b91507f476f7665726e6f72427261766f3a3a70726f706f73653a20476f7665726e6f7260008301527f20427261766f206e6f74206163746976650000000000000000000000000000006020830152604082019050919050565b6000614ac46002836164fa565b91507f19010000000000000000000000000000000000000000000000000000000000006000830152600282019050919050565b6000614b046036836164e9565b91507f476f7665726e6f72427261766f3a3a5f736574566f74696e67506572696f643a60008301527f20696e76616c696420766f74696e6720706572696f64000000000000000000006020830152604082019050919050565b6000614b6a6030836164e9565b91507f476f7665726e6f72427261766f3a3a696e697469616c697a653a20696e76616c60008301527f696420746f6b656e2061646472657373000000000000000000000000000000006020830152604082019050919050565b6000614bd06031836164e9565b91507f476f7665726e6f72427261766f3a3a63617374566f7465496e7465726e616c3a60008301527f20766f74696e6720697320636c6f7365640000000000000000000000000000006020830152604082019050919050565b6000614c366034836164e9565b91507f476f7665726e6f72427261766f3a3a63617374566f7465496e7465726e616c3a60008301527f20766f74657220616c726561647920766f7465640000000000000000000000006020830152604082019050919050565b6000614c9c6034836164e9565b91507f476f7665726e6f72427261766f3a3a5f736574566f74696e6744656c61793a2060008301527f696e76616c696420766f74696e672064656c61790000000000000000000000006020830152604082019050919050565b6000614d026035836164e9565b91507f476f7665726e6f72427261766f3a3a696e697469616c697a653a20696e76616c60008301527f69642070726f706f73616c207468726573686f6c6400000000000000000000006020830152604082019050919050565b6000614d686045836164e9565b91507f476f7665726e6f72427261766f3a3a657865637574653a2070726f706f73616c60008301527f2063616e206f6e6c79206265206578656375746564206966206974206973207160208301527f75657565640000000000000000000000000000000000000000000000000000006040830152606082019050919050565b6000614df4602f836164e9565b91507f476f7665726e6f72427261766f3a3a63617374566f746542795369673a20696e60008301527f76616c6964207369676e617475726500000000000000000000000000000000006020830152604082019050919050565b6000614e5a602f836164e9565b91507f476f7665726e6f72427261766f3a3a696e697469616c697a653a20696e76616c60008301527f696420766f74696e672064656c617900000000000000000000000000000000006020830152604082019050919050565b6000614ec06044836164e9565b91507f476f7665726e6f72427261766f3a3a70726f706f73653a2070726f706f73616c60008301527f2066756e6374696f6e20696e666f726d6174696f6e206172697479206d69736d60208301527f61746368000000000000000000000000000000000000000000000000000000006040830152606082019050919050565b6000614f4c6025836164e9565b91507f476f7665726e6f72427261766f3a3a696e697469616c697a653a2061646d696e60008301527f206f6e6c790000000000000000000000000000000000000000000000000000006020830152604082019050919050565b6000614fb26040836164e9565b91507f476f7665726e6f72427261766f3a3a5f73657450726f706f73616c546872657360008301527f686f6c643a20696e76616c69642070726f706f73616c207468726573686f6c646020830152604082019050919050565b60006150186044836164e9565b91507f476f7665726e6f72427261766f3a3a71756575653a2070726f706f73616c206360008301527f616e206f6e6c792062652071756575656420696620697420697320737563636560208301527f65646564000000000000000000000000000000000000000000000000000000006040830152606082019050919050565b60006150a46011836164e9565b91507f6164646974696f6e206f766572666c6f770000000000000000000000000000006000830152602082019050919050565b60006150e46043836164fa565b91507f454950373132446f6d61696e28737472696e67206e616d652c75696e7432353660008301527f20636861696e49642c6164647265737320766572696679696e67436f6e74726160208301527f63742900000000000000000000000000000000000000000000000000000000006040830152604382019050919050565b60006151706030836164e9565b91507f476f7665726e6f72427261766f3a3a5f696e6974696174653a2063616e206f6e60008301527f6c7920696e697469617465206f6e6365000000000000000000000000000000006020830152604082019050919050565b60006151d6602c836164e9565b91507f476f7665726e6f72427261766f3a3a70726f706f73653a206d7573742070726f60008301527f7669646520616374696f6e7300000000000000000000000000000000000000006020830152604082019050919050565b600061523c602e836164e9565b91507f476f7665726e6f72427261766f3a5f61636365707441646d696e3a2070656e6460008301527f696e672061646d696e206f6e6c790000000000000000000000000000000000006020830152604082019050919050565b60006152a2602f836164e9565b91507f476f7665726e6f72427261766f3a3a63616e63656c3a2070726f706f7365722060008301527f61626f7665207468726573686f6c6400000000000000000000000000000000006020830152604082019050919050565b60006153086028836164e9565b91507f476f7665726e6f72427261766f3a3a70726f706f73653a20746f6f206d616e7960008301527f20616374696f6e730000000000000000000000000000000000000000000000006020830152604082019050919050565b600061536e6059836164e9565b91507f476f7665726e6f72427261766f3a3a70726f706f73653a206f6e65206c69766560008301527f2070726f706f73616c207065722070726f706f7365722c20666f756e6420616e60208301527f20616c72656164792070656e64696e672070726f706f73616c000000000000006040830152606082019050919050565b60006153fa6058836164e9565b91507f476f7665726e6f72427261766f3a3a70726f706f73653a206f6e65206c69766560008301527f2070726f706f73616c207065722070726f706f7365722c20666f756e6420616e60208301527f20616c7265616479206163746976652070726f706f73616c00000000000000006040830152606082019050919050565b60006154866000836164e9565b9150600082019050919050565b60006154a06024836164e9565b91507f476f7665726e6f72427261766f3a3a5f696e6974696174653a2061646d696e2060008301527f6f6e6c79000000000000000000000000000000000000000000000000000000006020830152604082019050919050565b6000615506603f836164e9565b91507f476f7665726e6f72427261766f3a3a70726f706f73653a2070726f706f73657260008301527f20766f7465732062656c6f772070726f706f73616c207468726573686f6c64006020830152604082019050919050565b600061556c6036836164e9565b91507f476f7665726e6f72427261766f3a3a63616e63656c3a2063616e6e6f7420636160008301527f6e63656c2065786563757465642070726f706f73616c000000000000000000006020830152604082019050919050565b60006155d26030836164e9565b91507f476f7665726e6f72427261766f3a3a5f73657450726f706f73616c546872657360008301527f686f6c643a2061646d696e206f6e6c79000000000000000000000000000000006020830152604082019050919050565b60006156386029836164e9565b91507f476f7665726e6f72427261766f3a3a73746174653a20696e76616c696420707260008301527f6f706f73616c20696400000000000000000000000000000000000000000000006020830152604082019050919050565b600061569e6030836164e9565b91507f476f7665726e6f72427261766f3a3a696e697469616c697a653a20696e76616c60008301527f696420766f74696e6720706572696f64000000000000000000000000000000006020830152604082019050919050565b60006157046015836164e9565b91507f7375627472616374696f6e20756e646572666c6f7700000000000000000000006000830152602082019050919050565b60608201600082015161574d6000850182614422565b5060208201516157606020850182615797565b50604082015161577360408501826157c4565b50505050565b61578281616560565b82525050565b61579181616560565b82525050565b6157a08161656a565b82525050565b6157af8161656a565b82525050565b6157be8161661f565b82525050565b6157cd81616577565b82525050565b60006157de82614761565b9150819050919050565b60006157f382614ab7565b91506157ff828561444f565b60208201915061580f828461444f565b6020820191508190509392505050565b600061582a826150d7565b9150819050919050565b6000602082019050615849600083018461426d565b92915050565b6000604082019050615864600083018561424f565b6158716020830184615788565b9392505050565b600060408201905061588d600083018561426d565b61589a602083018461426d565b9392505050565b60006040820190506158b6600083018561426d565b6158c36020830184615788565b9392505050565b600060a0820190506158df600083018861426d565b6158ec6020830187615788565b81810360408301526158fe81866145c1565b905081810360608301526159128185614466565b90506159216080830184615788565b9695505050505050565b600060a082019050615940600083018861426d565b61594d6020830187615788565b818103604083015261595f818661466c565b9050818103606083015261597381856144d8565b90506159826080830184615788565b9695505050505050565b600060808201905081810360008301526159a6818761427c565b905081810360208301526159ba81866143c4565b905081810360408301526159ce818561434f565b905081810360608301526159e281846142da565b905095945050505050565b6000602082019050615a026000830184614440565b92915050565b6000608082019050615a1d6000830187614440565b615a2a6020830186614440565b615a376040830185615788565b615a44606083018461426d565b95945050505050565b6000606082019050615a626000830186614440565b615a6f6020830185615788565b615a7c60408301846157a6565b949350505050565b6000608082019050615a996000830187614440565b615aa660208301866157a6565b615ab36040830185614440565b615ac06060830184614440565b95945050505050565b6000602082019050615ade6000830184614567565b92915050565b6000602082019050615af96000830184614576565b92915050565b6000602082019050615b146000830184614585565b92915050565b60006020820190508181036000830152615b348184614633565b905092915050565b60006020820190508181036000830152615b55816146fb565b9050919050565b60006020820190508181036000830152615b75816147c7565b9050919050565b60006020820190508181036000830152615b958161482d565b9050919050565b60006020820190508181036000830152615bb581614893565b9050919050565b60006020820190508181036000830152615bd58161491f565b9050919050565b60006020820190508181036000830152615bf581614985565b9050919050565b60006020820190508181036000830152615c15816149eb565b9050919050565b60006020820190508181036000830152615c3581614a51565b9050919050565b60006020820190508181036000830152615c5581614af7565b9050919050565b60006020820190508181036000830152615c7581614b5d565b9050919050565b60006020820190508181036000830152615c9581614bc3565b9050919050565b60006020820190508181036000830152615cb581614c29565b9050919050565b60006020820190508181036000830152615cd581614c8f565b9050919050565b60006020820190508181036000830152615cf581614cf5565b9050919050565b60006020820190508181036000830152615d1581614d5b565b9050919050565b60006020820190508181036000830152615d3581614de7565b9050919050565b60006020820190508181036000830152615d5581614e4d565b9050919050565b60006020820190508181036000830152615d7581614eb3565b9050919050565b60006020820190508181036000830152615d9581614f3f565b9050919050565b60006020820190508181036000830152615db581614fa5565b9050919050565b60006020820190508181036000830152615dd58161500b565b9050919050565b60006020820190508181036000830152615df581615097565b9050919050565b60006020820190508181036000830152615e1581615163565b9050919050565b60006020820190508181036000830152615e35816151c9565b9050919050565b60006020820190508181036000830152615e558161522f565b9050919050565b60006020820190508181036000830152615e7581615295565b9050919050565b60006020820190508181036000830152615e95816152fb565b9050919050565b60006020820190508181036000830152615eb581615361565b9050919050565b60006020820190508181036000830152615ed5816153ed565b9050919050565b60006020820190508181036000830152615ef581615493565b9050919050565b60006020820190508181036000830152615f15816154f9565b9050919050565b60006020820190508181036000830152615f358161555f565b9050919050565b60006020820190508181036000830152615f55816155c5565b9050919050565b60006020820190508181036000830152615f758161562b565b9050919050565b60006020820190508181036000830152615f9581615691565b9050919050565b60006020820190508181036000830152615fb5816156f7565b9050919050565b6000606082019050615fd16000830184615737565b92915050565b6000602082019050615fec6000830184615788565b92915050565b600061012082019050616008600083018c615788565b616015602083018b61424f565b8181036040830152616027818a61427c565b9050818103606083015261603b81896143c4565b9050818103608083015261604f818861434f565b905081810360a083015261606381876142da565b905061607260c0830186615788565b61607f60e0830185615788565b81810361010083015261609281846145c1565b90509a9950505050505050505050565b6000610140820190506160b8600083018d615788565b6160c5602083018c61426d565b6160d2604083018b615788565b6160df606083018a615788565b6160ec6080830189615788565b6160f960a0830188615788565b61610660c0830187615788565b61611360e0830186615788565b616121610100830185614431565b61612f610120830184614431565b9b9a5050505050505050505050565b60006040820190506161536000830185615788565b6161606020830184615788565b9392505050565b600060808201905061617c6000830188615788565b61618960208301876157a6565b61619660408301866157b5565b81810360608301526161a9818486614594565b90509695505050505050565b60006080820190506161ca6000830186615788565b6161d760208301856157a6565b6161e460408301846157b5565b81810360608301526161f581615479565b9050949350505050565b6000604051905081810181811067ffffffffffffffff8211171561622257600080fd5b8060405250919050565b600067ffffffffffffffff82111561624357600080fd5b602082029050602081019050919050565b600067ffffffffffffffff82111561626b57600080fd5b602082029050602081019050919050565b600067ffffffffffffffff82111561629357600080fd5b602082029050602081019050919050565b600067ffffffffffffffff8211156162bb57600080fd5b602082029050602081019050919050565b600067ffffffffffffffff8211156162e357600080fd5b601f19601f8301169050602081019050919050565b600067ffffffffffffffff82111561630f57600080fd5b601f19601f8301169050602081019050919050565b600067ffffffffffffffff82111561633b57600080fd5b601f19601f8301169050602081019050919050565b600067ffffffffffffffff82111561636757600080fd5b601f19601f8301169050602081019050919050565b6000819050602082019050919050565b6000819050602082019050919050565b6000819050602082019050919050565b6000819050602082019050919050565b60008190508160005260206000209050919050565b60008190508160005260206000209050919050565b600081519050919050565b600081519050919050565b600081519050919050565b600081519050919050565b600081519050919050565b600081519050919050565b600081519050919050565b600081519050919050565b6000602082019050919050565b6000602082019050919050565b6000602082019050919050565b6000602082019050919050565b600082825260208201905092915050565b600082825260208201905092915050565b600082825260208201905092915050565b600082825260208201905092915050565b600082825260208201905092915050565b600082825260208201905092915050565b600082825260208201905092915050565b600082825260208201905092915050565b600081905092915050565b600061651082616540565b9050919050565b60008115159050919050565b6000819050919050565b600081905061653b8261668e565b919050565b600073ffffffffffffffffffffffffffffffffffffffff82169050919050565b6000819050919050565b600060ff82169050919050565b60006bffffffffffffffffffffffff82169050919050565b600061659a826165fb565b9050919050565b60006165ac826165b3565b9050919050565b60006165be82616540565b9050919050565b60006165d0826165d7565b9050919050565b60006165e282616540565b9050919050565b60006165f48261652d565b9050919050565b60006166068261660d565b9050919050565b600061661882616540565b9050919050565b600061662a82616577565b9050919050565b82818337600083830152505050565b60005b8381101561665e578082015181840152602081019050616643565b8381111561666d576000848401525b50505050565b6000819050919050565b6000601f19601f8301169050919050565b6008811061669857fe5b50565b6166a481616505565b81146166af57600080fd5b50565b6166bb81616517565b81146166c657600080fd5b50565b6166d281616523565b81146166dd57600080fd5b50565b6166e981616560565b81146166f457600080fd5b50565b6167008161656a565b811461670b57600080fd5b50565b61671781616577565b811461672257600080fd5b5056fea365627a7a723158208a0f67af484bc5fc010061f9b80eb918e4fb232d1409c96d1592dcbcf0f2604b6c6578706572696d656e74616cf564736f6c6343000510004060806040523480156200001157600080fd5b5060405162000e4638038062000e46833981810160405262000037919081019062000403565b336000806101000a81548173ffffffffffffffffffffffffffffffffffffffff021916908373ffffffffffffffffffffffffffffffffffffffff160217905550620001208488888686866040516024016200009795949392919062000645565b6040516020818303038152906040527fd13f90b4000000000000000000000000000000000000000000000000000000007bffffffffffffffffffffffffffffffffffffffffffffffffffffffff19166020820180517bffffffffffffffffffffffffffffffffffffffffffffffffffffffff83818316178352505050506200017e60201b60201c565b62000131846200020760201b60201c565b846000806101000a81548173ffffffffffffffffffffffffffffffffffffffff021916908373ffffffffffffffffffffffffffffffffffffffff16021790555050505050505050620007b5565b600060608373ffffffffffffffffffffffffffffffffffffffff1683604051620001a99190620005ff565b600060405180830381855af49150503d8060008114620001e6576040519150601f19603f3d011682016040523d82523d6000602084013e620001eb565b606091505b5091509150600082141562000201573d60208201fd5b50505050565b6000809054906101000a900473ffffffffffffffffffffffffffffffffffffffff1673ffffffffffffffffffffffffffffffffffffffff163373ffffffffffffffffffffffffffffffffffffffff161462000299576040517f08c379a00000000000000000000000000000000000000000000000000000000081526004016200029090620006c4565b60405180910390fd5b600073ffffffffffffffffffffffffffffffffffffffff168173ffffffffffffffffffffffffffffffffffffffff1614156200030c576040517f08c379a00000000000000000000000000000000000000000000000000000000081526004016200030390620006a2565b60405180910390fd5b6000600260009054906101000a900473ffffffffffffffffffffffffffffffffffffffff16905081600260006101000a81548173ffffffffffffffffffffffffffffffffffffffff021916908373ffffffffffffffffffffffffffffffffffffffff1602179055507fd604de94d45953f9138079ec1b82d533cb2160c906d1076d1f7ed54befbca97a81600260009054906101000a900473ffffffffffffffffffffffffffffffffffffffff16604051620003c992919062000618565b60405180910390a15050565b600081519050620003e68162000781565b92915050565b600081519050620003fd816200079b565b92915050565b600080600080600080600060e0888a0312156200041f57600080fd5b60006200042f8a828b01620003d5565b9750506020620004428a828b01620003d5565b9650506040620004558a828b01620003d5565b9550506060620004688a828b01620003d5565b94505060806200047b8a828b01620003ec565b93505060a06200048e8a828b01620003ec565b92505060c0620004a18a828b01620003ec565b91505092959891949750929550565b620004bb816200070d565b82525050565b6000620004ce82620006e6565b620004da8185620006f1565b9350620004ec8185602086016200074b565b80840191505092915050565b600062000507604a83620006fc565b91507f476f7665726e6f72427261766f44656c656761746f723a3a5f736574496d706c60008301527f656d656e746174696f6e3a20696e76616c696420696d706c656d656e7461746960208301527f6f6e2061646472657373000000000000000000000000000000000000000000006040830152606082019050919050565b600062000595603683620006fc565b91507f476f7665726e6f72427261766f44656c656761746f723a3a5f736574496d706c60008301527f656d656e746174696f6e3a2061646d696e206f6e6c79000000000000000000006020830152604082019050919050565b620005f98162000741565b82525050565b60006200060d8284620004c1565b915081905092915050565b60006040820190506200062f6000830185620004b0565b6200063e6020830184620004b0565b9392505050565b600060a0820190506200065c6000830188620004b0565b6200066b6020830187620004b0565b6200067a6040830186620005ee565b620006896060830185620005ee565b620006986080830184620005ee565b9695505050505050565b60006020820190508181036000830152620006bd81620004f8565b9050919050565b60006020820190508181036000830152620006df8162000586565b9050919050565b600081519050919050565b600081905092915050565b600082825260208201905092915050565b60006200071a8262000721565b9050919050565b600073ffffffffffffffffffffffffffffffffffffffff82169050919050565b6000819050919050565b60005b838110156200076b5780820151818401526020810190506200074e565b838111156200077b576000848401525b50505050565b6200078c816200070d565b81146200079857600080fd5b50565b620007a68162000741565b8114620007b257600080fd5b50565b61068180620007c56000396000f3fe60806040526004361061003f5760003560e01c806326782247146100e85780635c60da1b14610113578063bb913f411461013e578063f851a44014610167575b6000600260009054906101000a900473ffffffffffffffffffffffffffffffffffffffff1673ffffffffffffffffffffffffffffffffffffffff1660003660405161008b92919061052d565b600060405180830381855af49150503d80600081146100c6576040519150601f19603f3d011682016040523d82523d6000602084013e6100cb565b606091505b505090506040513d6000823e81600081146100e4573d82f35b3d82fd5b3480156100f457600080fd5b506100fd610192565b60405161010a9190610546565b60405180910390f35b34801561011f57600080fd5b506101286101b8565b6040516101359190610546565b60405180910390f35b34801561014a57600080fd5b50610165600480360361016091908101906103de565b6101de565b005b34801561017357600080fd5b5061017c6103a4565b6040516101899190610546565b60405180910390f35b600160009054906101000a900473ffffffffffffffffffffffffffffffffffffffff1681565b600260009054906101000a900473ffffffffffffffffffffffffffffffffffffffff1681565b6000809054906101000a900473ffffffffffffffffffffffffffffffffffffffff1673ffffffffffffffffffffffffffffffffffffffff163373ffffffffffffffffffffffffffffffffffffffff161461026d576040517f08c379a0000000000000000000000000000000000000000000000000000000008152600401610264906105aa565b60405180910390fd5b600073ffffffffffffffffffffffffffffffffffffffff168173ffffffffffffffffffffffffffffffffffffffff1614156102dd576040517f08c379a00000000000000000000000000000000000000000000000000000000081526004016102d49061058a565b60405180910390fd5b6000600260009054906101000a900473ffffffffffffffffffffffffffffffffffffffff16905081600260006101000a81548173ffffffffffffffffffffffffffffffffffffffff021916908373ffffffffffffffffffffffffffffffffffffffff1602179055507fd604de94d45953f9138079ec1b82d533cb2160c906d1076d1f7ed54befbca97a81600260009054906101000a900473ffffffffffffffffffffffffffffffffffffffff16604051610398929190610561565b60405180910390a15050565b6000809054906101000a900473ffffffffffffffffffffffffffffffffffffffff1681565b6000813590506103d881610627565b92915050565b6000602082840312156103f057600080fd5b60006103fe848285016103c9565b91505092915050565b610410816105e6565b82525050565b600061042283856105ca565b935061042f838584610618565b82840190509392505050565b6000610448604a836105d5565b91507f476f7665726e6f72427261766f44656c656761746f723a3a5f736574496d706c60008301527f656d656e746174696f6e3a20696e76616c696420696d706c656d656e7461746960208301527f6f6e2061646472657373000000000000000000000000000000000000000000006040830152606082019050919050565b60006104d46036836105d5565b91507f476f7665726e6f72427261766f44656c656761746f723a3a5f736574496d706c60008301527f656d656e746174696f6e3a2061646d696e206f6e6c79000000000000000000006020830152604082019050919050565b600061053a828486610416565b91508190509392505050565b600060208201905061055b6000830184610407565b92915050565b60006040820190506105766000830185610407565b6105836020830184610407565b9392505050565b600060208201905081810360008301526105a38161043b565b9050919050565b600060208201905081810360008301526105c3816104c7565b9050919050565b600081905092915050565b600082825260208201905092915050565b60006105f1826105f8565b9050919050565b600073ffffffffffffffffffffffffffffffffffffffff82169050919050565b82818337600083830152505050565b610630816105e6565b811461063b57600080fd5b5056fea365627a7a72315820271fbc9ed87d7fb682284858c727f52b57b13d9295fd8e12cb82d28da3838a9f6c6578706572696d656e74616cf564736f6c63430005100040a365627a7a723158208678d2a0a7a89a6f13129eac99842e3bf1f9c12cba5459055014a02425a4aa7e6c6578706572696d656e74616cf564736f6c63430005100040",
  "source": "pragma solidity ^0.5.16;\npragma experimental ABIEncoderV2;\n\nimport \"./Timelock.sol\";\nimport \"./GovernorBravoDelegate.sol\";\nimport \"./GovernorBravoDelegator.sol\";\n\ncontract DaoFactory {\n    mapping (address => address) public timelocks;\n    mapping (address => address) public delegators;\n\n    event TimelockCreated(address indexed token, address timelock);\n    event DelegatorCreated(address indexed token, address timelock);\n\n    function createTimelock(address token, address account, uint delay) external {\n        Timelock timelock = new Timelock(account, delay);\n        timelocks[token] = address(timelock);\n        emit TimelockCreated(address(token), address(timelock));\n    }\n\n    function createDelegator(address token, address account, uint votingPeriod, uint votingDelay, uint proposalThreshold) external {\n        GovernorBravoDelegate delegate = new GovernorBravoDelegate();\n        GovernorBravoDelegator delegator = new GovernorBravoDelegator(timelocks[token], token, account, \n        address(delegate), votingPeriod, votingDelay, proposalThreshold);\n        delegators[token] = address(delegator);\n        emit DelegatorCreated(address(token), address(delegator));\n    }\n}",
  "sourcePath": "/Users/rpark23/Desktop/dao-factory/contracts/DaoFactory.sol",
  "compiler": {
    "name": "solc",
    "version": "0.5.16+commit.9c3226ce.Emscripten.clang"
  },
  "schemaVersion": "3.3.4",
  "updatedAt": "2021-08-25T23:38:05.589Z",
  "networkType": "ethereum",
  "devdoc": {
    "methods": {}
  },
  "userdoc": {
    "methods": {}
  }
}