{
  "contractName": "GovernorBravoDelegate",
  "abi": [
    {
      "anonymous": false,
      "inputs": [
        {
          "indexed": false,
          "internalType": "address",
          "name": "oldAdmin",
          "type": "address"
        },
        {
          "indexed": false,
          "internalType": "address",
          "name": "newAdmin",
          "type": "address"
        }
      ],
      "name": "NewAdmin",
      "type": "event"
    },
    {
      "anonymous": false,
      "inputs": [
        {
          "indexed": false,
          "internalType": "address",
          "name": "oldImplementation",
          "type": "address"
        },
        {
          "indexed": false,
          "internalType": "address",
          "name": "newImplementation",
          "type": "address"
        }
      ],
      "name": "NewImplementation",
      "type": "event"
    },
    {
      "anonymous": false,
      "inputs": [
        {
          "indexed": false,
          "internalType": "address",
          "name": "oldPendingAdmin",
          "type": "address"
        },
        {
          "indexed": false,
          "internalType": "address",
          "name": "newPendingAdmin",
          "type": "address"
        }
      ],
      "name": "NewPendingAdmin",
      "type": "event"
    },
    {
      "anonymous": false,
      "inputs": [
        {
          "indexed": false,
          "internalType": "uint256",
          "name": "id",
          "type": "uint256"
        }
      ],
      "name": "ProposalCanceled",
      "type": "event"
    },
    {
      "anonymous": false,
      "inputs": [
        {
          "indexed": false,
          "internalType": "uint256",
          "name": "id",
          "type": "uint256"
        },
        {
          "indexed": false,
          "internalType": "address",
          "name": "proposer",
          "type": "address"
        },
        {
          "indexed": false,
          "internalType": "address[]",
          "name": "targets",
          "type": "address[]"
        },
        {
          "indexed": false,
          "internalType": "uint256[]",
          "name": "values",
          "type": "uint256[]"
        },
        {
          "indexed": false,
          "internalType": "string[]",
          "name": "signatures",
          "type": "string[]"
        },
        {
          "indexed": false,
          "internalType": "bytes[]",
          "name": "calldatas",
          "type": "bytes[]"
        },
        {
          "indexed": false,
          "internalType": "uint256",
          "name": "startBlock",
          "type": "uint256"
        },
        {
          "indexed": false,
          "internalType": "uint256",
          "name": "endBlock",
          "type": "uint256"
        },
        {
          "indexed": false,
          "internalType": "string",
          "name": "description",
          "type": "string"
        }
      ],
      "name": "ProposalCreated",
      "type": "event"
    },
    {
      "anonymous": false,
      "inputs": [
        {
          "indexed": false,
          "internalType": "uint256",
          "name": "id",
          "type": "uint256"
        }
      ],
      "name": "ProposalExecuted",
      "type": "event"
    },
    {
      "anonymous": false,
      "inputs": [
        {
          "indexed": false,
          "internalType": "uint256",
          "name": "id",
          "type": "uint256"
        },
        {
          "indexed": false,
          "internalType": "uint256",
          "name": "eta",
          "type": "uint256"
        }
      ],
      "name": "ProposalQueued",
      "type": "event"
    },
    {
      "anonymous": false,
      "inputs": [
        {
          "indexed": false,
          "internalType": "uint256",
          "name": "oldProposalThreshold",
          "type": "uint256"
        },
        {
          "indexed": false,
          "internalType": "uint256",
          "name": "newProposalThreshold",
          "type": "uint256"
        }
      ],
      "name": "ProposalThresholdSet",
      "type": "event"
    },
    {
      "anonymous": false,
      "inputs": [
        {
          "indexed": true,
          "internalType": "address",
          "name": "voter",
          "type": "address"
        },
        {
          "indexed": false,
          "internalType": "uint256",
          "name": "proposalId",
          "type": "uint256"
        },
        {
          "indexed": false,
          "internalType": "uint8",
          "name": "support",
          "type": "uint8"
        },
        {
          "indexed": false,
          "internalType": "uint256",
          "name": "votes",
          "type": "uint256"
        },
        {
          "indexed": false,
          "internalType": "string",
          "name": "reason",
          "type": "string"
        }
      ],
      "name": "VoteCast",
      "type": "event"
    },
    {
      "anonymous": false,
      "inputs": [
        {
          "indexed": false,
          "internalType": "uint256",
          "name": "oldVotingDelay",
          "type": "uint256"
        },
        {
          "indexed": false,
          "internalType": "uint256",
          "name": "newVotingDelay",
          "type": "uint256"
        }
      ],
      "name": "VotingDelaySet",
      "type": "event"
    },
    {
      "anonymous": false,
      "inputs": [
        {
          "indexed": false,
          "internalType": "uint256",
          "name": "oldVotingPeriod",
          "type": "uint256"
        },
        {
          "indexed": false,
          "internalType": "uint256",
          "name": "newVotingPeriod",
          "type": "uint256"
        }
      ],
      "name": "VotingPeriodSet",
      "type": "event"
    },
    {
      "constant": true,
      "inputs": [],
      "name": "BALLOT_TYPEHASH",
      "outputs": [
        {
          "internalType": "bytes32",
          "name": "",
          "type": "bytes32"
        }
      ],
      "payable": false,
      "stateMutability": "view",
      "type": "function"
    },
    {
      "constant": true,
      "inputs": [],
      "name": "DOMAIN_TYPEHASH",
      "outputs": [
        {
          "internalType": "bytes32",
          "name": "",
          "type": "bytes32"
        }
      ],
      "payable": false,
      "stateMutability": "view",
      "type": "function"
    },
    {
      "constant": true,
      "inputs": [],
      "name": "MAX_PROPOSAL_THRESHOLD",
      "outputs": [
        {
          "internalType": "uint256",
          "name": "",
          "type": "uint256"
        }
      ],
      "payable": false,
      "stateMutability": "view",
      "type": "function"
    },
    {
      "constant": true,
      "inputs": [],
      "name": "MAX_VOTING_DELAY",
      "outputs": [
        {
          "internalType": "uint256",
          "name": "",
          "type": "uint256"
        }
      ],
      "payable": false,
      "stateMutability": "view",
      "type": "function"
    },
    {
      "constant": true,
      "inputs": [],
      "name": "MAX_VOTING_PERIOD",
      "outputs": [
        {
          "internalType": "uint256",
          "name": "",
          "type": "uint256"
        }
      ],
      "payable": false,
      "stateMutability": "view",
      "type": "function"
    },
    {
      "constant": true,
      "inputs": [],
      "name": "MIN_PROPOSAL_THRESHOLD",
      "outputs": [
        {
          "internalType": "uint256",
          "name": "",
          "type": "uint256"
        }
      ],
      "payable": false,
      "stateMutability": "view",
      "type": "function"
    },
    {
      "constant": true,
      "inputs": [],
      "name": "MIN_VOTING_DELAY",
      "outputs": [
        {
          "internalType": "uint256",
          "name": "",
          "type": "uint256"
        }
      ],
      "payable": false,
      "stateMutability": "view",
      "type": "function"
    },
    {
      "constant": true,
      "inputs": [],
      "name": "MIN_VOTING_PERIOD",
      "outputs": [
        {
          "internalType": "uint256",
          "name": "",
          "type": "uint256"
        }
      ],
      "payable": false,
      "stateMutability": "view",
      "type": "function"
    },
    {
      "constant": true,
      "inputs": [],
      "name": "admin",
      "outputs": [
        {
          "internalType": "address",
          "name": "",
          "type": "address"
        }
      ],
      "payable": false,
      "stateMutability": "view",
      "type": "function"
    },
    {
      "constant": true,
      "inputs": [],
      "name": "comp",
      "outputs": [
        {
          "internalType": "contract CompInterface",
          "name": "",
          "type": "address"
        }
      ],
      "payable": false,
      "stateMutability": "view",
      "type": "function"
    },
    {
      "constant": true,
      "inputs": [],
      "name": "implementation",
      "outputs": [
        {
          "internalType": "address",
          "name": "",
          "type": "address"
        }
      ],
      "payable": false,
      "stateMutability": "view",
      "type": "function"
    },
    {
      "constant": true,
      "inputs": [],
      "name": "initialProposalId",
      "outputs": [
        {
          "internalType": "uint256",
          "name": "",
          "type": "uint256"
        }
      ],
      "payable": false,
      "stateMutability": "view",
      "type": "function"
    },
    {
      "constant": true,
      "inputs": [
        {
          "internalType": "address",
          "name": "",
          "type": "address"
        }
      ],
      "name": "latestProposalIds",
      "outputs": [
        {
          "internalType": "uint256",
          "name": "",
          "type": "uint256"
        }
      ],
      "payable": false,
      "stateMutability": "view",
      "type": "function"
    },
    {
      "constant": true,
      "inputs": [],
      "name": "name",
      "outputs": [
        {
          "internalType": "string",
          "name": "",
          "type": "string"
        }
      ],
      "payable": false,
      "stateMutability": "view",
      "type": "function"
    },
    {
      "constant": true,
      "inputs": [],
      "name": "pendingAdmin",
      "outputs": [
        {
          "internalType": "address",
          "name": "",
          "type": "address"
        }
      ],
      "payable": false,
      "stateMutability": "view",
      "type": "function"
    },
    {
      "constant": true,
      "inputs": [],
      "name": "proposalCount",
      "outputs": [
        {
          "internalType": "uint256",
          "name": "",
          "type": "uint256"
        }
      ],
      "payable": false,
      "stateMutability": "view",
      "type": "function"
    },
    {
      "constant": true,
      "inputs": [],
      "name": "proposalMaxOperations",
      "outputs": [
        {
          "internalType": "uint256",
          "name": "",
          "type": "uint256"
        }
      ],
      "payable": false,
      "stateMutability": "view",
      "type": "function"
    },
    {
      "constant": true,
      "inputs": [],
      "name": "proposalThreshold",
      "outputs": [
        {
          "internalType": "uint256",
          "name": "",
          "type": "uint256"
        }
      ],
      "payable": false,
      "stateMutability": "view",
      "type": "function"
    },
    {
      "constant": true,
      "inputs": [
        {
          "internalType": "uint256",
          "name": "",
          "type": "uint256"
        }
      ],
      "name": "proposals",
      "outputs": [
        {
          "internalType": "uint256",
          "name": "id",
          "type": "uint256"
        },
        {
          "internalType": "address",
          "name": "proposer",
          "type": "address"
        },
        {
          "internalType": "uint256",
          "name": "eta",
          "type": "uint256"
        },
        {
          "internalType": "uint256",
          "name": "startBlock",
          "type": "uint256"
        },
        {
          "internalType": "uint256",
          "name": "endBlock",
          "type": "uint256"
        },
        {
          "internalType": "uint256",
          "name": "forVotes",
          "type": "uint256"
        },
        {
          "internalType": "uint256",
          "name": "againstVotes",
          "type": "uint256"
        },
        {
          "internalType": "uint256",
          "name": "abstainVotes",
          "type": "uint256"
        },
        {
          "internalType": "bool",
          "name": "canceled",
          "type": "bool"
        },
        {
          "internalType": "bool",
          "name": "executed",
          "type": "bool"
        }
      ],
      "payable": false,
      "stateMutability": "view",
      "type": "function"
    },
    {
      "constant": true,
      "inputs": [],
      "name": "quorumVotes",
      "outputs": [
        {
          "internalType": "uint256",
          "name": "",
          "type": "uint256"
        }
      ],
      "payable": false,
      "stateMutability": "view",
      "type": "function"
    },
    {
      "constant": true,
      "inputs": [],
      "name": "timelock",
      "outputs": [
        {
          "internalType": "contract TimelockInterface",
          "name": "",
          "type": "address"
        }
      ],
      "payable": false,
      "stateMutability": "view",
      "type": "function"
    },
    {
      "constant": true,
      "inputs": [],
      "name": "votingDelay",
      "outputs": [
        {
          "internalType": "uint256",
          "name": "",
          "type": "uint256"
        }
      ],
      "payable": false,
      "stateMutability": "view",
      "type": "function"
    },
    {
      "constant": true,
      "inputs": [],
      "name": "votingPeriod",
      "outputs": [
        {
          "internalType": "uint256",
          "name": "",
          "type": "uint256"
        }
      ],
      "payable": false,
      "stateMutability": "view",
      "type": "function"
    },
    {
      "constant": false,
      "inputs": [
        {
          "internalType": "address",
          "name": "timelock_",
          "type": "address"
        },
        {
          "internalType": "address",
          "name": "comp_",
          "type": "address"
        },
        {
          "internalType": "uint256",
          "name": "votingPeriod_",
          "type": "uint256"
        },
        {
          "internalType": "uint256",
          "name": "votingDelay_",
          "type": "uint256"
        },
        {
          "internalType": "uint256",
          "name": "proposalThreshold_",
          "type": "uint256"
        }
      ],
      "name": "initialize",
      "outputs": [],
      "payable": false,
      "stateMutability": "nonpayable",
      "type": "function"
    },
    {
      "constant": false,
      "inputs": [
        {
          "internalType": "address[]",
          "name": "targets",
          "type": "address[]"
        },
        {
          "internalType": "uint256[]",
          "name": "values",
          "type": "uint256[]"
        },
        {
          "internalType": "string[]",
          "name": "signatures",
          "type": "string[]"
        },
        {
          "internalType": "bytes[]",
          "name": "calldatas",
          "type": "bytes[]"
        },
        {
          "internalType": "string",
          "name": "description",
          "type": "string"
        }
      ],
      "name": "propose",
      "outputs": [
        {
          "internalType": "uint256",
          "name": "",
          "type": "uint256"
        }
      ],
      "payable": false,
      "stateMutability": "nonpayable",
      "type": "function"
    },
    {
      "constant": false,
      "inputs": [
        {
          "internalType": "uint256",
          "name": "proposalId",
          "type": "uint256"
        }
      ],
      "name": "queue",
      "outputs": [],
      "payable": false,
      "stateMutability": "nonpayable",
      "type": "function"
    },
    {
      "constant": false,
      "inputs": [
        {
          "internalType": "uint256",
          "name": "proposalId",
          "type": "uint256"
        }
      ],
      "name": "execute",
      "outputs": [],
      "payable": true,
      "stateMutability": "payable",
      "type": "function"
    },
    {
      "constant": false,
      "inputs": [
        {
          "internalType": "uint256",
          "name": "proposalId",
          "type": "uint256"
        }
      ],
      "name": "cancel",
      "outputs": [],
      "payable": false,
      "stateMutability": "nonpayable",
      "type": "function"
    },
    {
      "constant": true,
      "inputs": [
        {
          "internalType": "uint256",
          "name": "proposalId",
          "type": "uint256"
        }
      ],
      "name": "getActions",
      "outputs": [
        {
          "internalType": "address[]",
          "name": "targets",
          "type": "address[]"
        },
        {
          "internalType": "uint256[]",
          "name": "values",
          "type": "uint256[]"
        },
        {
          "internalType": "string[]",
          "name": "signatures",
          "type": "string[]"
        },
        {
          "internalType": "bytes[]",
          "name": "calldatas",
          "type": "bytes[]"
        }
      ],
      "payable": false,
      "stateMutability": "view",
      "type": "function"
    },
    {
      "constant": true,
      "inputs": [
        {
          "internalType": "uint256",
          "name": "proposalId",
          "type": "uint256"
        },
        {
          "internalType": "address",
          "name": "voter",
          "type": "address"
        }
      ],
      "name": "getReceipt",
      "outputs": [
        {
          "components": [
            {
              "internalType": "bool",
              "name": "hasVoted",
              "type": "bool"
            },
            {
              "internalType": "uint8",
              "name": "support",
              "type": "uint8"
            },
            {
              "internalType": "uint96",
              "name": "votes",
              "type": "uint96"
            }
          ],
          "internalType": "struct GovernorBravoDelegateStorageV1.Receipt",
          "name": "",
          "type": "tuple"
        }
      ],
      "payable": false,
      "stateMutability": "view",
      "type": "function"
    },
    {
      "constant": true,
      "inputs": [
        {
          "internalType": "uint256",
          "name": "proposalId",
          "type": "uint256"
        }
      ],
      "name": "state",
      "outputs": [
        {
          "internalType": "enum GovernorBravoDelegateStorageV1.ProposalState",
          "name": "",
          "type": "uint8"
        }
      ],
      "payable": false,
      "stateMutability": "view",
      "type": "function"
    },
    {
      "constant": false,
      "inputs": [
        {
          "internalType": "uint256",
          "name": "proposalId",
          "type": "uint256"
        },
        {
          "internalType": "uint8",
          "name": "support",
          "type": "uint8"
        }
      ],
      "name": "castVote",
      "outputs": [],
      "payable": false,
      "stateMutability": "nonpayable",
      "type": "function"
    },
    {
      "constant": false,
      "inputs": [
        {
          "internalType": "uint256",
          "name": "proposalId",
          "type": "uint256"
        },
        {
          "internalType": "uint8",
          "name": "support",
          "type": "uint8"
        },
        {
          "internalType": "string",
          "name": "reason",
          "type": "string"
        }
      ],
      "name": "castVoteWithReason",
      "outputs": [],
      "payable": false,
      "stateMutability": "nonpayable",
      "type": "function"
    },
    {
      "constant": false,
      "inputs": [
        {
          "internalType": "uint256",
          "name": "proposalId",
          "type": "uint256"
        },
        {
          "internalType": "uint8",
          "name": "support",
          "type": "uint8"
        },
        {
          "internalType": "uint8",
          "name": "v",
          "type": "uint8"
        },
        {
          "internalType": "bytes32",
          "name": "r",
          "type": "bytes32"
        },
        {
          "internalType": "bytes32",
          "name": "s",
          "type": "bytes32"
        }
      ],
      "name": "castVoteBySig",
      "outputs": [],
      "payable": false,
      "stateMutability": "nonpayable",
      "type": "function"
    },
    {
      "constant": false,
      "inputs": [
        {
          "internalType": "uint256",
          "name": "newVotingDelay",
          "type": "uint256"
        }
      ],
      "name": "_setVotingDelay",
      "outputs": [],
      "payable": false,
      "stateMutability": "nonpayable",
      "type": "function"
    },
    {
      "constant": false,
      "inputs": [
        {
          "internalType": "uint256",
          "name": "newVotingPeriod",
          "type": "uint256"
        }
      ],
      "name": "_setVotingPeriod",
      "outputs": [],
      "payable": false,
      "stateMutability": "nonpayable",
      "type": "function"
    },
    {
      "constant": false,
      "inputs": [
        {
          "internalType": "uint256",
          "name": "newProposalThreshold",
          "type": "uint256"
        }
      ],
      "name": "_setProposalThreshold",
      "outputs": [],
      "payable": false,
      "stateMutability": "nonpayable",
      "type": "function"
    },
    {
      "constant": false,
      "inputs": [],
      "name": "_initiate",
      "outputs": [],
      "payable": false,
      "stateMutability": "nonpayable",
      "type": "function"
    },
    {
      "constant": false,
      "inputs": [
        {
          "internalType": "address",
          "name": "newPendingAdmin",
          "type": "address"
        }
      ],
      "name": "_setPendingAdmin",
      "outputs": [],
      "payable": false,
      "stateMutability": "nonpayable",
      "type": "function"
    },
    {
      "constant": false,
      "inputs": [],
      "name": "_acceptAdmin",
      "outputs": [],
      "payable": false,
      "stateMutability": "nonpayable",
      "type": "function"
    }
  ],
  "bytecode": "0x608060405234801561001057600080fd5b5061675f80620000216000396000f3fe60806040526004361061023b5760003560e01c8063791f5d231161012e578063da35c664116100ab578063e48083fe1161006f578063e48083fe14610871578063e9c714f21461089c578063f851a440146108b3578063fc4eee42146108de578063fe0d94c1146109095761023b565b8063da35c66414610778578063da95691a146107a3578063ddf0b009146107e0578063deaaa7cc14610809578063e23a9a52146108345761023b565b8063b1126263116100f2578063b1126263146106a5578063b58131b0146106d0578063b71d1a0c146106fb578063d13f90b414610724578063d33219b41461074d5761023b565b8063791f5d23146105e45780637b3c71d31461060f5780637bdbe4d014610638578063878f148214610663578063a64e024a1461067a5761023b565b806324bc1a64116101bc5780633bccf4fd116101805780633bccf4fd146105015780633e4f49e61461052a57806340e58ee51461056757806356781388146105905780635c60da1b146105b95761023b565b806324bc1a641461041557806325fd935a14610440578063267822471461046b578063328dd982146104965780633932abb1146104d65761023b565b806317977c611161020357806317977c611461033057806317ba1b8b1461036d5780631dfb1b5a1461039657806320606b70146103bf578063215809ca146103ea5761023b565b8063013cf08b1461024057806302a251a31461028657806306fdde03146102b15780630ea2d98c146102dc578063109d0af814610305575b600080fd5b34801561024c57600080fd5b5061026760048036036102629190810190614018565b610925565b60405161027d9a99989796959493929190616099565b60405180910390f35b34801561029257600080fd5b5061029b6109b3565b6040516102a89190615fce565b60405180910390f35b3480156102bd57600080fd5b506102c66109b9565b6040516102d39190615b11565b60405180910390f35b3480156102e857600080fd5b5061030360048036036102fe9190810190614018565b6109f2565b005b34801561031157600080fd5b5061031a610b22565b6040516103279190615ac0565b60405180910390f35b34801561033c57600080fd5b5061035760048036036103529190810190613df6565b610b48565b6040516103649190615fce565b60405180910390f35b34801561037957600080fd5b50610394600480360361038f9190810190614018565b610b60565b005b3480156103a257600080fd5b506103bd60048036036103b89190810190614018565b610c9f565b005b3480156103cb57600080fd5b506103d4610dcd565b6040516103e191906159e4565b60405180910390f35b3480156103f657600080fd5b506103ff610de4565b60405161040c9190615fce565b60405180910390f35b34801561042157600080fd5b5061042a610dea565b6040516104379190615fce565b60405180910390f35b34801561044c57600080fd5b50610455610df8565b6040516104629190615fce565b60405180910390f35b34801561047757600080fd5b50610480610e06565b60405161048d919061582b565b60405180910390f35b3480156104a257600080fd5b506104bd60048036036104b89190810190614018565b610e2c565b6040516104cd9493929190615983565b60405180910390f35b3480156104e257600080fd5b506104eb611109565b6040516104f89190615fce565b60405180910390f35b34801561050d57600080fd5b506105286004803603610523919081019061414e565b61110f565b005b34801561053657600080fd5b50610551600480360361054c9190810190614018565b61132f565b60405161055e9190615af6565b60405180910390f35b34801561057357600080fd5b5061058e60048036036105899190810190614018565b611518565b005b34801561059c57600080fd5b506105b760048036036105b291908101906140a6565b6118ac565b005b3480156105c557600080fd5b506105ce61190c565b6040516105db919061582b565b60405180910390f35b3480156105f057600080fd5b506105f9611932565b6040516106069190615fce565b60405180910390f35b34801561061b57600080fd5b50610636600480360361063191908101906140e2565b611940565b005b34801561064457600080fd5b5061064d6119a6565b60405161065a9190615fce565b60405180910390f35b34801561066f57600080fd5b506106786119ab565b005b34801561068657600080fd5b5061068f611b0b565b60405161069c9190615fce565b60405180910390f35b3480156106b157600080fd5b506106ba611b12565b6040516106c79190615fce565b60405180910390f35b3480156106dc57600080fd5b506106e5611b18565b6040516106f29190615fce565b60405180910390f35b34801561070757600080fd5b50610722600480360361071d9190810190613df6565b611b1e565b005b34801561073057600080fd5b5061074b60048036036107469190810190613e1f565b611c52565b005b34801561075957600080fd5b50610762611ff9565b60405161076f9190615adb565b60405180910390f35b34801561078457600080fd5b5061078d61201f565b60405161079a9190615fce565b60405180910390f35b3480156107af57600080fd5b506107ca60048036036107c59190810190613e96565b612025565b6040516107d79190615fce565b60405180910390f35b3480156107ec57600080fd5b5061080760048036036108029190810190614018565b612634565b005b34801561081557600080fd5b5061081e612984565b60405161082b91906159e4565b60405180910390f35b34801561084057600080fd5b5061085b6004803603610856919081019061406a565b61299b565b6040516108689190615fb3565b60405180910390f35b34801561087d57600080fd5b50610886612a7f565b6040516108939190615fce565b60405180910390f35b3480156108a857600080fd5b506108b1612a84565b005b3480156108bf57600080fd5b506108c8612cf7565b6040516108d5919061582b565b60405180910390f35b3480156108ea57600080fd5b506108f3612d1c565b6040516109009190615fce565b60405180910390f35b610923600480360361091e9190810190614018565b612d22565b005b600a6020528060005260406000206000915090508060000154908060010160009054906101000a900473ffffffffffffffffffffffffffffffffffffffff169080600201549080600701549080600801549080600901549080600a01549080600b01549080600c0160009054906101000a900460ff169080600c0160019054906101000a900460ff1690508a565b60045481565b6040518060400160405280601781526020017f436f6d706f756e6420476f7665726e6f7220427261766f00000000000000000081525081565b6000809054906101000a900473ffffffffffffffffffffffffffffffffffffffff1673ffffffffffffffffffffffffffffffffffffffff163373ffffffffffffffffffffffffffffffffffffffff1614610a81576040517f08c379a0000000000000000000000000000000000000000000000000000000008152600401610a7890615bb3565b60405180910390fd5b6116808110158015610a96575062013b008111155b610ad5576040517f08c379a0000000000000000000000000000000000000000000000000000000008152600401610acc90615c33565b60405180910390fd5b60006004549050816004819055507f7e3f7f0708a84de9203036abaa450dccc85ad5ff52f78c170f3edb55cf5e882881600454604051610b16929190616135565b60405180910390a15050565b600960009054906101000a900473ffffffffffffffffffffffffffffffffffffffff1681565b600b6020528060005260406000206000915090505481565b6000809054906101000a900473ffffffffffffffffffffffffffffffffffffffff1673ffffffffffffffffffffffffffffffffffffffff163373ffffffffffffffffffffffffffffffffffffffff1614610bef576040517f08c379a0000000000000000000000000000000000000000000000000000000008152600401610be690615f33565b60405180910390fd5b690a968163f0a57b4000008110158015610c13575069152d02c7e14af68000008111155b610c52576040517f08c379a0000000000000000000000000000000000000000000000000000000008152600401610c4990615d73565b60405180910390fd5b60006005549050816005819055507fccb45da8d5717e6c4544694297c4ba5cf151d455c9bb0ed4fc7a38411bc0546181600554604051610c93929190616135565b60405180910390a15050565b6000809054906101000a900473ffffffffffffffffffffffffffffffffffffffff1673ffffffffffffffffffffffffffffffffffffffff163373ffffffffffffffffffffffffffffffffffffffff1614610d2e576040517f08c379a0000000000000000000000000000000000000000000000000000000008152600401610d2590615bf3565b60405180910390fd5b60018110158015610d415750619d808111155b610d80576040517f08c379a0000000000000000000000000000000000000000000000000000000008152600401610d7790615c93565b60405180910390fd5b60006003549050816003819055507fc565b045403dc03c2eea82b81a0465edad9e2e7fc4d97e11421c209da93d7a9381600354604051610dc1929190616135565b60405180910390a15050565b604051610dd990615816565b604051809103902081565b61168081565b6954b40b1f852bda00000081565b69152d02c7e14af680000081565b600160009054906101000a900473ffffffffffffffffffffffffffffffffffffffff1681565b6060806060806000600a600087815260200190815260200160002090508060030181600401826005018360060183805480602002602001604051908101604052809291908181526020018280548015610eda57602002820191906000526020600020905b8160009054906101000a900473ffffffffffffffffffffffffffffffffffffffff1673ffffffffffffffffffffffffffffffffffffffff1681526020019060010190808311610e90575b5050505050935082805480602002602001604051908101604052809291908181526020018280548015610f2c57602002820191906000526020600020905b815481526020019060010190808311610f18575b5050505050925081805480602002602001604051908101604052809291908181526020016000905b82821015611010578382906000526020600020018054600181600116156101000203166002900480601f016020809104026020016040519081016040528092919081815260200182805460018160011615610100020316600290048015610ffc5780601f10610fd157610100808354040283529160200191610ffc565b820191906000526020600020905b815481529060010190602001808311610fdf57829003601f168201915b505050505081526020019060010190610f54565b50505050915080805480602002602001604051908101604052809291908181526020016000905b828210156110f3578382906000526020600020018054600181600116156101000203166002900480601f0160208091040260200160405190810160405280929190818152602001828054600181600116156101000203166002900480156110df5780601f106110b4576101008083540402835291602001916110df565b820191906000526020600020905b8154815290600101906020018083116110c257829003601f168201915b505050505081526020019060010190611037565b5050505090509450945094509450509193509193565b60035481565b600060405161111d90615816565b60405180910390206040518060400160405280601781526020017f436f6d706f756e6420476f7665726e6f7220427261766f0000000000000000008152508051906020012061116a612f70565b3060405160200161117e94939291906159ff565b60405160208183030381529060405280519060200120905060006040516111a4906157ca565b604051809103902087876040516020016111c093929190615a44565b604051602081830303815290604052805190602001209050600082826040516020016111ed9291906157df565b60405160208183030381529060405280519060200120905060006001828888886040516000815260200160405260405161122a9493929190615a7b565b6020604051602081039080840390855afa15801561124c573d6000803e3d6000fd5b505050602060405103519050600073ffffffffffffffffffffffffffffffffffffffff168173ffffffffffffffffffffffffffffffffffffffff1614156112c8576040517f08c379a00000000000000000000000000000000000000000000000000000000081526004016112bf90615cf3565b60405180910390fd5b8073ffffffffffffffffffffffffffffffffffffffff167fb8e138887d0aa13bab447e82de9d5c1777041ecd21ca36ba824ff1e6c07ddda48a8a61130d858e8e612f7d565b60405161131c939291906161ac565b60405180910390a2505050505050505050565b60008160075410158015611344575060065482115b611383576040517f08c379a000000000000000000000000000000000000000000000000000000000815260040161137a90615f53565b60405180910390fd5b6000600a6000848152602001908152602001600020905080600c0160009054906101000a900460ff16156113bb576002915050611513565b806007015443116113d0576000915050611513565b806008015443116113e5576001915050611513565b80600a0154816009015411158061140957506954b40b1f852bda0000008160090154105b15611418576003915050611513565b60008160020154141561142f576004915050611513565b80600c0160019054906101000a900460ff1615611450576007915050611513565b6114fd8160020154600860009054906101000a900473ffffffffffffffffffffffffffffffffffffffff1673ffffffffffffffffffffffffffffffffffffffff1663c1a287e26040518163ffffffff1660e01b815260040160206040518083038186803b1580156114c057600080fd5b505afa1580156114d4573d6000803e3d6000fd5b505050506040513d601f19601f820116820180604052506114f89190810190614041565b6132a7565b421061150d576006915050611513565b60059150505b919050565b60078081111561152457fe5b61152d8261132f565b600781111561153857fe5b1415611579576040517f08c379a000000000000000000000000000000000000000000000000000000000815260040161157090615f13565b60405180910390fd5b6000600a600083815260200190815260200160002090508060010160009054906101000a900473ffffffffffffffffffffffffffffffffffffffff1673ffffffffffffffffffffffffffffffffffffffff163373ffffffffffffffffffffffffffffffffffffffff1614806116d75750600554600960009054906101000a900473ffffffffffffffffffffffffffffffffffffffff1673ffffffffffffffffffffffffffffffffffffffff1663782d6fe18360010160009054906101000a900473ffffffffffffffffffffffffffffffffffffffff1661165a4360016132fc565b6040518363ffffffff1660e01b8152600401611677929190615898565b60206040518083038186803b15801561168f57600080fd5b505afa1580156116a3573d6000803e3d6000fd5b505050506040513d601f19601f820116820180604052506116c791908101906141c5565b6bffffffffffffffffffffffff16105b611716576040517f08c379a000000000000000000000000000000000000000000000000000000000815260040161170d90615e53565b60405180910390fd5b600181600c0160006101000a81548160ff02191690831515021790555060008090505b816003018054905081101561187057600860009054906101000a900473ffffffffffffffffffffffffffffffffffffffff1673ffffffffffffffffffffffffffffffffffffffff1663591fcdfe83600301838154811061179557fe5b9060005260206000200160009054906101000a900473ffffffffffffffffffffffffffffffffffffffff168460040184815481106117cf57fe5b90600052602060002001548560050185815481106117e957fe5b9060005260206000200186600601868154811061180257fe5b9060005260206000200187600201546040518663ffffffff1660e01b8152600401611831959493929190615922565b600060405180830381600087803b15801561184b57600080fd5b505af115801561185f573d6000803e3d6000fd5b505050508080600101915050611739565b507f789cf55be980739dad1d0699b93b58e806b51c9d96619bfa8fe0a28abaa7b30c826040516118a09190615fce565b60405180910390a15050565b3373ffffffffffffffffffffffffffffffffffffffff167fb8e138887d0aa13bab447e82de9d5c1777041ecd21ca36ba824ff1e6c07ddda483836118f1338787612f7d565b604051611900939291906161ac565b60405180910390a25050565b600260009054906101000a900473ffffffffffffffffffffffffffffffffffffffff1681565b690a968163f0a57b40000081565b3373ffffffffffffffffffffffffffffffffffffffff167fb8e138887d0aa13bab447e82de9d5c1777041ecd21ca36ba824ff1e6c07ddda48585611985338989612f7d565b868660405161199895949392919061615e565b60405180910390a250505050565b600a81565b6000809054906101000a900473ffffffffffffffffffffffffffffffffffffffff1673ffffffffffffffffffffffffffffffffffffffff163373ffffffffffffffffffffffffffffffffffffffff1614611a3a576040517f08c379a0000000000000000000000000000000000000000000000000000000008152600401611a3190615ed3565b60405180910390fd5b600060065414611a7f576040517f08c379a0000000000000000000000000000000000000000000000000000000008152600401611a7690615dd3565b60405180910390fd5b6001600681905550600860009054906101000a900473ffffffffffffffffffffffffffffffffffffffff1673ffffffffffffffffffffffffffffffffffffffff16630e18b6816040518163ffffffff1660e01b8152600401600060405180830381600087803b158015611af157600080fd5b505af1158015611b05573d6000803e3d6000fd5b50505050565b62013b0081565b619d8081565b60055481565b6000809054906101000a900473ffffffffffffffffffffffffffffffffffffffff1673ffffffffffffffffffffffffffffffffffffffff163373ffffffffffffffffffffffffffffffffffffffff1614611bad576040517f08c379a0000000000000000000000000000000000000000000000000000000008152600401611ba490615b73565b60405180910390fd5b6000600160009054906101000a900473ffffffffffffffffffffffffffffffffffffffff16905081600160006101000a81548173ffffffffffffffffffffffffffffffffffffffff021916908373ffffffffffffffffffffffffffffffffffffffff1602179055507fca4f2f25d0898edd99413412fb94012f9e54ec8142f9b093e7720646a95b16a98183604051611c4692919061586f565b60405180910390a15050565b600073ffffffffffffffffffffffffffffffffffffffff16600860009054906101000a900473ffffffffffffffffffffffffffffffffffffffff1673ffffffffffffffffffffffffffffffffffffffff1614611ce3576040517f08c379a0000000000000000000000000000000000000000000000000000000008152600401611cda90615b53565b60405180910390fd5b6000809054906101000a900473ffffffffffffffffffffffffffffffffffffffff1673ffffffffffffffffffffffffffffffffffffffff163373ffffffffffffffffffffffffffffffffffffffff1614611d72576040517f08c379a0000000000000000000000000000000000000000000000000000000008152600401611d6990615d53565b60405180910390fd5b600073ffffffffffffffffffffffffffffffffffffffff168573ffffffffffffffffffffffffffffffffffffffff161415611de2576040517f08c379a0000000000000000000000000000000000000000000000000000000008152600401611dd990615bd3565b60405180910390fd5b600073ffffffffffffffffffffffffffffffffffffffff168473ffffffffffffffffffffffffffffffffffffffff161415611e52576040517f08c379a0000000000000000000000000000000000000000000000000000000008152600401611e4990615e33565b60405180910390fd5b6116808310158015611e67575062013b008311155b611ea6576040517f08c379a0000000000000000000000000000000000000000000000000000000008152600401611e9d90615f73565b60405180910390fd5b60018210158015611eb95750619d808211155b611ef8576040517f08c379a0000000000000000000000000000000000000000000000000000000008152600401611eef90615d13565b60405180910390fd5b690a968163f0a57b4000008110158015611f1c575069152d02c7e14af68000008111155b611f5b576040517f08c379a0000000000000000000000000000000000000000000000000000000008152600401611f5290615cb3565b60405180910390fd5b84600860006101000a81548173ffffffffffffffffffffffffffffffffffffffff021916908373ffffffffffffffffffffffffffffffffffffffff16021790555083600960006101000a81548173ffffffffffffffffffffffffffffffffffffffff021916908373ffffffffffffffffffffffffffffffffffffffff1602179055508260048190555081600381905550806005819055505050505050565b600860009054906101000a900473ffffffffffffffffffffffffffffffffffffffff1681565b60075481565b600080600654141561206c576040517f08c379a000000000000000000000000000000000000000000000000000000000815260040161206390615c13565b60405180910390fd5b600554600960009054906101000a900473ffffffffffffffffffffffffffffffffffffffff1673ffffffffffffffffffffffffffffffffffffffff1663782d6fe1336120b94360016132fc565b6040518363ffffffff1660e01b81526004016120d6929190615846565b60206040518083038186803b1580156120ee57600080fd5b505afa158015612102573d6000803e3d6000fd5b505050506040513d601f19601f8201168201806040525061212691908101906141c5565b6bffffffffffffffffffffffff1611612174576040517f08c379a000000000000000000000000000000000000000000000000000000000815260040161216b90615ef3565b60405180910390fd5b84518651148015612186575083518651145b8015612193575082518651145b6121d2576040517f08c379a00000000000000000000000000000000000000000000000000000000081526004016121c990615d33565b60405180910390fd5b600086511415612217576040517f08c379a000000000000000000000000000000000000000000000000000000000815260040161220e90615df3565b60405180910390fd5b600a8651111561225c576040517f08c379a000000000000000000000000000000000000000000000000000000000815260040161225390615e73565b60405180910390fd5b6000600b60003373ffffffffffffffffffffffffffffffffffffffff1673ffffffffffffffffffffffffffffffffffffffff1681526020019081526020016000205490506000811461236b5760006122b38261132f565b9050600160078111156122c257fe5b8160078111156122ce57fe5b141561230f576040517f08c379a000000000000000000000000000000000000000000000000000000000815260040161230690615eb3565b60405180910390fd5b6000600781111561231c57fe5b81600781111561232857fe5b1415612369576040517f08c379a000000000000000000000000000000000000000000000000000000000815260040161236090615e93565b60405180910390fd5b505b6000612379436003546132a7565b90506000612389826004546132a7565b90506007600081548092919060010191905055506123a5613522565b604051806101c0016040528060075481526020013373ffffffffffffffffffffffffffffffffffffffff168152602001600081526020018b81526020018a815260200189815260200188815260200184815260200183815260200160008152602001600081526020016000815260200160001515815260200160001515815250905080600a6000836000015181526020019081526020016000206000820151816000015560208201518160010160006101000a81548173ffffffffffffffffffffffffffffffffffffffff021916908373ffffffffffffffffffffffffffffffffffffffff1602179055506040820151816002015560608201518160030190805190602001906124b69291906135ab565b5060808201518160040190805190602001906124d3929190613635565b5060a08201518160050190805190602001906124f0929190613682565b5060c082015181600601908051906020019061250d9291906136e2565b5060e082015181600701556101008201518160080155610120820151816009015561014082015181600a015561016082015181600b015561018082015181600c0160006101000a81548160ff0219169083151502179055506101a082015181600c0160016101000a81548160ff0219169083151502179055509050508060000151600b6000836020015173ffffffffffffffffffffffffffffffffffffffff1673ffffffffffffffffffffffffffffffffffffffff168152602001908152602001600020819055507f7d84a6263ae0d98d3329bd7b46bb4e8d6f98cd35a7adb45c274c8b7fd5ebd5e08160000151338c8c8c8c89898e60405161261899989796959493929190615fe9565b60405180910390a1806000015194505050505095945050505050565b6004600781111561264157fe5b61264a8261132f565b600781111561265557fe5b14612695576040517f08c379a000000000000000000000000000000000000000000000000000000000815260040161268c90615d93565b60405180910390fd5b6000600a60008381526020019081526020016000209050600061275742600860009054906101000a900473ffffffffffffffffffffffffffffffffffffffff1673ffffffffffffffffffffffffffffffffffffffff16636a42b8f86040518163ffffffff1660e01b815260040160206040518083038186803b15801561271a57600080fd5b505afa15801561272e573d6000803e3d6000fd5b505050506040513d601f19601f820116820180604052506127529190810190614041565b6132a7565b905060008090505b826003018054905081101561293c5761292f83600301828154811061278057fe5b9060005260206000200160009054906101000a900473ffffffffffffffffffffffffffffffffffffffff168460040183815481106127ba57fe5b90600052602060002001548560050184815481106127d457fe5b906000526020600020018054600181600116156101000203166002900480601f0160208091040260200160405190810160405280929190818152602001828054600181600116156101000203166002900480156128725780601f1061284757610100808354040283529160200191612872565b820191906000526020600020905b81548152906001019060200180831161285557829003601f168201915b505050505086600601858154811061288657fe5b906000526020600020018054600181600116156101000203166002900480601f0160208091040260200160405190810160405280929190818152602001828054600181600116156101000203166002900480156129245780601f106128f957610100808354040283529160200191612924565b820191906000526020600020905b81548152906001019060200180831161290757829003601f168201915b50505050508661334c565b808060010191505061275f565b508082600201819055507f9a2e42fd6722813d69113e7d0079d3d940171428df7373df9c7f7617cfda28928382604051612977929190616135565b60405180910390a1505050565b604051612990906157ca565b604051809103902081565b6129a3613742565b600a6000848152602001908152602001600020600d0160008373ffffffffffffffffffffffffffffffffffffffff1673ffffffffffffffffffffffffffffffffffffffff1681526020019081526020016000206040518060600160405290816000820160009054906101000a900460ff161515151581526020016000820160019054906101000a900460ff1660ff1660ff1681526020016000820160029054906101000a90046bffffffffffffffffffffffff166bffffffffffffffffffffffff166bffffffffffffffffffffffff1681525050905092915050565b600181565b600160009054906101000a900473ffffffffffffffffffffffffffffffffffffffff1673ffffffffffffffffffffffffffffffffffffffff163373ffffffffffffffffffffffffffffffffffffffff16148015612b0e5750600073ffffffffffffffffffffffffffffffffffffffff163373ffffffffffffffffffffffffffffffffffffffff1614155b612b4d576040517f08c379a0000000000000000000000000000000000000000000000000000000008152600401612b4490615e13565b60405180910390fd5b60008060009054906101000a900473ffffffffffffffffffffffffffffffffffffffff1690506000600160009054906101000a900473ffffffffffffffffffffffffffffffffffffffff169050600160009054906101000a900473ffffffffffffffffffffffffffffffffffffffff166000806101000a81548173ffffffffffffffffffffffffffffffffffffffff021916908373ffffffffffffffffffffffffffffffffffffffff1602179055506000600160006101000a81548173ffffffffffffffffffffffffffffffffffffffff021916908373ffffffffffffffffffffffffffffffffffffffff1602179055507ff9ffabca9c8276e99321725bcb43fb076a6c66a54b7f21c4e8146d8519b417dc826000809054906101000a900473ffffffffffffffffffffffffffffffffffffffff16604051612c9092919061586f565b60405180910390a17fca4f2f25d0898edd99413412fb94012f9e54ec8142f9b093e7720646a95b16a981600160009054906101000a900473ffffffffffffffffffffffffffffffffffffffff16604051612ceb92919061586f565b60405180910390a15050565b6000809054906101000a900473ffffffffffffffffffffffffffffffffffffffff1681565b60065481565b60056007811115612d2f57fe5b612d388261132f565b6007811115612d4357fe5b14612d83576040517f08c379a0000000000000000000000000000000000000000000000000000000008152600401612d7a90615cd3565b60405180910390fd5b6000600a60008381526020019081526020016000209050600181600c0160016101000a81548160ff02191690831515021790555060008090505b8160030180549050811015612f3457600860009054906101000a900473ffffffffffffffffffffffffffffffffffffffff1673ffffffffffffffffffffffffffffffffffffffff16630825f38f836004018381548110612e1957fe5b9060005260206000200154846003018481548110612e3357fe5b9060005260206000200160009054906101000a900473ffffffffffffffffffffffffffffffffffffffff16856004018581548110612e6d57fe5b9060005260206000200154866005018681548110612e8757fe5b90600052602060002001876006018781548110612ea057fe5b9060005260206000200188600201546040518763ffffffff1660e01b8152600401612ecf959493929190615922565b6000604051808303818588803b158015612ee857600080fd5b505af1158015612efc573d6000803e3d6000fd5b50505050506040513d6000823e3d601f19601f82011682018060405250612f269190810190613fd7565b508080600101915050612dbd565b507f712ae1383f79ac853f8d882153778e0260ef8f03b504e2866e0593e04d2b291f82604051612f649190615fce565b60405180910390a15050565b6000804690508091505090565b600060016007811115612f8c57fe5b612f958461132f565b6007811115612fa057fe5b14612fe0576040517f08c379a0000000000000000000000000000000000000000000000000000000008152600401612fd790615c53565b60405180910390fd5b60028260ff161115613027576040517f08c379a000000000000000000000000000000000000000000000000000000000815260040161301e90615b33565b60405180910390fd5b6000600a60008581526020019081526020016000209050600081600d0160008773ffffffffffffffffffffffffffffffffffffffff1673ffffffffffffffffffffffffffffffffffffffff1681526020019081526020016000209050600015158160000160009054906101000a900460ff161515146130db576040517f08c379a00000000000000000000000000000000000000000000000000000000081526004016130d290615c73565b60405180910390fd5b6000600960009054906101000a900473ffffffffffffffffffffffffffffffffffffffff1673ffffffffffffffffffffffffffffffffffffffff1663782d6fe18885600701546040518363ffffffff1660e01b815260040161313e929190615898565b60206040518083038186803b15801561315657600080fd5b505afa15801561316a573d6000803e3d6000fd5b505050506040513d601f19601f8201168201806040525061318e91908101906141c5565b905060008560ff1614156131c5576131b883600a0154826bffffffffffffffffffffffff166132a7565b83600a018190555061322d565b60018560ff1614156131fa576131ed8360090154826bffffffffffffffffffffffff166132a7565b836009018190555061322c565b60028560ff16141561322b5761322283600b0154826bffffffffffffffffffffffff166132a7565b83600b01819055505b5b5b60018260000160006101000a81548160ff021916908315150217905550848260000160016101000a81548160ff021916908360ff160217905550808260000160026101000a8154816bffffffffffffffffffffffff02191690836bffffffffffffffffffffffff1602179055508093505050509392505050565b6000808284019050838110156132f2576040517f08c379a00000000000000000000000000000000000000000000000000000000081526004016132e990615db3565b60405180910390fd5b8091505092915050565b600082821115613341576040517f08c379a000000000000000000000000000000000000000000000000000000000815260040161333890615f93565b60405180910390fd5b818303905092915050565b600860009054906101000a900473ffffffffffffffffffffffffffffffffffffffff1673ffffffffffffffffffffffffffffffffffffffff1663f2b0653786868686866040516020016133a39594939291906158c1565b604051602081830303815290604052805190602001206040518263ffffffff1660e01b81526004016133d591906159e4565b60206040518083038186803b1580156133ed57600080fd5b505afa158015613401573d6000803e3d6000fd5b505050506040513d601f19601f820116820180604052506134259190810190613f85565b15613465576040517f08c379a000000000000000000000000000000000000000000000000000000000815260040161345c90615b93565b60405180910390fd5b600860009054906101000a900473ffffffffffffffffffffffffffffffffffffffff1673ffffffffffffffffffffffffffffffffffffffff16633a66f90186868686866040518663ffffffff1660e01b81526004016134c89594939291906158c1565b602060405180830381600087803b1580156134e257600080fd5b505af11580156134f6573d6000803e3d6000fd5b505050506040513d601f19601f8201168201806040525061351a9190810190613fae565b505050505050565b604051806101c0016040528060008152602001600073ffffffffffffffffffffffffffffffffffffffff168152602001600081526020016060815260200160608152602001606081526020016060815260200160008152602001600081526020016000815260200160008152602001600081526020016000151581526020016000151581525090565b828054828255906000526020600020908101928215613624579160200282015b828111156136235782518260006101000a81548173ffffffffffffffffffffffffffffffffffffffff021916908373ffffffffffffffffffffffffffffffffffffffff160217905550916020019190600101906135cb565b5b5090506136319190613776565b5090565b828054828255906000526020600020908101928215613671579160200282015b82811115613670578251825591602001919060010190613655565b5b50905061367e91906137b9565b5090565b8280548282559060005260206000209081019282156136d1579160200282015b828111156136d05782518290805190602001906136c09291906137de565b50916020019190600101906136a2565b5b5090506136de919061385e565b5090565b828054828255906000526020600020908101928215613731579160200282015b8281111561373057825182908051906020019061372092919061388a565b5091602001919060010190613702565b5b50905061373e919061390a565b5090565b6040518060600160405280600015158152602001600060ff16815260200160006bffffffffffffffffffffffff1681525090565b6137b691905b808211156137b257600081816101000a81549073ffffffffffffffffffffffffffffffffffffffff02191690555060010161377c565b5090565b90565b6137db91905b808211156137d75760008160009055506001016137bf565b5090565b90565b828054600181600116156101000203166002900490600052602060002090601f016020900481019282601f1061381f57805160ff191683800117855561384d565b8280016001018555821561384d579182015b8281111561384c578251825591602001919060010190613831565b5b50905061385a91906137b9565b5090565b61388791905b80821115613883576000818161387a9190613936565b50600101613864565b5090565b90565b828054600181600116156101000203166002900490600052602060002090601f016020900481019282601f106138cb57805160ff19168380011785556138f9565b828001600101855582156138f9579182015b828111156138f85782518255916020019190600101906138dd565b5b50905061390691906137b9565b5090565b61393391905b8082111561392f5760008181613926919061397e565b50600101613910565b5090565b90565b50805460018160011615610100020316600290046000825580601f1061395c575061397b565b601f01602090049060005260206000209081019061397a91906137b9565b5b50565b50805460018160011615610100020316600290046000825580601f106139a457506139c3565b601f0160209004906000526020600020908101906139c291906137b9565b5b50565b6000813590506139d581616692565b92915050565b600082601f8301126139ec57600080fd5b81356139ff6139fa82616223565b6161f6565b91508181835260208401935060208101905083856020840282011115613a2457600080fd5b60005b83811015613a545781613a3a88826139c6565b845260208401935060208301925050600181019050613a27565b5050505092915050565b600082601f830112613a6f57600080fd5b8135613a82613a7d8261624b565b6161f6565b9150818183526020840193506020810190508360005b83811015613ac85781358601613aae8882613c08565b845260208401935060208301925050600181019050613a98565b5050505092915050565b600082601f830112613ae357600080fd5b8135613af6613af182616273565b6161f6565b9150818183526020840193506020810190508360005b83811015613b3c5781358601613b228882613cfa565b845260208401935060208301925050600181019050613b0c565b5050505092915050565b600082601f830112613b5757600080fd5b8135613b6a613b658261629b565b6161f6565b91508181835260208401935060208101905083856020840282011115613b8f57600080fd5b60005b83811015613bbf5781613ba58882613da2565b845260208401935060208301925050600181019050613b92565b5050505092915050565b600081519050613bd8816166a9565b92915050565b600081359050613bed816166c0565b92915050565b600081519050613c02816166c0565b92915050565b600082601f830112613c1957600080fd5b8135613c2c613c27826162c3565b6161f6565b91508082526020830160208301858383011115613c4857600080fd5b613c53838284616628565b50505092915050565b600082601f830112613c6d57600080fd5b8151613c80613c7b826162ef565b6161f6565b91508082526020830160208301858383011115613c9c57600080fd5b613ca7838284616637565b50505092915050565b60008083601f840112613cc257600080fd5b8235905067ffffffffffffffff811115613cdb57600080fd5b602083019150836001820283011115613cf357600080fd5b9250929050565b600082601f830112613d0b57600080fd5b8135613d1e613d198261631b565b6161f6565b91508082526020830160208301858383011115613d3a57600080fd5b613d45838284616628565b50505092915050565b600082601f830112613d5f57600080fd5b8135613d72613d6d82616347565b6161f6565b91508082526020830160208301858383011115613d8e57600080fd5b613d99838284616628565b50505092915050565b600081359050613db1816166d7565b92915050565b600081519050613dc6816166d7565b92915050565b600081359050613ddb816166ee565b92915050565b600081519050613df081616705565b92915050565b600060208284031215613e0857600080fd5b6000613e16848285016139c6565b91505092915050565b600080600080600060a08688031215613e3757600080fd5b6000613e45888289016139c6565b9550506020613e56888289016139c6565b9450506040613e6788828901613da2565b9350506060613e7888828901613da2565b9250506080613e8988828901613da2565b9150509295509295909350565b600080600080600060a08688031215613eae57600080fd5b600086013567ffffffffffffffff811115613ec857600080fd5b613ed4888289016139db565b955050602086013567ffffffffffffffff811115613ef157600080fd5b613efd88828901613b46565b945050604086013567ffffffffffffffff811115613f1a57600080fd5b613f2688828901613ad2565b935050606086013567ffffffffffffffff811115613f4357600080fd5b613f4f88828901613a5e565b925050608086013567ffffffffffffffff811115613f6c57600080fd5b613f7888828901613d4e565b9150509295509295909350565b600060208284031215613f9757600080fd5b6000613fa584828501613bc9565b91505092915050565b600060208284031215613fc057600080fd5b6000613fce84828501613bf3565b91505092915050565b600060208284031215613fe957600080fd5b600082015167ffffffffffffffff81111561400357600080fd5b61400f84828501613c5c565b91505092915050565b60006020828403121561402a57600080fd5b600061403884828501613da2565b91505092915050565b60006020828403121561405357600080fd5b600061406184828501613db7565b91505092915050565b6000806040838503121561407d57600080fd5b600061408b85828601613da2565b925050602061409c858286016139c6565b9150509250929050565b600080604083850312156140b957600080fd5b60006140c785828601613da2565b92505060206140d885828601613dcc565b9150509250929050565b600080600080606085870312156140f857600080fd5b600061410687828801613da2565b945050602061411787828801613dcc565b935050604085013567ffffffffffffffff81111561413457600080fd5b61414087828801613cb0565b925092505092959194509250565b600080600080600060a0868803121561416657600080fd5b600061417488828901613da2565b955050602061418588828901613dcc565b945050604061419688828901613dcc565b93505060606141a788828901613bde565b92505060806141b888828901613bde565b9150509295509295909350565b6000602082840312156141d757600080fd5b60006141e584828501613de1565b91505092915050565b60006141fa8383614255565b60208301905092915050565b60006142128383614496565b905092915050565b600061422683836145f1565b905092915050565b600061423a8383615770565b60208301905092915050565b61424f81616586565b82525050565b61425e816164fc565b82525050565b61426d816164fc565b82525050565b600061427e826163dd565b6142888185616469565b935061429383616373565b8060005b838110156142c45781516142ab88826141ee565b97506142b683616435565b925050600181019050614297565b5085935050505092915050565b60006142dc826163e8565b6142e6818561647a565b9350836020820285016142f885616383565b8060005b8581101561433457848403895281516143158582614206565b945061432083616442565b925060208a019950506001810190506142fc565b50829750879550505050505092915050565b6000614351826163f3565b61435b818561648b565b93508360208202850161436d85616393565b8060005b858110156143a9578484038952815161438a858261421a565b94506143958361644f565b925060208a01995050600181019050614371565b50829750879550505050505092915050565b60006143c6826163fe565b6143d0818561649c565b93506143db836163a3565b8060005b8381101561440c5781516143f3888261422e565b97506143fe8361645c565b9250506001810190506143df565b5085935050505092915050565b6144228161650e565b82525050565b6144318161650e565b82525050565b6144408161651a565b82525050565b6144576144528261651a565b61666a565b82525050565b600061446882616414565b61447281856164be565b9350614482818560208601616637565b61448b81616674565b840191505092915050565b60006144a182616409565b6144ab81856164ad565b93506144bb818560208601616637565b6144c481616674565b840191505092915050565b6000815460018116600081146144ec576001811461451257614556565b607f60028304166144fd81876164be565b955060ff198316865260208601935050614556565b6002820461452081876164be565b955061452b856163b3565b60005b8281101561454d5781548189015260018201915060208101905061452e565b80880195505050505b505092915050565b61456781616598565b82525050565b614576816165bc565b82525050565b614585816165e0565b82525050565b600061459783856164e0565b93506145a4838584616628565b6145ad83616674565b840190509392505050565b60006145c38261642a565b6145cd81856164e0565b93506145dd818560208601616637565b6145e681616674565b840191505092915050565b60006145fc8261641f565b61460681856164cf565b9350614616818560208601616637565b61461f81616674565b840191505092915050565b60006146358261641f565b61463f81856164e0565b935061464f818560208601616637565b61465881616674565b840191505092915050565b60008154600181166000811461468057600181146146a6576146ea565b607f600283041661469181876164e0565b955060ff1983168652602086019350506146ea565b600282046146b481876164e0565b95506146bf856163c8565b60005b828110156146e1578154818901526001820191506020810190506146c2565b80880195505050505b505092915050565b60006146ff6032836164e0565b91507f476f7665726e6f72427261766f3a3a63617374566f7465496e7465726e616c3a60008301527f20696e76616c696420766f7465207479706500000000000000000000000000006020830152604082019050919050565b60006147656028836164f1565b91507f42616c6c6f742875696e743235362070726f706f73616c49642c75696e74382060008301527f737570706f7274290000000000000000000000000000000000000000000000006020830152602882019050919050565b60006147cb6033836164e0565b91507f476f7665726e6f72427261766f3a3a696e697469616c697a653a2063616e206f60008301527f6e6c7920696e697469616c697a65206f6e6365000000000000000000000000006020830152604082019050919050565b6000614831602a836164e0565b91507f476f7665726e6f72427261766f3a5f73657450656e64696e6741646d696e3a2060008301527f61646d696e206f6e6c79000000000000000000000000000000000000000000006020830152604082019050919050565b60006148976055836164e0565b91507f476f7665726e6f72427261766f3a3a71756575654f72526576657274496e746560008301527f726e616c3a206964656e746963616c2070726f706f73616c20616374696f6e2060208301527f616c7265616479207175657565642061742065746100000000000000000000006040830152606082019050919050565b6000614923602b836164e0565b91507f476f7665726e6f72427261766f3a3a5f736574566f74696e67506572696f643a60008301527f2061646d696e206f6e6c790000000000000000000000000000000000000000006020830152604082019050919050565b60006149896033836164e0565b91507f476f7665726e6f72427261766f3a3a696e697469616c697a653a20696e76616c60008301527f69642074696d656c6f636b2061646472657373000000000000000000000000006020830152604082019050919050565b60006149ef602a836164e0565b91507f476f7665726e6f72427261766f3a3a5f736574566f74696e6744656c61793a2060008301527f61646d696e206f6e6c79000000000000000000000000000000000000000000006020830152604082019050919050565b6000614a556031836164e0565b91507f476f7665726e6f72427261766f3a3a70726f706f73653a20476f7665726e6f7260008301527f20427261766f206e6f74206163746976650000000000000000000000000000006020830152604082019050919050565b6000614abb6002836164f1565b91507f19010000000000000000000000000000000000000000000000000000000000006000830152600282019050919050565b6000614afb6036836164e0565b91507f476f7665726e6f72427261766f3a3a5f736574566f74696e67506572696f643a60008301527f20696e76616c696420766f74696e6720706572696f64000000000000000000006020830152604082019050919050565b6000614b616031836164e0565b91507f476f7665726e6f72427261766f3a3a63617374566f7465496e7465726e616c3a60008301527f20766f74696e6720697320636c6f7365640000000000000000000000000000006020830152604082019050919050565b6000614bc76034836164e0565b91507f476f7665726e6f72427261766f3a3a63617374566f7465496e7465726e616c3a60008301527f20766f74657220616c726561647920766f7465640000000000000000000000006020830152604082019050919050565b6000614c2d6034836164e0565b91507f476f7665726e6f72427261766f3a3a5f736574566f74696e6744656c61793a2060008301527f696e76616c696420766f74696e672064656c61790000000000000000000000006020830152604082019050919050565b6000614c936035836164e0565b91507f476f7665726e6f72427261766f3a3a696e697469616c697a653a20696e76616c60008301527f69642070726f706f73616c207468726573686f6c6400000000000000000000006020830152604082019050919050565b6000614cf96045836164e0565b91507f476f7665726e6f72427261766f3a3a657865637574653a2070726f706f73616c60008301527f2063616e206f6e6c79206265206578656375746564206966206974206973207160208301527f75657565640000000000000000000000000000000000000000000000000000006040830152606082019050919050565b6000614d85602f836164e0565b91507f476f7665726e6f72427261766f3a3a63617374566f746542795369673a20696e60008301527f76616c6964207369676e617475726500000000000000000000000000000000006020830152604082019050919050565b6000614deb602f836164e0565b91507f476f7665726e6f72427261766f3a3a696e697469616c697a653a20696e76616c60008301527f696420766f74696e672064656c617900000000000000000000000000000000006020830152604082019050919050565b6000614e516044836164e0565b91507f476f7665726e6f72427261766f3a3a70726f706f73653a2070726f706f73616c60008301527f2066756e6374696f6e20696e666f726d6174696f6e206172697479206d69736d60208301527f61746368000000000000000000000000000000000000000000000000000000006040830152606082019050919050565b6000614edd6025836164e0565b91507f476f7665726e6f72427261766f3a3a696e697469616c697a653a2061646d696e60008301527f206f6e6c790000000000000000000000000000000000000000000000000000006020830152604082019050919050565b6000614f436040836164e0565b91507f476f7665726e6f72427261766f3a3a5f73657450726f706f73616c546872657360008301527f686f6c643a20696e76616c69642070726f706f73616c207468726573686f6c646020830152604082019050919050565b6000614fa96044836164e0565b91507f476f7665726e6f72427261766f3a3a71756575653a2070726f706f73616c206360008301527f616e206f6e6c792062652071756575656420696620697420697320737563636560208301527f65646564000000000000000000000000000000000000000000000000000000006040830152606082019050919050565b60006150356011836164e0565b91507f6164646974696f6e206f766572666c6f770000000000000000000000000000006000830152602082019050919050565b60006150756043836164f1565b91507f454950373132446f6d61696e28737472696e67206e616d652c75696e7432353660008301527f20636861696e49642c6164647265737320766572696679696e67436f6e74726160208301527f63742900000000000000000000000000000000000000000000000000000000006040830152604382019050919050565b60006151016030836164e0565b91507f476f7665726e6f72427261766f3a3a5f696e6974696174653a2063616e206f6e60008301527f6c7920696e697469617465206f6e6365000000000000000000000000000000006020830152604082019050919050565b6000615167602c836164e0565b91507f476f7665726e6f72427261766f3a3a70726f706f73653a206d7573742070726f60008301527f7669646520616374696f6e7300000000000000000000000000000000000000006020830152604082019050919050565b60006151cd602e836164e0565b91507f476f7665726e6f72427261766f3a5f61636365707441646d696e3a2070656e6460008301527f696e672061646d696e206f6e6c790000000000000000000000000000000000006020830152604082019050919050565b6000615233602f836164e0565b91507f476f7665726e6f72427261766f3a3a696e697469616c697a653a20696e76616c60008301527f696420636f6d70206164647265737300000000000000000000000000000000006020830152604082019050919050565b6000615299602f836164e0565b91507f476f7665726e6f72427261766f3a3a63616e63656c3a2070726f706f7365722060008301527f61626f7665207468726573686f6c6400000000000000000000000000000000006020830152604082019050919050565b60006152ff6028836164e0565b91507f476f7665726e6f72427261766f3a3a70726f706f73653a20746f6f206d616e7960008301527f20616374696f6e730000000000000000000000000000000000000000000000006020830152604082019050919050565b60006153656059836164e0565b91507f476f7665726e6f72427261766f3a3a70726f706f73653a206f6e65206c69766560008301527f2070726f706f73616c207065722070726f706f7365722c20666f756e6420616e60208301527f20616c72656164792070656e64696e672070726f706f73616c000000000000006040830152606082019050919050565b60006153f16058836164e0565b91507f476f7665726e6f72427261766f3a3a70726f706f73653a206f6e65206c69766560008301527f2070726f706f73616c207065722070726f706f7365722c20666f756e6420616e60208301527f20616c7265616479206163746976652070726f706f73616c00000000000000006040830152606082019050919050565b600061547d6000836164e0565b9150600082019050919050565b60006154976024836164e0565b91507f476f7665726e6f72427261766f3a3a5f696e6974696174653a2061646d696e2060008301527f6f6e6c79000000000000000000000000000000000000000000000000000000006020830152604082019050919050565b60006154fd603f836164e0565b91507f476f7665726e6f72427261766f3a3a70726f706f73653a2070726f706f73657260008301527f20766f7465732062656c6f772070726f706f73616c207468726573686f6c64006020830152604082019050919050565b60006155636036836164e0565b91507f476f7665726e6f72427261766f3a3a63616e63656c3a2063616e6e6f7420636160008301527f6e63656c2065786563757465642070726f706f73616c000000000000000000006020830152604082019050919050565b60006155c96030836164e0565b91507f476f7665726e6f72427261766f3a3a5f73657450726f706f73616c546872657360008301527f686f6c643a2061646d696e206f6e6c79000000000000000000000000000000006020830152604082019050919050565b600061562f6029836164e0565b91507f476f7665726e6f72427261766f3a3a73746174653a20696e76616c696420707260008301527f6f706f73616c20696400000000000000000000000000000000000000000000006020830152604082019050919050565b60006156956030836164e0565b91507f476f7665726e6f72427261766f3a3a696e697469616c697a653a20696e76616c60008301527f696420766f74696e6720706572696f64000000000000000000000000000000006020830152604082019050919050565b60006156fb6015836164e0565b91507f7375627472616374696f6e20756e646572666c6f7700000000000000000000006000830152602082019050919050565b6060820160008201516157446000850182614419565b506020820151615757602085018261578e565b50604082015161576a60408501826157bb565b50505050565b61577981616557565b82525050565b61578881616557565b82525050565b61579781616561565b82525050565b6157a681616561565b82525050565b6157b581616616565b82525050565b6157c48161656e565b82525050565b60006157d582614758565b9150819050919050565b60006157ea82614aae565b91506157f68285614446565b6020820191506158068284614446565b6020820191508190509392505050565b600061582182615068565b9150819050919050565b60006020820190506158406000830184614264565b92915050565b600060408201905061585b6000830185614246565b615868602083018461577f565b9392505050565b60006040820190506158846000830185614264565b6158916020830184614264565b9392505050565b60006040820190506158ad6000830185614264565b6158ba602083018461577f565b9392505050565b600060a0820190506158d66000830188614264565b6158e3602083018761577f565b81810360408301526158f581866145b8565b90508181036060830152615909818561445d565b9050615918608083018461577f565b9695505050505050565b600060a0820190506159376000830188614264565b615944602083018761577f565b81810360408301526159568186614663565b9050818103606083015261596a81856144cf565b9050615979608083018461577f565b9695505050505050565b6000608082019050818103600083015261599d8187614273565b905081810360208301526159b181866143bb565b905081810360408301526159c58185614346565b905081810360608301526159d981846142d1565b905095945050505050565b60006020820190506159f96000830184614437565b92915050565b6000608082019050615a146000830187614437565b615a216020830186614437565b615a2e604083018561577f565b615a3b6060830184614264565b95945050505050565b6000606082019050615a596000830186614437565b615a66602083018561577f565b615a73604083018461579d565b949350505050565b6000608082019050615a906000830187614437565b615a9d602083018661579d565b615aaa6040830185614437565b615ab76060830184614437565b95945050505050565b6000602082019050615ad5600083018461455e565b92915050565b6000602082019050615af0600083018461456d565b92915050565b6000602082019050615b0b600083018461457c565b92915050565b60006020820190508181036000830152615b2b818461462a565b905092915050565b60006020820190508181036000830152615b4c816146f2565b9050919050565b60006020820190508181036000830152615b6c816147be565b9050919050565b60006020820190508181036000830152615b8c81614824565b9050919050565b60006020820190508181036000830152615bac8161488a565b9050919050565b60006020820190508181036000830152615bcc81614916565b9050919050565b60006020820190508181036000830152615bec8161497c565b9050919050565b60006020820190508181036000830152615c0c816149e2565b9050919050565b60006020820190508181036000830152615c2c81614a48565b9050919050565b60006020820190508181036000830152615c4c81614aee565b9050919050565b60006020820190508181036000830152615c6c81614b54565b9050919050565b60006020820190508181036000830152615c8c81614bba565b9050919050565b60006020820190508181036000830152615cac81614c20565b9050919050565b60006020820190508181036000830152615ccc81614c86565b9050919050565b60006020820190508181036000830152615cec81614cec565b9050919050565b60006020820190508181036000830152615d0c81614d78565b9050919050565b60006020820190508181036000830152615d2c81614dde565b9050919050565b60006020820190508181036000830152615d4c81614e44565b9050919050565b60006020820190508181036000830152615d6c81614ed0565b9050919050565b60006020820190508181036000830152615d8c81614f36565b9050919050565b60006020820190508181036000830152615dac81614f9c565b9050919050565b60006020820190508181036000830152615dcc81615028565b9050919050565b60006020820190508181036000830152615dec816150f4565b9050919050565b60006020820190508181036000830152615e0c8161515a565b9050919050565b60006020820190508181036000830152615e2c816151c0565b9050919050565b60006020820190508181036000830152615e4c81615226565b9050919050565b60006020820190508181036000830152615e6c8161528c565b9050919050565b60006020820190508181036000830152615e8c816152f2565b9050919050565b60006020820190508181036000830152615eac81615358565b9050919050565b60006020820190508181036000830152615ecc816153e4565b9050919050565b60006020820190508181036000830152615eec8161548a565b9050919050565b60006020820190508181036000830152615f0c816154f0565b9050919050565b60006020820190508181036000830152615f2c81615556565b9050919050565b60006020820190508181036000830152615f4c816155bc565b9050919050565b60006020820190508181036000830152615f6c81615622565b9050919050565b60006020820190508181036000830152615f8c81615688565b9050919050565b60006020820190508181036000830152615fac816156ee565b9050919050565b6000606082019050615fc8600083018461572e565b92915050565b6000602082019050615fe3600083018461577f565b92915050565b600061012082019050615fff600083018c61577f565b61600c602083018b614246565b818103604083015261601e818a614273565b9050818103606083015261603281896143bb565b905081810360808301526160468188614346565b905081810360a083015261605a81876142d1565b905061606960c083018661577f565b61607660e083018561577f565b81810361010083015261608981846145b8565b90509a9950505050505050505050565b6000610140820190506160af600083018d61577f565b6160bc602083018c614264565b6160c9604083018b61577f565b6160d6606083018a61577f565b6160e3608083018961577f565b6160f060a083018861577f565b6160fd60c083018761577f565b61610a60e083018661577f565b616118610100830185614428565b616126610120830184614428565b9b9a5050505050505050505050565b600060408201905061614a600083018561577f565b616157602083018461577f565b9392505050565b6000608082019050616173600083018861577f565b616180602083018761579d565b61618d60408301866157ac565b81810360608301526161a081848661458b565b90509695505050505050565b60006080820190506161c1600083018661577f565b6161ce602083018561579d565b6161db60408301846157ac565b81810360608301526161ec81615470565b9050949350505050565b6000604051905081810181811067ffffffffffffffff8211171561621957600080fd5b8060405250919050565b600067ffffffffffffffff82111561623a57600080fd5b602082029050602081019050919050565b600067ffffffffffffffff82111561626257600080fd5b602082029050602081019050919050565b600067ffffffffffffffff82111561628a57600080fd5b602082029050602081019050919050565b600067ffffffffffffffff8211156162b257600080fd5b602082029050602081019050919050565b600067ffffffffffffffff8211156162da57600080fd5b601f19601f8301169050602081019050919050565b600067ffffffffffffffff82111561630657600080fd5b601f19601f8301169050602081019050919050565b600067ffffffffffffffff82111561633257600080fd5b601f19601f8301169050602081019050919050565b600067ffffffffffffffff82111561635e57600080fd5b601f19601f8301169050602081019050919050565b6000819050602082019050919050565b6000819050602082019050919050565b6000819050602082019050919050565b6000819050602082019050919050565b60008190508160005260206000209050919050565b60008190508160005260206000209050919050565b600081519050919050565b600081519050919050565b600081519050919050565b600081519050919050565b600081519050919050565b600081519050919050565b600081519050919050565b600081519050919050565b6000602082019050919050565b6000602082019050919050565b6000602082019050919050565b6000602082019050919050565b600082825260208201905092915050565b600082825260208201905092915050565b600082825260208201905092915050565b600082825260208201905092915050565b600082825260208201905092915050565b600082825260208201905092915050565b600082825260208201905092915050565b600082825260208201905092915050565b600081905092915050565b600061650782616537565b9050919050565b60008115159050919050565b6000819050919050565b600081905061653282616685565b919050565b600073ffffffffffffffffffffffffffffffffffffffff82169050919050565b6000819050919050565b600060ff82169050919050565b60006bffffffffffffffffffffffff82169050919050565b6000616591826165f2565b9050919050565b60006165a3826165aa565b9050919050565b60006165b582616537565b9050919050565b60006165c7826165ce565b9050919050565b60006165d982616537565b9050919050565b60006165eb82616524565b9050919050565b60006165fd82616604565b9050919050565b600061660f82616537565b9050919050565b60006166218261656e565b9050919050565b82818337600083830152505050565b60005b8381101561665557808201518184015260208101905061663a565b83811115616664576000848401525b50505050565b6000819050919050565b6000601f19601f8301169050919050565b6008811061668f57fe5b50565b61669b816164fc565b81146166a657600080fd5b50565b6166b28161650e565b81146166bd57600080fd5b50565b6166c98161651a565b81146166d457600080fd5b50565b6166e081616557565b81146166eb57600080fd5b50565b6166f781616561565b811461670257600080fd5b50565b61670e8161656e565b811461671957600080fd5b5056fea365627a7a723158201a8cdda3204018338d9a33ecb6540e30e99f87be0cc0117c44715d82871dedc76c6578706572696d656e74616cf564736f6c63430005100040",
  "source": "pragma solidity ^0.5.16;\npragma experimental ABIEncoderV2;\n\nimport \"./GovernorBravoInterfaces.sol\";\n\ncontract GovernorBravoDelegate is GovernorBravoDelegateStorageV1, GovernorBravoEvents {\n\n    /// @notice The name of this contract\n    string public constant name = \"Compound Governor Bravo\";\n\n    /// @notice The minimum setable proposal threshold\n    uint public constant MIN_PROPOSAL_THRESHOLD = 50000e18; // 50,000 Comp\n\n    /// @notice The maximum setable proposal threshold\n    uint public constant MAX_PROPOSAL_THRESHOLD = 100000e18; //100,000 Comp\n\n    /// @notice The minimum setable voting period\n    uint public constant MIN_VOTING_PERIOD = 5760; // About 24 hours\n\n    /// @notice The max setable voting period\n    uint public constant MAX_VOTING_PERIOD = 80640; // About 2 weeks\n\n    /// @notice The min setable voting delay\n    uint public constant MIN_VOTING_DELAY = 1;\n\n    /// @notice The max setable voting delay\n    uint public constant MAX_VOTING_DELAY = 40320; // About 1 week\n\n    /// @notice The number of votes in support of a proposal required in order for a quorum to be reached and for a vote to succeed\n    uint public constant quorumVotes = 400000e18; // 400,000 = 4% of Comp\n\n    /// @notice The maximum number of actions that can be included in a proposal\n    uint public constant proposalMaxOperations = 10; // 10 actions\n\n    /// @notice The EIP-712 typehash for the contract's domain\n    bytes32 public constant DOMAIN_TYPEHASH = keccak256(\"EIP712Domain(string name,uint256 chainId,address verifyingContract)\");\n\n    /// @notice The EIP-712 typehash for the ballot struct used by the contract\n    bytes32 public constant BALLOT_TYPEHASH = keccak256(\"Ballot(uint256 proposalId,uint8 support)\");\n\n    /**\n      * @notice Used to initialize the contract during delegator contructor\n      * @param timelock_ The address of the Timelock\n      * @param comp_ The address of the COMP token\n      * @param votingPeriod_ The initial voting period\n      * @param votingDelay_ The initial voting delay\n      * @param proposalThreshold_ The initial proposal threshold\n      */\n    function initialize(address timelock_, address comp_, uint votingPeriod_, uint votingDelay_, uint proposalThreshold_) public {\n        require(address(timelock) == address(0), \"GovernorBravo::initialize: can only initialize once\");\n        require(msg.sender == admin, \"GovernorBravo::initialize: admin only\");\n        require(timelock_ != address(0), \"GovernorBravo::initialize: invalid timelock address\");\n        require(comp_ != address(0), \"GovernorBravo::initialize: invalid comp address\");\n        require(votingPeriod_ >= MIN_VOTING_PERIOD && votingPeriod_ <= MAX_VOTING_PERIOD, \"GovernorBravo::initialize: invalid voting period\");\n        require(votingDelay_ >= MIN_VOTING_DELAY && votingDelay_ <= MAX_VOTING_DELAY, \"GovernorBravo::initialize: invalid voting delay\");\n        require(proposalThreshold_ >= MIN_PROPOSAL_THRESHOLD && proposalThreshold_ <= MAX_PROPOSAL_THRESHOLD, \"GovernorBravo::initialize: invalid proposal threshold\");\n\n        timelock = TimelockInterface(timelock_);\n        comp = CompInterface(comp_);\n        votingPeriod = votingPeriod_;\n        votingDelay = votingDelay_;\n        proposalThreshold = proposalThreshold_;\n    }\n\n    /**\n      * @notice Function used to propose a new proposal. Sender must have delegates above the proposal threshold\n      * @param targets Target addresses for proposal calls\n      * @param values Eth values for proposal calls\n      * @param signatures Function signatures for proposal calls\n      * @param calldatas Calldatas for proposal calls\n      * @param description String description of the proposal\n      * @return Proposal id of new proposal\n      */\n    function propose(address[] memory targets, uint[] memory values, string[] memory signatures, bytes[] memory calldatas, string memory description) public returns (uint) {\n        // Reject proposals before initiating as Governor\n        require(initialProposalId != 0, \"GovernorBravo::propose: Governor Bravo not active\");\n        require(comp.getPriorVotes(msg.sender, sub256(block.number, 1)) > proposalThreshold, \"GovernorBravo::propose: proposer votes below proposal threshold\");\n        require(targets.length == values.length && targets.length == signatures.length && targets.length == calldatas.length, \"GovernorBravo::propose: proposal function information arity mismatch\");\n        require(targets.length != 0, \"GovernorBravo::propose: must provide actions\");\n        require(targets.length <= proposalMaxOperations, \"GovernorBravo::propose: too many actions\");\n\n        uint latestProposalId = latestProposalIds[msg.sender];\n        if (latestProposalId != 0) {\n          ProposalState proposersLatestProposalState = state(latestProposalId);\n          require(proposersLatestProposalState != ProposalState.Active, \"GovernorBravo::propose: one live proposal per proposer, found an already active proposal\");\n          require(proposersLatestProposalState != ProposalState.Pending, \"GovernorBravo::propose: one live proposal per proposer, found an already pending proposal\");\n        }\n\n        uint startBlock = add256(block.number, votingDelay);\n        uint endBlock = add256(startBlock, votingPeriod);\n\n        proposalCount++;\n        Proposal memory newProposal = Proposal({\n            id: proposalCount,\n            proposer: msg.sender,\n            eta: 0,\n            targets: targets,\n            values: values,\n            signatures: signatures,\n            calldatas: calldatas,\n            startBlock: startBlock,\n            endBlock: endBlock,\n            forVotes: 0,\n            againstVotes: 0,\n            abstainVotes: 0,\n            canceled: false,\n            executed: false\n        });\n\n        proposals[newProposal.id] = newProposal;\n        latestProposalIds[newProposal.proposer] = newProposal.id;\n\n        emit ProposalCreated(newProposal.id, msg.sender, targets, values, signatures, calldatas, startBlock, endBlock, description);\n        return newProposal.id;\n    }\n\n    /**\n      * @notice Queues a proposal of state succeeded\n      * @param proposalId The id of the proposal to queue\n      */\n    function queue(uint proposalId) external {\n        require(state(proposalId) == ProposalState.Succeeded, \"GovernorBravo::queue: proposal can only be queued if it is succeeded\");\n        Proposal storage proposal = proposals[proposalId];\n        uint eta = add256(block.timestamp, timelock.delay());\n        for (uint i = 0; i < proposal.targets.length; i++) {\n            queueOrRevertInternal(proposal.targets[i], proposal.values[i], proposal.signatures[i], proposal.calldatas[i], eta);\n        }\n        proposal.eta = eta;\n        emit ProposalQueued(proposalId, eta);\n    }\n\n    function queueOrRevertInternal(address target, uint value, string memory signature, bytes memory data, uint eta) internal {\n        require(!timelock.queuedTransactions(keccak256(abi.encode(target, value, signature, data, eta))), \"GovernorBravo::queueOrRevertInternal: identical proposal action already queued at eta\");\n        timelock.queueTransaction(target, value, signature, data, eta);\n    }\n\n    /**\n      * @notice Executes a queued proposal if eta has passed\n      * @param proposalId The id of the proposal to execute\n      */\n    function execute(uint proposalId) external payable {\n        require(state(proposalId) == ProposalState.Queued, \"GovernorBravo::execute: proposal can only be executed if it is queued\");\n        Proposal storage proposal = proposals[proposalId];\n        proposal.executed = true;\n        for (uint i = 0; i < proposal.targets.length; i++) {\n            timelock.executeTransaction.value(proposal.values[i])(proposal.targets[i], proposal.values[i], proposal.signatures[i], proposal.calldatas[i], proposal.eta);\n        }\n        emit ProposalExecuted(proposalId);\n    }\n\n    /**\n      * @notice Cancels a proposal only if sender is the proposer, or proposer delegates dropped below proposal threshold\n      * @param proposalId The id of the proposal to cancel\n      */\n    function cancel(uint proposalId) external {\n        require(state(proposalId) != ProposalState.Executed, \"GovernorBravo::cancel: cannot cancel executed proposal\");\n\n        Proposal storage proposal = proposals[proposalId];\n        require(msg.sender == proposal.proposer || comp.getPriorVotes(proposal.proposer, sub256(block.number, 1)) < proposalThreshold, \"GovernorBravo::cancel: proposer above threshold\");\n\n        proposal.canceled = true;\n        for (uint i = 0; i < proposal.targets.length; i++) {\n            timelock.cancelTransaction(proposal.targets[i], proposal.values[i], proposal.signatures[i], proposal.calldatas[i], proposal.eta);\n        }\n\n        emit ProposalCanceled(proposalId);\n    }\n\n    /**\n      * @notice Gets actions of a proposal\n      * @param proposalId the id of the proposal\n      * @return Targets, values, signatures, and calldatas of the proposal actions\n      */\n    function getActions(uint proposalId) external view returns (address[] memory targets, uint[] memory values, string[] memory signatures, bytes[] memory calldatas) {\n        Proposal storage p = proposals[proposalId];\n        return (p.targets, p.values, p.signatures, p.calldatas);\n    }\n\n    /**\n      * @notice Gets the receipt for a voter on a given proposal\n      * @param proposalId the id of proposal\n      * @param voter The address of the voter\n      * @return The voting receipt\n      */\n    function getReceipt(uint proposalId, address voter) external view returns (Receipt memory) {\n        return proposals[proposalId].receipts[voter];\n    }\n\n    /**\n      * @notice Gets the state of a proposal\n      * @param proposalId The id of the proposal\n      * @return Proposal state\n      */\n    function state(uint proposalId) public view returns (ProposalState) {\n        require(proposalCount >= proposalId && proposalId > initialProposalId, \"GovernorBravo::state: invalid proposal id\");\n        Proposal storage proposal = proposals[proposalId];\n        if (proposal.canceled) {\n            return ProposalState.Canceled;\n        } else if (block.number <= proposal.startBlock) {\n            return ProposalState.Pending;\n        } else if (block.number <= proposal.endBlock) {\n            return ProposalState.Active;\n        } else if (proposal.forVotes <= proposal.againstVotes || proposal.forVotes < quorumVotes) {\n            return ProposalState.Defeated;\n        } else if (proposal.eta == 0) {\n            return ProposalState.Succeeded;\n        } else if (proposal.executed) {\n            return ProposalState.Executed;\n        } else if (block.timestamp >= add256(proposal.eta, timelock.GRACE_PERIOD())) {\n            return ProposalState.Expired;\n        } else {\n            return ProposalState.Queued;\n        }\n    }\n\n    /**\n      * @notice Cast a vote for a proposal\n      * @param proposalId The id of the proposal to vote on\n      * @param support The support value for the vote. 0=against, 1=for, 2=abstain\n      */\n    function castVote(uint proposalId, uint8 support) external {\n        emit VoteCast(msg.sender, proposalId, support, castVoteInternal(msg.sender, proposalId, support), \"\");\n    }\n\n    /**\n      * @notice Cast a vote for a proposal with a reason\n      * @param proposalId The id of the proposal to vote on\n      * @param support The support value for the vote. 0=against, 1=for, 2=abstain\n      * @param reason The reason given for the vote by the voter\n      */\n    function castVoteWithReason(uint proposalId, uint8 support, string calldata reason) external {\n        emit VoteCast(msg.sender, proposalId, support, castVoteInternal(msg.sender, proposalId, support), reason);\n    }\n\n    /**\n      * @notice Cast a vote for a proposal by signature\n      * @dev External function that accepts EIP-712 signatures for voting on proposals.\n      */\n    function castVoteBySig(uint proposalId, uint8 support, uint8 v, bytes32 r, bytes32 s) external {\n        bytes32 domainSeparator = keccak256(abi.encode(DOMAIN_TYPEHASH, keccak256(bytes(name)), getChainIdInternal(), address(this)));\n        bytes32 structHash = keccak256(abi.encode(BALLOT_TYPEHASH, proposalId, support));\n        bytes32 digest = keccak256(abi.encodePacked(\"\\x19\\x01\", domainSeparator, structHash));\n        address signatory = ecrecover(digest, v, r, s);\n        require(signatory != address(0), \"GovernorBravo::castVoteBySig: invalid signature\");\n        emit VoteCast(signatory, proposalId, support, castVoteInternal(signatory, proposalId, support), \"\");\n    }\n\n    /**\n      * @notice Internal function that caries out voting logic\n      * @param voter The voter that is casting their vote\n      * @param proposalId The id of the proposal to vote on\n      * @param support The support value for the vote. 0=against, 1=for, 2=abstain\n      * @return The number of votes cast\n      */\n    function castVoteInternal(address voter, uint proposalId, uint8 support) internal returns (uint96) {\n        require(state(proposalId) == ProposalState.Active, \"GovernorBravo::castVoteInternal: voting is closed\");\n        require(support <= 2, \"GovernorBravo::castVoteInternal: invalid vote type\");\n        Proposal storage proposal = proposals[proposalId];\n        Receipt storage receipt = proposal.receipts[voter];\n        require(receipt.hasVoted == false, \"GovernorBravo::castVoteInternal: voter already voted\");\n        uint96 votes = comp.getPriorVotes(voter, proposal.startBlock);\n\n        if (support == 0) {\n            proposal.againstVotes = add256(proposal.againstVotes, votes);\n        } else if (support == 1) {\n            proposal.forVotes = add256(proposal.forVotes, votes);\n        } else if (support == 2) {\n            proposal.abstainVotes = add256(proposal.abstainVotes, votes);\n        }\n\n        receipt.hasVoted = true;\n        receipt.support = support;\n        receipt.votes = votes;\n\n        return votes;\n    }\n\n    /**\n      * @notice Admin function for setting the voting delay\n      * @param newVotingDelay new voting delay, in blocks\n      */\n    function _setVotingDelay(uint newVotingDelay) external {\n        require(msg.sender == admin, \"GovernorBravo::_setVotingDelay: admin only\");\n        require(newVotingDelay >= MIN_VOTING_DELAY && newVotingDelay <= MAX_VOTING_DELAY, \"GovernorBravo::_setVotingDelay: invalid voting delay\");\n        uint oldVotingDelay = votingDelay;\n        votingDelay = newVotingDelay;\n\n        emit VotingDelaySet(oldVotingDelay,votingDelay);\n    }\n\n    /**\n      * @notice Admin function for setting the voting period\n      * @param newVotingPeriod new voting period, in blocks\n      */\n    function _setVotingPeriod(uint newVotingPeriod) external {\n        require(msg.sender == admin, \"GovernorBravo::_setVotingPeriod: admin only\");\n        require(newVotingPeriod >= MIN_VOTING_PERIOD && newVotingPeriod <= MAX_VOTING_PERIOD, \"GovernorBravo::_setVotingPeriod: invalid voting period\");\n        uint oldVotingPeriod = votingPeriod;\n        votingPeriod = newVotingPeriod;\n\n        emit VotingPeriodSet(oldVotingPeriod, votingPeriod);\n    }\n\n    /**\n      * @notice Admin function for setting the proposal threshold\n      * @dev newProposalThreshold must be greater than the hardcoded min\n      * @param newProposalThreshold new proposal threshold\n      */\n    function _setProposalThreshold(uint newProposalThreshold) external {\n        require(msg.sender == admin, \"GovernorBravo::_setProposalThreshold: admin only\");\n        require(newProposalThreshold >= MIN_PROPOSAL_THRESHOLD && newProposalThreshold <= MAX_PROPOSAL_THRESHOLD, \"GovernorBravo::_setProposalThreshold: invalid proposal threshold\");\n        uint oldProposalThreshold = proposalThreshold;\n        proposalThreshold = newProposalThreshold;\n\n        emit ProposalThresholdSet(oldProposalThreshold, proposalThreshold);\n    }\n\n    /**\n      * @notice Initiate the GovernorBravo contract\n      * @dev Admin only. Sets initial proposal id which initiates the contract, ensuring a continuous proposal id count\n      * DELETE param governorAlpha\n      */\n    function _initiate(/*address governorAlpha*/) external {\n        require(msg.sender == admin, \"GovernorBravo::_initiate: admin only\");\n        require(initialProposalId == 0, \"GovernorBravo::_initiate: can only initiate once\");\n        //proposalCount = GovernorAlpha(governorAlpha).proposalCount();\n        initialProposalId = 1; //proposalCount;\n        timelock.acceptAdmin();\n    }\n\n    /**\n      * @notice Begins transfer of admin rights. The newPendingAdmin must call `_acceptAdmin` to finalize the transfer.\n      * @dev Admin function to begin change of admin. The newPendingAdmin must call `_acceptAdmin` to finalize the transfer.\n      * @param newPendingAdmin New pending admin.\n      */\n    function _setPendingAdmin(address newPendingAdmin) external {\n        // Check caller = admin\n        require(msg.sender == admin, \"GovernorBravo:_setPendingAdmin: admin only\");\n\n        // Save current value, if any, for inclusion in log\n        address oldPendingAdmin = pendingAdmin;\n\n        // Store pendingAdmin with value newPendingAdmin\n        pendingAdmin = newPendingAdmin;\n\n        // Emit NewPendingAdmin(oldPendingAdmin, newPendingAdmin)\n        emit NewPendingAdmin(oldPendingAdmin, newPendingAdmin);\n    }\n\n    /**\n      * @notice Accepts transfer of admin rights. msg.sender must be pendingAdmin\n      * @dev Admin function for pending admin to accept role and update admin\n      */\n    function _acceptAdmin() external {\n        // Check caller is pendingAdmin and pendingAdmin  address(0)\n        require(msg.sender == pendingAdmin && msg.sender != address(0), \"GovernorBravo:_acceptAdmin: pending admin only\");\n\n        // Save current values for inclusion in log\n        address oldAdmin = admin;\n        address oldPendingAdmin = pendingAdmin;\n\n        // Store admin with value pendingAdmin\n        admin = pendingAdmin;\n\n        // Clear the pending value\n        pendingAdmin = address(0);\n\n        emit NewAdmin(oldAdmin, admin);\n        emit NewPendingAdmin(oldPendingAdmin, pendingAdmin);\n    }\n\n    function add256(uint256 a, uint256 b) internal pure returns (uint) {\n        uint c = a + b;\n        require(c >= a, \"addition overflow\");\n        return c;\n    }\n\n    function sub256(uint256 a, uint256 b) internal pure returns (uint) {\n        require(b <= a, \"subtraction underflow\");\n        return a - b;\n    }\n\n    function getChainIdInternal() internal pure returns (uint) {\n        uint chainId;\n        assembly { chainId := chainid() }\n        return chainId;\n    }\n}",
  "sourcePath": "/Users/rpark23/Desktop/compound-bravo/contracts/GovernorBravoDelegate.sol",
  "compiler": {
    "name": "solc",
    "version": "0.5.16+commit.9c3226ce.Emscripten.clang"
  },
  "schemaVersion": "3.3.4",
  "updatedAt": "2021-08-09T05:52:19.511Z",
  "networkType": "ethereum",
  "devdoc": {
    "methods": {
      "_acceptAdmin()": {
        "details": "Admin function for pending admin to accept role and update admin"
      },
      "_initiate()": {
        "details": "Admin only. Sets initial proposal id which initiates the contract, ensuring a continuous proposal id count DELETE param governorAlpha"
      },
      "_setPendingAdmin(address)": {
        "details": "Admin function to begin change of admin. The newPendingAdmin must call `_acceptAdmin` to finalize the transfer.",
        "params": {
          "newPendingAdmin": "New pending admin."
        }
      },
      "_setProposalThreshold(uint256)": {
        "details": "newProposalThreshold must be greater than the hardcoded min",
        "params": {
          "newProposalThreshold": "new proposal threshold"
        }
      },
      "_setVotingDelay(uint256)": {
        "params": {
          "newVotingDelay": "new voting delay, in blocks"
        }
      },
      "_setVotingPeriod(uint256)": {
        "params": {
          "newVotingPeriod": "new voting period, in blocks"
        }
      },
      "cancel(uint256)": {
        "params": {
          "proposalId": "The id of the proposal to cancel"
        }
      },
      "castVote(uint256,uint8)": {
        "params": {
          "proposalId": "The id of the proposal to vote on",
          "support": "The support value for the vote. 0=against, 1=for, 2=abstain"
        }
      },
      "castVoteBySig(uint256,uint8,uint8,bytes32,bytes32)": {
        "details": "External function that accepts EIP-712 signatures for voting on proposals."
      },
      "castVoteWithReason(uint256,uint8,string)": {
        "params": {
          "proposalId": "The id of the proposal to vote on",
          "reason": "The reason given for the vote by the voter",
          "support": "The support value for the vote. 0=against, 1=for, 2=abstain"
        }
      },
      "execute(uint256)": {
        "params": {
          "proposalId": "The id of the proposal to execute"
        }
      },
      "getActions(uint256)": {
        "params": {
          "proposalId": "the id of the proposal"
        },
        "return": "Targets, values, signatures, and calldatas of the proposal actions"
      },
      "getReceipt(uint256,address)": {
        "params": {
          "proposalId": "the id of proposal",
          "voter": "The address of the voter"
        },
        "return": "The voting receipt"
      },
      "initialize(address,address,uint256,uint256,uint256)": {
        "params": {
          "comp_": "The address of the COMP token",
          "proposalThreshold_": "The initial proposal threshold",
          "timelock_": "The address of the Timelock",
          "votingDelay_": "The initial voting delay",
          "votingPeriod_": "The initial voting period"
        }
      },
      "propose(address[],uint256[],string[],bytes[],string)": {
        "params": {
          "calldatas": "Calldatas for proposal calls",
          "description": "String description of the proposal",
          "signatures": "Function signatures for proposal calls",
          "targets": "Target addresses for proposal calls",
          "values": "Eth values for proposal calls"
        },
        "return": "Proposal id of new proposal"
      },
      "queue(uint256)": {
        "params": {
          "proposalId": "The id of the proposal to queue"
        }
      },
      "state(uint256)": {
        "params": {
          "proposalId": "The id of the proposal"
        },
        "return": "Proposal state"
      }
    }
  },
  "userdoc": {
    "methods": {
      "_acceptAdmin()": {
        "notice": "Accepts transfer of admin rights. msg.sender must be pendingAdmin"
      },
      "_initiate()": {
        "notice": "Initiate the GovernorBravo contract"
      },
      "_setPendingAdmin(address)": {
        "notice": "Begins transfer of admin rights. The newPendingAdmin must call `_acceptAdmin` to finalize the transfer."
      },
      "_setProposalThreshold(uint256)": {
        "notice": "Admin function for setting the proposal threshold"
      },
      "_setVotingDelay(uint256)": {
        "notice": "Admin function for setting the voting delay"
      },
      "_setVotingPeriod(uint256)": {
        "notice": "Admin function for setting the voting period"
      },
      "cancel(uint256)": {
        "notice": "Cancels a proposal only if sender is the proposer, or proposer delegates dropped below proposal threshold"
      },
      "castVote(uint256,uint8)": {
        "notice": "Cast a vote for a proposal"
      },
      "castVoteBySig(uint256,uint8,uint8,bytes32,bytes32)": {
        "notice": "Cast a vote for a proposal by signature"
      },
      "castVoteWithReason(uint256,uint8,string)": {
        "notice": "Cast a vote for a proposal with a reason"
      },
      "execute(uint256)": {
        "notice": "Executes a queued proposal if eta has passed"
      },
      "getActions(uint256)": {
        "notice": "Gets actions of a proposal"
      },
      "getReceipt(uint256,address)": {
        "notice": "Gets the receipt for a voter on a given proposal"
      },
      "initialize(address,address,uint256,uint256,uint256)": {
        "notice": "Used to initialize the contract during delegator contructor"
      },
      "propose(address[],uint256[],string[],bytes[],string)": {
        "notice": "Function used to propose a new proposal. Sender must have delegates above the proposal threshold"
      },
      "queue(uint256)": {
        "notice": "Queues a proposal of state succeeded"
      },
      "state(uint256)": {
        "notice": "Gets the state of a proposal"
      }
    }
  }
}