{
  "contractName": "TokenFactory",
  "abi": [
    {
      "anonymous": false,
      "inputs": [
        {
          "indexed": true,
          "internalType": "address",
          "name": "token",
          "type": "address"
        },
        {
          "indexed": false,
          "internalType": "uint256",
          "name": "",
          "type": "uint256"
        }
      ],
      "name": "TokenCreated",
      "type": "event"
    },
    {
      "constant": true,
      "inputs": [
        {
          "internalType": "uint256",
          "name": "",
          "type": "uint256"
        }
      ],
      "name": "tokens",
      "outputs": [
        {
          "internalType": "contract Token",
          "name": "",
          "type": "address"
        }
      ],
      "payable": false,
      "stateMutability": "view",
      "type": "function"
    },
    {
      "constant": false,
      "inputs": [
        {
          "internalType": "string",
          "name": "name",
          "type": "string"
        },
        {
          "internalType": "string",
          "name": "symbol",
          "type": "string"
        },
        {
          "internalType": "uint8",
          "name": "tokenDecimals",
          "type": "uint8"
        },
        {
          "internalType": "uint256",
          "name": "totalSupply",
          "type": "uint256"
        },
        {
          "internalType": "address",
          "name": "account",
          "type": "address"
        }
      ],
      "name": "createToken",
      "outputs": [],
      "payable": false,
      "stateMutability": "nonpayable",
      "type": "function"
    },
    {
      "constant": true,
      "inputs": [],
      "name": "tokensLength",
      "outputs": [
        {
          "internalType": "uint256",
          "name": "",
          "type": "uint256"
        }
      ],
      "payable": false,
      "stateMutability": "view",
      "type": "function"
    }
  ],
  "bytecode": "0x608060405234801561001057600080fd5b506139d1806100206000396000f3fe60806040523480156200001157600080fd5b5060043610620000465760003560e01c80634f64b2be146200004b5780635165749e1462000081578063d92fc67b14620000a1575b600080fd5b62000069600480360362000063919081019062000377565b620000c3565b6040516200007891906200041a565b60405180910390f35b6200009f6004803603620000999190810190620002ba565b62000100565b005b620000ab6200020e565b604051620000ba9190620004a6565b60405180910390f35b60008181548110620000d157fe5b906000526020600020016000915054906101000a900473ffffffffffffffffffffffffffffffffffffffff1681565b60008787878787878760405162000117906200021a565b62000129979695949392919062000437565b604051809103906000f08015801562000146573d6000803e3d6000fd5b50905060008190806001815401808255809150509060018203906000526020600020016000909192909190916101000a81548173ffffffffffffffffffffffffffffffffffffffff021916908373ffffffffffffffffffffffffffffffffffffffff160217905550508073ffffffffffffffffffffffffffffffffffffffff167f1cef2b4ec7f129e441c961eb4fae22fd3131868db6be990c6f065f35b6b53cf3600080549050604051620001fc9190620004a6565b60405180910390a25050505050505050565b60008080549050905090565b6133d980620005b683390190565b600081359050620002398162000567565b92915050565b60008083601f8401126200025257600080fd5b8235905067ffffffffffffffff8111156200026c57600080fd5b6020830191508360018202830111156200028557600080fd5b9250929050565b6000813590506200029d8162000581565b92915050565b600081359050620002b4816200059b565b92915050565b600080600080600080600060a0888a031215620002d657600080fd5b600088013567ffffffffffffffff811115620002f157600080fd5b620002ff8a828b016200023f565b9750975050602088013567ffffffffffffffff8111156200031f57600080fd5b6200032d8a828b016200023f565b95509550506040620003428a828b01620002a3565b9350506060620003558a828b016200028c565b9250506080620003688a828b0162000228565b91505092959891949750929550565b6000602082840312156200038a57600080fd5b60006200039a848285016200028c565b91505092915050565b620003ae81620004d4565b82525050565b620003bf816200051f565b82525050565b6000620003d38385620004c3565b9350620003e283858462000547565b620003ed8362000556565b840190509392505050565b620004038162000508565b82525050565b620004148162000512565b82525050565b6000602082019050620004316000830184620003b4565b92915050565b600060a08201905081810360008301526200045481898b620003c5565b905081810360208301526200046b818789620003c5565b90506200047c604083018662000409565b6200048b6060830185620003f8565b6200049a6080830184620003a3565b98975050505050505050565b6000602082019050620004bd6000830184620003f8565b92915050565b600082825260208201905092915050565b6000620004e182620004e8565b9050919050565b600073ffffffffffffffffffffffffffffffffffffffff82169050919050565b6000819050919050565b600060ff82169050919050565b60006200052c8262000533565b9050919050565b60006200054082620004e8565b9050919050565b82818337600083830152505050565b6000601f19601f8301169050919050565b6200057281620004d4565b81146200057e57600080fd5b50565b6200058c8162000508565b81146200059857600080fd5b50565b620005a68162000512565b8114620005b257600080fd5b5056fe60806040523480156200001157600080fd5b50604051620033d9380380620033d98339818101604052620000379190810190620002c0565b84600090805190602001906200004f92919062000170565b5083600190805190602001906200006892919062000170565b5082600260006101000a81548160ff021916908360ff16021790555081600381905550600354600560008373ffffffffffffffffffffffffffffffffffffffff1673ffffffffffffffffffffffffffffffffffffffff16815260200190815260200160002060006101000a8154816bffffffffffffffffffffffff02191690836bffffffffffffffffffffffff1602179055508073ffffffffffffffffffffffffffffffffffffffff16600073ffffffffffffffffffffffffffffffffffffffff167fddf252ad1be2c89b69c2b068fc378daa952ba7f163c4a11628f55a4df523b3ef6003546040516200015d919062000385565b60405180910390a35050505050620004cc565b828054600181600116156101000203166002900490600052602060002090601f016020900481019282601f10620001b357805160ff1916838001178555620001e4565b82800160010185558215620001e4579182015b82811115620001e3578251825591602001919060010190620001c6565b5b509050620001f39190620001f7565b5090565b6200021c91905b8082111562000218576000816000905550600101620001fe565b5090565b90565b60008151905062000230816200047e565b92915050565b600082601f8301126200024857600080fd5b81516200025f6200025982620003d0565b620003a2565b915080825260208301602083018583830111156200027c57600080fd5b6200028983828462000448565b50505092915050565b600081519050620002a38162000498565b92915050565b600081519050620002ba81620004b2565b92915050565b600080600080600060a08688031215620002d957600080fd5b600086015167ffffffffffffffff811115620002f457600080fd5b620003028882890162000236565b955050602086015167ffffffffffffffff8111156200032057600080fd5b6200032e8882890162000236565b94505060406200034188828901620002a9565b9350506060620003548882890162000292565b925050608062000367888289016200021f565b9150509295509295909350565b6200037f8162000431565b82525050565b60006020820190506200039c600083018462000374565b92915050565b6000604051905081810181811067ffffffffffffffff82111715620003c657600080fd5b8060405250919050565b600067ffffffffffffffff821115620003e857600080fd5b601f19601f8301169050602081019050919050565b60006200040a8262000411565b9050919050565b600073ffffffffffffffffffffffffffffffffffffffff82169050919050565b6000819050919050565b600060ff82169050919050565b60005b83811015620004685780820151818401526020810190506200044b565b8381111562000478576000848401525b50505050565b6200048981620003fd565b81146200049557600080fd5b50565b620004a38162000431565b8114620004af57600080fd5b50565b620004bd816200043b565b8114620004c957600080fd5b50565b612efd80620004dc6000396000f3fe608060405234801561001057600080fd5b50600436106101215760003560e01c806370a08231116100ad578063b4b5ea5711610071578063b4b5ea5714610358578063c3cda52014610388578063dd62ed3e146103a4578063e7a324dc146103d4578063f1127ed8146103f257610121565b806370a082311461027a578063782d6fe1146102aa5780637ecebe00146102da57806395d89b411461030a578063a9059cbb1461032857610121565b806323b872dd116100f457806323b872dd146101b0578063313ce567146101e0578063587cde1e146101fe5780635c19a95c1461022e5780636fcfff451461024a57610121565b806306fdde0314610126578063095ea7b31461014457806318160ddd1461017457806320606b7014610192575b600080fd5b61012e610423565b60405161013b91906129b8565b60405180910390f35b61015e600480360361015991908101906121fa565b6104c1565b60405161016b91906128b3565b60405180910390f35b61017c610654565b6040516101899190612abc565b60405180910390f35b61019a61065a565b6040516101a791906128ce565b60405180910390f35b6101ca60048036036101c591908101906121ab565b610671565b6040516101d791906128b3565b60405180910390f35b6101e8610905565b6040516101f59190612b1b565b60405180910390f35b61021860048036036102139190810190612146565b610918565b6040516102259190612898565b60405180910390f35b61024860048036036102439190810190612146565b61094b565b005b610264600480360361025f9190810190612146565b610958565b6040516102719190612ad7565b60405180910390f35b610294600480360361028f9190810190612146565b61097b565b6040516102a19190612abc565b60405180910390f35b6102c460048036036102bf91908101906121fa565b6109ea565b6040516102d19190612b51565b60405180910390f35b6102f460048036036102ef9190810190612146565b610dfd565b6040516103019190612abc565b60405180910390f35b610312610e15565b60405161031f91906129b8565b60405180910390f35b610342600480360361033d91908101906121fa565b610eb3565b60405161034f91906128b3565b60405180910390f35b610372600480360361036d9190810190612146565b610ef0565b60405161037f9190612b51565b60405180910390f35b6103a2600480360361039d9190810190612236565b610fde565b005b6103be60048036036103b9919081019061216f565b61125b565b6040516103cb9190612abc565b60405180910390f35b6103dc611308565b6040516103e991906128ce565b60405180910390f35b61040c600480360361040791908101906122bf565b61131f565b60405161041a929190612af2565b60405180910390f35b60008054600181600116156101000203166002900480601f0160208091040260200160405190810160405280929190818152602001828054600181600116156101000203166002900480156104b95780601f1061048e576101008083540402835291602001916104b9565b820191906000526020600020905b81548152906001019060200180831161049c57829003601f168201915b505050505081565b6000807fffffffffffffffffffffffffffffffffffffffffffffffffffffffffffffffff831415610514577fffffffffffffffffffffffffffffffffffffffffffffffffffffffffffffffff9050610539565b61053683604051806060016040528060268152602001612de860269139611378565b90505b80600460003373ffffffffffffffffffffffffffffffffffffffff1673ffffffffffffffffffffffffffffffffffffffff16815260200190815260200160002060008673ffffffffffffffffffffffffffffffffffffffff1673ffffffffffffffffffffffffffffffffffffffff16815260200190815260200160002060006101000a8154816bffffffffffffffffffffffff02191690836bffffffffffffffffffffffff1602179055508373ffffffffffffffffffffffffffffffffffffffff163373ffffffffffffffffffffffffffffffffffffffff167f8c5be1e5ebec7d5bd14f71427d1e84f3dd0314c0f7b2291e5b200ac8c7c3b925836040516106419190612b36565b60405180910390a3600191505092915050565b60035481565b6040516106669061286e565b604051809103902081565b6000803390506000600460008773ffffffffffffffffffffffffffffffffffffffff1673ffffffffffffffffffffffffffffffffffffffff16815260200190815260200160002060008373ffffffffffffffffffffffffffffffffffffffff1673ffffffffffffffffffffffffffffffffffffffff16815260200190815260200160002060009054906101000a90046bffffffffffffffffffffffff169050600061073485604051806060016040528060268152602001612de860269139611378565b90508673ffffffffffffffffffffffffffffffffffffffff168373ffffffffffffffffffffffffffffffffffffffff16141580156107ae57507fffffffffffffffffffffffffffffffffffffffffffffffffffffffffffffffff6bffffffffffffffffffffffff16826bffffffffffffffffffffffff1614155b156108ec5760006107d883836040518060600160405280603e8152602001612d79603e91396113d6565b905080600460008a73ffffffffffffffffffffffffffffffffffffffff1673ffffffffffffffffffffffffffffffffffffffff16815260200190815260200160002060008673ffffffffffffffffffffffffffffffffffffffff1673ffffffffffffffffffffffffffffffffffffffff16815260200190815260200160002060006101000a8154816bffffffffffffffffffffffff02191690836bffffffffffffffffffffffff1602179055508373ffffffffffffffffffffffffffffffffffffffff168873ffffffffffffffffffffffffffffffffffffffff167f8c5be1e5ebec7d5bd14f71427d1e84f3dd0314c0f7b2291e5b200ac8c7c3b925836040516108e29190612b36565b60405180910390a3505b6108f7878783611447565b600193505050509392505050565b600260009054906101000a900460ff1681565b60066020528060005260406000206000915054906101000a900473ffffffffffffffffffffffffffffffffffffffff1681565b6109553382611828565b50565b60086020528060005260406000206000915054906101000a900463ffffffff1681565b6000600560008373ffffffffffffffffffffffffffffffffffffffff1673ffffffffffffffffffffffffffffffffffffffff16815260200190815260200160002060009054906101000a90046bffffffffffffffffffffffff166bffffffffffffffffffffffff169050919050565b6000438210610a2e576040517f08c379a0000000000000000000000000000000000000000000000000000000008152600401610a25906129fc565b60405180910390fd5b6000600860008573ffffffffffffffffffffffffffffffffffffffff1673ffffffffffffffffffffffffffffffffffffffff16815260200190815260200160002060009054906101000a900463ffffffff16905060008163ffffffff161415610a9b576000915050610df7565b82600760008673ffffffffffffffffffffffffffffffffffffffff1673ffffffffffffffffffffffffffffffffffffffff16815260200190815260200160002060006001840363ffffffff1663ffffffff16815260200190815260200160002060000160009054906101000a900463ffffffff1663ffffffff1611610b9d57600760008573ffffffffffffffffffffffffffffffffffffffff1673ffffffffffffffffffffffffffffffffffffffff16815260200190815260200160002060006001830363ffffffff1663ffffffff16815260200190815260200160002060000160049054906101000a90046bffffffffffffffffffffffff16915050610df7565b82600760008673ffffffffffffffffffffffffffffffffffffffff1673ffffffffffffffffffffffffffffffffffffffff16815260200190815260200160002060008063ffffffff16815260200190815260200160002060000160009054906101000a900463ffffffff1663ffffffff161115610c1e576000915050610df7565b600080905060006001830390505b8163ffffffff168163ffffffff161115610d79576000600283830363ffffffff1681610c5457fe5b0482039050610c616120af565b600760008973ffffffffffffffffffffffffffffffffffffffff1673ffffffffffffffffffffffffffffffffffffffff16815260200190815260200160002060008363ffffffff1663ffffffff1681526020019081526020016000206040518060400160405290816000820160009054906101000a900463ffffffff1663ffffffff1663ffffffff1681526020016000820160049054906101000a90046bffffffffffffffffffffffff166bffffffffffffffffffffffff166bffffffffffffffffffffffff1681525050905086816000015163ffffffff161415610d5157806020015195505050505050610df7565b86816000015163ffffffff161015610d6b57819350610d72565b6001820392505b5050610c2c565b600760008773ffffffffffffffffffffffffffffffffffffffff1673ffffffffffffffffffffffffffffffffffffffff16815260200190815260200160002060008363ffffffff1663ffffffff16815260200190815260200160002060000160049054906101000a90046bffffffffffffffffffffffff1693505050505b92915050565b60096020528060005260406000206000915090505481565b60018054600181600116156101000203166002900480601f016020809104026020016040519081016040528092919081815260200182805460018160011615610100020316600290048015610eab5780601f10610e8057610100808354040283529160200191610eab565b820191906000526020600020905b815481529060010190602001808311610e8e57829003601f168201915b505050505081565b600080610ed883604051806060016040528060278152602001612e9460279139611378565b9050610ee5338583611447565b600191505092915050565b600080600860008473ffffffffffffffffffffffffffffffffffffffff1673ffffffffffffffffffffffffffffffffffffffff16815260200190815260200160002060009054906101000a900463ffffffff16905060008163ffffffff1611610f5a576000610fd6565b600760008473ffffffffffffffffffffffffffffffffffffffff1673ffffffffffffffffffffffffffffffffffffffff16815260200190815260200160002060006001830363ffffffff1663ffffffff16815260200190815260200160002060000160049054906101000a90046bffffffffffffffffffffffff165b915050919050565b6000604051610fec9061286e565b604051809103902060006040516110039190612820565b60405180910390206110136119e8565b30604051602001611027949392919061292e565b604051602081830303815290604052805190602001209050600060405161104d90612883565b604051809103902088888860405160200161106b94939291906128e9565b60405160208183030381529060405280519060200120905060008282604051602001611098929190612837565b6040516020818303038152906040528051906020012090506000600182888888604051600081526020016040526040516110d59493929190612973565b6020604051602081039080840390855afa1580156110f7573d6000803e3d6000fd5b505050602060405103519050600073ffffffffffffffffffffffffffffffffffffffff168173ffffffffffffffffffffffffffffffffffffffff161415611173576040517f08c379a000000000000000000000000000000000000000000000000000000000815260040161116a90612a5c565b60405180910390fd5b600960008273ffffffffffffffffffffffffffffffffffffffff1673ffffffffffffffffffffffffffffffffffffffff1681526020019081526020016000206000815480929190600101919050558914611202576040517f08c379a00000000000000000000000000000000000000000000000000000000081526004016111f990612a7c565b60405180910390fd5b87421115611245576040517f08c379a000000000000000000000000000000000000000000000000000000000815260040161123c90612a9c565b60405180910390fd5b61124f818b611828565b50505050505050505050565b6000600460008473ffffffffffffffffffffffffffffffffffffffff1673ffffffffffffffffffffffffffffffffffffffff16815260200190815260200160002060008373ffffffffffffffffffffffffffffffffffffffff1673ffffffffffffffffffffffffffffffffffffffff16815260200190815260200160002060009054906101000a90046bffffffffffffffffffffffff166bffffffffffffffffffffffff16905092915050565b60405161131490612883565b604051809103902081565b6007602052816000526040600020602052806000526040600020600091509150508060000160009054906101000a900463ffffffff16908060000160049054906101000a90046bffffffffffffffffffffffff16905082565b60006c01000000000000000000000000831082906113cc576040517f08c379a00000000000000000000000000000000000000000000000000000000081526004016113c391906129da565b60405180910390fd5b5082905092915050565b6000836bffffffffffffffffffffffff16836bffffffffffffffffffffffff161115829061143a576040517f08c379a000000000000000000000000000000000000000000000000000000000815260040161143191906129da565b60405180910390fd5b5082840390509392505050565b600073ffffffffffffffffffffffffffffffffffffffff168373ffffffffffffffffffffffffffffffffffffffff1614156114b7576040517f08c379a00000000000000000000000000000000000000000000000000000000081526004016114ae90612a1c565b60405180910390fd5b600073ffffffffffffffffffffffffffffffffffffffff168273ffffffffffffffffffffffffffffffffffffffff161415611527576040517f08c379a000000000000000000000000000000000000000000000000000000000815260040161151e90612a3c565b60405180910390fd5b6115a1600560008573ffffffffffffffffffffffffffffffffffffffff1673ffffffffffffffffffffffffffffffffffffffff16815260200190815260200160002060009054906101000a90046bffffffffffffffffffffffff1682604051806060016040528060378152602001612d42603791396113d6565b600560008573ffffffffffffffffffffffffffffffffffffffff1673ffffffffffffffffffffffffffffffffffffffff16815260200190815260200160002060006101000a8154816bffffffffffffffffffffffff02191690836bffffffffffffffffffffffff160217905550611688600560008473ffffffffffffffffffffffffffffffffffffffff1673ffffffffffffffffffffffffffffffffffffffff16815260200190815260200160002060009054906101000a90046bffffffffffffffffffffffff1682604051806060016040528060318152602001612db7603191396119f5565b600560008473ffffffffffffffffffffffffffffffffffffffff1673ffffffffffffffffffffffffffffffffffffffff16815260200190815260200160002060006101000a8154816bffffffffffffffffffffffff02191690836bffffffffffffffffffffffff1602179055508173ffffffffffffffffffffffffffffffffffffffff168373ffffffffffffffffffffffffffffffffffffffff167fddf252ad1be2c89b69c2b068fc378daa952ba7f163c4a11628f55a4df523b3ef836040516117529190612b36565b60405180910390a3611823600660008573ffffffffffffffffffffffffffffffffffffffff1673ffffffffffffffffffffffffffffffffffffffff16815260200190815260200160002060009054906101000a900473ffffffffffffffffffffffffffffffffffffffff16600660008573ffffffffffffffffffffffffffffffffffffffff1673ffffffffffffffffffffffffffffffffffffffff16815260200190815260200160002060009054906101000a900473ffffffffffffffffffffffffffffffffffffffff1683611a6b565b505050565b6000600660008473ffffffffffffffffffffffffffffffffffffffff1673ffffffffffffffffffffffffffffffffffffffff16815260200190815260200160002060009054906101000a900473ffffffffffffffffffffffffffffffffffffffff1690506000600560008573ffffffffffffffffffffffffffffffffffffffff1673ffffffffffffffffffffffffffffffffffffffff16815260200190815260200160002060009054906101000a90046bffffffffffffffffffffffff16905082600660008673ffffffffffffffffffffffffffffffffffffffff1673ffffffffffffffffffffffffffffffffffffffff16815260200190815260200160002060006101000a81548173ffffffffffffffffffffffffffffffffffffffff021916908373ffffffffffffffffffffffffffffffffffffffff1602179055508273ffffffffffffffffffffffffffffffffffffffff168273ffffffffffffffffffffffffffffffffffffffff168573ffffffffffffffffffffffffffffffffffffffff167f3134e8a2e6d97e929a7e54011ea5485d7d196dd5f0ba4d4ef95803e8e3fc257f60405160405180910390a46119e2828483611a6b565b50505050565b6000804690508091505090565b6000808385019050846bffffffffffffffffffffffff16816bffffffffffffffffffffffff1610158390611a5f576040517f08c379a0000000000000000000000000000000000000000000000000000000008152600401611a5691906129da565b60405180910390fd5b50809150509392505050565b8173ffffffffffffffffffffffffffffffffffffffff168373ffffffffffffffffffffffffffffffffffffffff1614158015611ab557506000816bffffffffffffffffffffffff16115b15611d6157600073ffffffffffffffffffffffffffffffffffffffff168373ffffffffffffffffffffffffffffffffffffffff1614611c0d576000600860008573ffffffffffffffffffffffffffffffffffffffff1673ffffffffffffffffffffffffffffffffffffffff16815260200190815260200160002060009054906101000a900463ffffffff1690506000808263ffffffff1611611b58576000611bd4565b600760008673ffffffffffffffffffffffffffffffffffffffff1673ffffffffffffffffffffffffffffffffffffffff16815260200190815260200160002060006001840363ffffffff1663ffffffff16815260200190815260200160002060000160049054906101000a90046bffffffffffffffffffffffff165b90506000611bfb8285604051806060016040528060298152602001612e43602991396113d6565b9050611c0986848484611d66565b5050505b600073ffffffffffffffffffffffffffffffffffffffff168273ffffffffffffffffffffffffffffffffffffffff1614611d60576000600860008473ffffffffffffffffffffffffffffffffffffffff1673ffffffffffffffffffffffffffffffffffffffff16815260200190815260200160002060009054906101000a900463ffffffff1690506000808263ffffffff1611611cab576000611d27565b600760008573ffffffffffffffffffffffffffffffffffffffff1673ffffffffffffffffffffffffffffffffffffffff16815260200190815260200160002060006001840363ffffffff1663ffffffff16815260200190815260200160002060000160049054906101000a90046bffffffffffffffffffffffff165b90506000611d4e8285604051806060016040528060288152602001612e6c602891396119f5565b9050611d5c85848484611d66565b5050505b5b505050565b6000611d8a43604051806060016040528060358152602001612e0e60359139612059565b905060008463ffffffff16118015611e1f57508063ffffffff16600760008773ffffffffffffffffffffffffffffffffffffffff1673ffffffffffffffffffffffffffffffffffffffff16815260200190815260200160002060006001870363ffffffff1663ffffffff16815260200190815260200160002060000160009054906101000a900463ffffffff1663ffffffff16145b15611eba5781600760008773ffffffffffffffffffffffffffffffffffffffff1673ffffffffffffffffffffffffffffffffffffffff16815260200190815260200160002060006001870363ffffffff1663ffffffff16815260200190815260200160002060000160046101000a8154816bffffffffffffffffffffffff02191690836bffffffffffffffffffffffff160217905550612002565b60405180604001604052808263ffffffff168152602001836bffffffffffffffffffffffff16815250600760008773ffffffffffffffffffffffffffffffffffffffff1673ffffffffffffffffffffffffffffffffffffffff16815260200190815260200160002060008663ffffffff1663ffffffff16815260200190815260200160002060008201518160000160006101000a81548163ffffffff021916908363ffffffff16021790555060208201518160000160046101000a8154816bffffffffffffffffffffffff02191690836bffffffffffffffffffffffff16021790555090505060018401600860008773ffffffffffffffffffffffffffffffffffffffff1673ffffffffffffffffffffffffffffffffffffffff16815260200190815260200160002060006101000a81548163ffffffff021916908363ffffffff1602179055505b8473ffffffffffffffffffffffffffffffffffffffff167fdec2bacdd2f05b59de34da9b523dff8be42e5e38e818c82fdb0bae774387a724848460405161204a929190612b6c565b60405180910390a25050505050565b6000640100000000831082906120a5576040517f08c379a000000000000000000000000000000000000000000000000000000000815260040161209c91906129da565b60405180910390fd5b5082905092915050565b6040518060400160405280600063ffffffff16815260200160006bffffffffffffffffffffffff1681525090565b6000813590506120ec81612cce565b92915050565b60008135905061210181612ce5565b92915050565b60008135905061211681612cfc565b92915050565b60008135905061212b81612d13565b92915050565b60008135905061214081612d2a565b92915050565b60006020828403121561215857600080fd5b6000612166848285016120dd565b91505092915050565b6000806040838503121561218257600080fd5b6000612190858286016120dd565b92505060206121a1858286016120dd565b9150509250929050565b6000806000606084860312156121c057600080fd5b60006121ce868287016120dd565b93505060206121df868287016120dd565b92505060406121f086828701612107565b9150509250925092565b6000806040838503121561220d57600080fd5b600061221b858286016120dd565b925050602061222c85828601612107565b9150509250929050565b60008060008060008060c0878903121561224f57600080fd5b600061225d89828a016120dd565b965050602061226e89828a01612107565b955050604061227f89828a01612107565b945050606061229089828a01612131565b93505060806122a189828a016120f2565b92505060a06122b289828a016120f2565b9150509295509295509295565b600080604083850312156122d257600080fd5b60006122e0858286016120dd565b92505060206122f18582860161211c565b9150509250929050565b61230481612be7565b82525050565b61231381612bf9565b82525050565b61232281612c05565b82525050565b61233961233482612c05565b612cb3565b82525050565b60008154600181166000811461235c5760018114612381576123c5565b607f600283041661236d8187612bc0565b955060ff19831686528086019350506123c5565b6002820461238f8187612bc0565b955061239a85612b95565b60005b828110156123bc5781548189015260018201915060208101905061239d565b82880195505050505b505092915050565b60006123d882612bb5565b6123e28185612bcb565b93506123f2818560208601612c80565b6123fb81612cbd565b840191505092915050565b600061241182612baa565b61241b8185612bcb565b935061242b818560208601612c80565b61243481612cbd565b840191505092915050565b600061244c602883612bcb565b91507f546f6b656e3a3a6765745072696f72566f7465733a206e6f742079657420646560008301527f7465726d696e65640000000000000000000000000000000000000000000000006020830152604082019050919050565b60006124b2603d83612bcb565b91507f546f6b656e3a3a5f7472616e73666572546f6b656e733a2063616e6e6f74207460008301527f72616e736665722066726f6d20746865207a65726f20616464726573730000006020830152604082019050919050565b6000612518603b83612bcb565b91507f546f6b656e3a3a5f7472616e73666572546f6b656e733a2063616e6e6f74207460008301527f72616e7366657220746f20746865207a65726f206164647265737300000000006020830152604082019050919050565b600061257e600283612bdc565b91507f19010000000000000000000000000000000000000000000000000000000000006000830152600282019050919050565b60006125be602783612bcb565b91507f546f6b656e3a3a64656c656761746542795369673a20696e76616c696420736960008301527f676e6174757265000000000000000000000000000000000000000000000000006020830152604082019050919050565b6000612624602383612bcb565b91507f546f6b656e3a3a64656c656761746542795369673a20696e76616c6964206e6f60008301527f6e636500000000000000000000000000000000000000000000000000000000006020830152604082019050919050565b600061268a602783612bcb565b91507f546f6b656e3a3a64656c656761746542795369673a207369676e61747572652060008301527f65787069726564000000000000000000000000000000000000000000000000006020830152604082019050919050565b60006126f0604383612bdc565b91507f454950373132446f6d61696e28737472696e67206e616d652c75696e7432353660008301527f20636861696e49642c6164647265737320766572696679696e67436f6e74726160208301527f63742900000000000000000000000000000000000000000000000000000000006040830152604382019050919050565b600061277c603a83612bdc565b91507f44656c65676174696f6e28616464726573732064656c6567617465652c75696e60008301527f74323536206e6f6e63652c75696e7432353620657870697279290000000000006020830152603a82019050919050565b6127de81612c2f565b82525050565b6127ed81612c39565b82525050565b6127fc81612c49565b82525050565b61280b81612c6e565b82525050565b61281a81612c56565b82525050565b600061282c828461233f565b915081905092915050565b600061284282612571565b915061284e8285612328565b60208201915061285e8284612328565b6020820191508190509392505050565b6000612879826126e3565b9150819050919050565b600061288e8261276f565b9150819050919050565b60006020820190506128ad60008301846122fb565b92915050565b60006020820190506128c8600083018461230a565b92915050565b60006020820190506128e36000830184612319565b92915050565b60006080820190506128fe6000830187612319565b61290b60208301866122fb565b61291860408301856127d5565b61292560608301846127d5565b95945050505050565b60006080820190506129436000830187612319565b6129506020830186612319565b61295d60408301856127d5565b61296a60608301846122fb565b95945050505050565b60006080820190506129886000830187612319565b61299560208301866127f3565b6129a26040830185612319565b6129af6060830184612319565b95945050505050565b600060208201905081810360008301526129d28184612406565b905092915050565b600060208201905081810360008301526129f481846123cd565b905092915050565b60006020820190508181036000830152612a158161243f565b9050919050565b60006020820190508181036000830152612a35816124a5565b9050919050565b60006020820190508181036000830152612a558161250b565b9050919050565b60006020820190508181036000830152612a75816125b1565b9050919050565b60006020820190508181036000830152612a9581612617565b9050919050565b60006020820190508181036000830152612ab58161267d565b9050919050565b6000602082019050612ad160008301846127d5565b92915050565b6000602082019050612aec60008301846127e4565b92915050565b6000604082019050612b0760008301856127e4565b612b146020830184612811565b9392505050565b6000602082019050612b3060008301846127f3565b92915050565b6000602082019050612b4b6000830184612802565b92915050565b6000602082019050612b666000830184612811565b92915050565b6000604082019050612b816000830185612802565b612b8e6020830184612802565b9392505050565b60008190508160005260206000209050919050565b600081519050919050565b600081519050919050565b600081905092915050565b600082825260208201905092915050565b600081905092915050565b6000612bf282612c0f565b9050919050565b60008115159050919050565b6000819050919050565b600073ffffffffffffffffffffffffffffffffffffffff82169050919050565b6000819050919050565b600063ffffffff82169050919050565b600060ff82169050919050565b60006bffffffffffffffffffffffff82169050919050565b6000612c7982612c56565b9050919050565b60005b83811015612c9e578082015181840152602081019050612c83565b83811115612cad576000848401525b50505050565b6000819050919050565b6000601f19601f8301169050919050565b612cd781612be7565b8114612ce257600080fd5b50565b612cee81612c05565b8114612cf957600080fd5b50565b612d0581612c2f565b8114612d1057600080fd5b50565b612d1c81612c39565b8114612d2757600080fd5b50565b612d3381612c49565b8114612d3e57600080fd5b5056fe546f6b656e3a3a5f7472616e73666572546f6b656e733a207472616e7366657220616d6f756e7420657863656564732062616c616e6365546f6b656e3a3a7472616e7366657246726f6d3a207472616e7366657220616d6f756e742065786365656473207370656e64657220616c6c6f77616e6365546f6b656e3a3a5f7472616e73666572546f6b656e733a207472616e7366657220616d6f756e74206f766572666c6f7773546f6b656e3a3a617070726f76653a20616d6f756e7420657863656564732039362062697473546f6b656e3a3a5f7772697465436865636b706f696e743a20626c6f636b206e756d62657220657863656564732033322062697473546f6b656e3a3a5f6d6f7665566f7465733a20766f746520616d6f756e7420756e646572666c6f7773546f6b656e3a3a5f6d6f7665566f7465733a20766f746520616d6f756e74206f766572666c6f7773546f6b656e3a3a7472616e736665723a20616d6f756e7420657863656564732039362062697473a365627a7a72315820f8e7cf642f7ff30f8b7ee9624ee9ab4549b8588bc2fccda3381001279bb82f7b6c6578706572696d656e74616cf564736f6c63430005100040a365627a7a72315820eb0ab8cf6feec4f778678c197da7141754faa5e2ee277a331a365798d6d7d8146c6578706572696d656e74616cf564736f6c63430005100040",
  "source": "pragma solidity ^0.5.16;\npragma experimental ABIEncoderV2;\n\nimport \"./Token.sol\";\n\ncontract TokenFactory {\n    Token[] public tokens;\n\n    event TokenCreated(address indexed token, uint);\n\n    function createToken(string calldata name, string calldata symbol, uint8 tokenDecimals, uint totalSupply, address account) external {\n        Token token = new Token(name, symbol, tokenDecimals, totalSupply, account);\n        tokens.push(token);\n        emit TokenCreated(address(token), tokens.length);\n    }\n    function tokensLength() external view returns (uint) {\n        return tokens.length;\n    }\n}",
  "sourcePath": "/Users/rpark23/Desktop/dao-factory/contracts/TokenFactory.sol",
  "compiler": {
    "name": "solc",
    "version": "0.5.16+commit.9c3226ce.Emscripten.clang"
  },
  "schemaVersion": "3.3.4",
  "updatedAt": "2021-08-25T23:38:05.578Z",
  "networkType": "ethereum",
  "devdoc": {
    "methods": {}
  },
  "userdoc": {
    "methods": {}
  }
}